{
	"solidityTasks-Web3Bridge/SweetPractice/StudentDetail.sol": {
		"StudentDetail": {
			"abi": [
				{
					"inputs": [],
					"stateMutability": "nonpayable",
					"type": "constructor"
				},
				{
					"inputs": [],
					"name": "admin_address",
					"outputs": [
						{
							"internalType": "address",
							"name": "",
							"type": "address"
						}
					],
					"stateMutability": "view",
					"type": "function"
				},
				{
					"inputs": [
						{
							"internalType": "uint256",
							"name": "_index",
							"type": "uint256"
						}
					],
					"name": "deleteStudent",
					"outputs": [],
					"stateMutability": "nonpayable",
					"type": "function"
				},
				{
					"inputs": [
						{
							"internalType": "uint8",
							"name": "_index",
							"type": "uint8"
						}
					],
					"name": "get_name",
					"outputs": [
						{
							"internalType": "string",
							"name": "",
							"type": "string"
						},
						{
							"internalType": "string",
							"name": "",
							"type": "string"
						},
						{
							"internalType": "uint8",
							"name": "",
							"type": "uint8"
						}
					],
					"stateMutability": "view",
					"type": "function"
				},
				{
					"inputs": [
						{
							"internalType": "string",
							"name": "_name",
							"type": "string"
						},
						{
							"internalType": "string",
							"name": "_gender",
							"type": "string"
						},
						{
							"internalType": "uint8",
							"name": "_age",
							"type": "uint8"
						}
					],
					"name": "store_Details",
					"outputs": [],
					"stateMutability": "nonpayable",
					"type": "function"
				},
				{
					"inputs": [
						{
							"internalType": "uint256",
							"name": "",
							"type": "uint256"
						}
					],
					"name": "studentDetails",
					"outputs": [
						{
							"internalType": "string",
							"name": "Name",
							"type": "string"
						},
						{
							"internalType": "string",
							"name": "Gender",
							"type": "string"
						},
						{
							"internalType": "uint8",
							"name": "age",
							"type": "uint8"
						}
					],
					"stateMutability": "view",
					"type": "function"
				}
			],
			"devdoc": {
				"kind": "dev",
				"methods": {},
				"version": 1
			},
			"evm": {
				"assembly": "    /* \"solidityTasks-Web3Bridge/SweetPractice/StudentDetail.sol\":56:1144  contract StudentDetail {... */\n  mstore(0x40, 0x80)\n    /* \"solidityTasks-Web3Bridge/SweetPractice/StudentDetail.sol\":218:275  constructor() {... */\n  callvalue\n  dup1\n  iszero\n  tag_1\n  jumpi\n  0x00\n  dup1\n  revert\ntag_1:\n  pop\n    /* \"solidityTasks-Web3Bridge/SweetPractice/StudentDetail.sol\":258:268  msg.sender */\n  caller\n    /* \"solidityTasks-Web3Bridge/SweetPractice/StudentDetail.sol\":242:255  admin_address */\n  0x00\n  dup1\n    /* \"solidityTasks-Web3Bridge/SweetPractice/StudentDetail.sol\":242:268  admin_address = msg.sender */\n  0x0100\n  exp\n  dup2\n  sload\n  dup2\n  0xffffffffffffffffffffffffffffffffffffffff\n  mul\n  not\n  and\n  swap1\n  dup4\n  0xffffffffffffffffffffffffffffffffffffffff\n  and\n  mul\n  or\n  swap1\n  sstore\n  pop\n    /* \"solidityTasks-Web3Bridge/SweetPractice/StudentDetail.sol\":56:1144  contract StudentDetail {... */\n  dataSize(sub_0)\n  dup1\n  dataOffset(sub_0)\n  0x00\n  codecopy\n  0x00\n  return\nstop\n\nsub_0: assembly {\n        /* \"solidityTasks-Web3Bridge/SweetPractice/StudentDetail.sol\":56:1144  contract StudentDetail {... */\n      mstore(0x40, 0x80)\n      callvalue\n      dup1\n      iszero\n      tag_1\n      jumpi\n      0x00\n      dup1\n      revert\n    tag_1:\n      pop\n      jumpi(tag_2, lt(calldatasize, 0x04))\n      shr(0xe0, calldataload(0x00))\n      dup1\n      0x26142d2b\n      eq\n      tag_3\n      jumpi\n      dup1\n      0x781caf1d\n      eq\n      tag_4\n      jumpi\n      dup1\n      0xb645307d\n      eq\n      tag_5\n      jumpi\n      dup1\n      0xd5fb052f\n      eq\n      tag_6\n      jumpi\n      dup1\n      0xf2e62772\n      eq\n      tag_7\n      jumpi\n    tag_2:\n      0x00\n      dup1\n      revert\n        /* \"solidityTasks-Web3Bridge/SweetPractice/StudentDetail.sol\":325:539  function store_Details( string memory _name, string memory _gender, uint8 _age) public {... */\n    tag_3:\n      tag_8\n      0x04\n      dup1\n      calldatasize\n      sub\n      dup2\n      add\n      swap1\n      tag_9\n      swap2\n      swap1\n      tag_10\n      jump\t// in\n    tag_9:\n      tag_11\n      jump\t// in\n    tag_8:\n      stop\n        /* \"solidityTasks-Web3Bridge/SweetPractice/StudentDetail.sol\":545:800  function get_name(uint8 _index) public view check_this(_index) returns(string memory, string memory, uint8) {... */\n    tag_4:\n      tag_12\n      0x04\n      dup1\n      calldatasize\n      sub\n      dup2\n      add\n      swap1\n      tag_13\n      swap2\n      swap1\n      tag_14\n      jump\t// in\n    tag_13:\n      tag_15\n      jump\t// in\n    tag_12:\n      mload(0x40)\n      tag_16\n      swap4\n      swap3\n      swap2\n      swap1\n      tag_17\n      jump\t// in\n    tag_16:\n      mload(0x40)\n      dup1\n      swap2\n      sub\n      swap1\n      return\n        /* \"solidityTasks-Web3Bridge/SweetPractice/StudentDetail.sol\":806:980  function deleteStudent(uint _index) public check_this(_index) {... */\n    tag_5:\n      tag_18\n      0x04\n      dup1\n      calldatasize\n      sub\n      dup2\n      add\n      swap1\n      tag_19\n      swap2\n      swap1\n      tag_20\n      jump\t// in\n    tag_19:\n      tag_21\n      jump\t// in\n    tag_18:\n      stop\n        /* \"solidityTasks-Web3Bridge/SweetPractice/StudentDetail.sol\":281:318  studentDetail[] public studentDetails */\n    tag_6:\n      tag_22\n      0x04\n      dup1\n      calldatasize\n      sub\n      dup2\n      add\n      swap1\n      tag_23\n      swap2\n      swap1\n      tag_20\n      jump\t// in\n    tag_23:\n      tag_24\n      jump\t// in\n    tag_22:\n      mload(0x40)\n      tag_25\n      swap4\n      swap3\n      swap2\n      swap1\n      tag_17\n      jump\t// in\n    tag_25:\n      mload(0x40)\n      dup1\n      swap2\n      sub\n      swap1\n      return\n        /* \"solidityTasks-Web3Bridge/SweetPractice/StudentDetail.sol\":183:211  address public admin_address */\n    tag_7:\n      tag_26\n      tag_27\n      jump\t// in\n    tag_26:\n      mload(0x40)\n      tag_28\n      swap2\n      swap1\n      tag_29\n      jump\t// in\n    tag_28:\n      mload(0x40)\n      dup1\n      swap2\n      sub\n      swap1\n      return\n        /* \"solidityTasks-Web3Bridge/SweetPractice/StudentDetail.sol\":325:539  function store_Details( string memory _name, string memory _gender, uint8 _age) public {... */\n    tag_11:\n        /* \"solidityTasks-Web3Bridge/SweetPractice/StudentDetail.sol\":422:453  studentDetail memory newStudent */\n      0x00\n        /* \"solidityTasks-Web3Bridge/SweetPractice/StudentDetail.sol\":456:491  studentDetail(_name, _gender, _age) */\n      mload(0x40)\n      dup1\n      0x60\n      add\n      0x40\n      mstore\n      dup1\n        /* \"solidityTasks-Web3Bridge/SweetPractice/StudentDetail.sol\":470:475  _name */\n      dup6\n        /* \"solidityTasks-Web3Bridge/SweetPractice/StudentDetail.sol\":456:491  studentDetail(_name, _gender, _age) */\n      dup2\n      mstore\n      0x20\n      add\n        /* \"solidityTasks-Web3Bridge/SweetPractice/StudentDetail.sol\":477:484  _gender */\n      dup5\n        /* \"solidityTasks-Web3Bridge/SweetPractice/StudentDetail.sol\":456:491  studentDetail(_name, _gender, _age) */\n      dup2\n      mstore\n      0x20\n      add\n        /* \"solidityTasks-Web3Bridge/SweetPractice/StudentDetail.sol\":486:490  _age */\n      dup4\n        /* \"solidityTasks-Web3Bridge/SweetPractice/StudentDetail.sol\":456:491  studentDetail(_name, _gender, _age) */\n      0xff\n      and\n      dup2\n      mstore\n      pop\n        /* \"solidityTasks-Web3Bridge/SweetPractice/StudentDetail.sol\":422:491  studentDetail memory newStudent = studentDetail(_name, _gender, _age) */\n      swap1\n      pop\n        /* \"solidityTasks-Web3Bridge/SweetPractice/StudentDetail.sol\":501:515  studentDetails */\n      0x01\n        /* \"solidityTasks-Web3Bridge/SweetPractice/StudentDetail.sol\":521:531  newStudent */\n      dup2\n        /* \"solidityTasks-Web3Bridge/SweetPractice/StudentDetail.sol\":501:532  studentDetails.push(newStudent) */\n      swap1\n      dup1\n      0x01\n      dup2\n      sload\n      add\n      dup1\n      dup3\n      sstore\n      dup1\n      swap2\n      pop\n      pop\n      0x01\n      swap1\n      sub\n      swap1\n      0x00\n      mstore\n      keccak256(0x00, 0x20)\n      swap1\n      0x03\n      mul\n      add\n      0x00\n      swap1\n      swap2\n      swap1\n      swap2\n      swap1\n      swap2\n      pop\n      0x00\n      dup3\n      add\n      mload\n      dup2\n      0x00\n      add\n      swap1\n      dup1\n      mload\n      swap1\n      0x20\n      add\n      swap1\n      tag_32\n      swap3\n      swap2\n      swap1\n      tag_33\n      jump\t// in\n    tag_32:\n      pop\n      0x20\n      dup3\n      add\n      mload\n      dup2\n      0x01\n      add\n      swap1\n      dup1\n      mload\n      swap1\n      0x20\n      add\n      swap1\n      tag_34\n      swap3\n      swap2\n      swap1\n      tag_33\n      jump\t// in\n    tag_34:\n      pop\n      0x40\n      dup3\n      add\n      mload\n      dup2\n      0x02\n      add\n      exp(0x0100, 0x00)\n      dup2\n      sload\n      dup2\n      0xff\n      mul\n      not\n      and\n      swap1\n      dup4\n      0xff\n      and\n      mul\n      or\n      swap1\n      sstore\n      pop\n      pop\n      pop\n        /* \"solidityTasks-Web3Bridge/SweetPractice/StudentDetail.sol\":412:539  {... */\n      pop\n        /* \"solidityTasks-Web3Bridge/SweetPractice/StudentDetail.sol\":325:539  function store_Details( string memory _name, string memory _gender, uint8 _age) public {... */\n      pop\n      pop\n      pop\n      jump\t// out\n        /* \"solidityTasks-Web3Bridge/SweetPractice/StudentDetail.sol\":545:800  function get_name(uint8 _index) public view check_this(_index) returns(string memory, string memory, uint8) {... */\n    tag_15:\n        /* \"solidityTasks-Web3Bridge/SweetPractice/StudentDetail.sol\":616:629  string memory */\n      0x60\n        /* \"solidityTasks-Web3Bridge/SweetPractice/StudentDetail.sol\":631:644  string memory */\n      dup1\n        /* \"solidityTasks-Web3Bridge/SweetPractice/StudentDetail.sol\":646:651  uint8 */\n      0x00\n        /* \"solidityTasks-Web3Bridge/SweetPractice/StudentDetail.sol\":600:606  _index */\n      dup4\n        /* \"solidityTasks-Web3Bridge/SweetPractice/StudentDetail.sol\":986:1142  modifier check_this(uint _index) {... */\n      0xff\n      and\n        /* \"solidityTasks-Web3Bridge/SweetPractice/StudentDetail.sol\":1071:1072  1 */\n      0x01\n        /* \"solidityTasks-Web3Bridge/SweetPractice/StudentDetail.sol\":1047:1061  studentDetails */\n      dup1\n        /* \"solidityTasks-Web3Bridge/SweetPractice/StudentDetail.sol\":1047:1068  studentDetails.length */\n      dup1\n      sload\n      swap1\n      pop\n        /* \"solidityTasks-Web3Bridge/SweetPractice/StudentDetail.sol\":1047:1072  studentDetails.length - 1 */\n      tag_36\n      swap2\n      swap1\n      tag_37\n      jump\t// in\n    tag_36:\n        /* \"solidityTasks-Web3Bridge/SweetPractice/StudentDetail.sol\":1037:1043  _index */\n      dup2\n        /* \"solidityTasks-Web3Bridge/SweetPractice/StudentDetail.sol\":1037:1072  _index <= studentDetails.length - 1 */\n      gt\n      iszero\n        /* \"solidityTasks-Web3Bridge/SweetPractice/StudentDetail.sol\":1029:1123  require(_index <= studentDetails.length - 1, \"NO STUDENT AT THIS INDEX! ENTER A LOWER NUMBER\") */\n      tag_38\n      jumpi\n      mload(0x40)\n      0x08c379a000000000000000000000000000000000000000000000000000000000\n      dup2\n      mstore\n      0x04\n      add\n      tag_39\n      swap1\n      tag_40\n      jump\t// in\n    tag_39:\n      mload(0x40)\n      dup1\n      swap2\n      sub\n      swap1\n      revert\n    tag_38:\n        /* \"solidityTasks-Web3Bridge/SweetPractice/StudentDetail.sol\":663:696  studentDetail storage thisStudent */\n      0x00\n        /* \"solidityTasks-Web3Bridge/SweetPractice/StudentDetail.sol\":699:713  studentDetails */\n      0x01\n        /* \"solidityTasks-Web3Bridge/SweetPractice/StudentDetail.sol\":714:720  _index */\n      dup7\n        /* \"solidityTasks-Web3Bridge/SweetPractice/StudentDetail.sol\":699:721  studentDetails[_index] */\n      0xff\n      and\n      dup2\n      sload\n      dup2\n      lt\n      tag_42\n      jumpi\n      tag_43\n      tag_44\n      jump\t// in\n    tag_43:\n    tag_42:\n      swap1\n      0x00\n      mstore\n      keccak256(0x00, 0x20)\n      swap1\n      0x03\n      mul\n      add\n        /* \"solidityTasks-Web3Bridge/SweetPractice/StudentDetail.sol\":663:721  studentDetail storage thisStudent = studentDetails[_index] */\n      swap1\n      pop\n        /* \"solidityTasks-Web3Bridge/SweetPractice/StudentDetail.sol\":739:750  thisStudent */\n      dup1\n        /* \"solidityTasks-Web3Bridge/SweetPractice/StudentDetail.sol\":739:755  thisStudent.Name */\n      0x00\n      add\n        /* \"solidityTasks-Web3Bridge/SweetPractice/StudentDetail.sol\":757:768  thisStudent */\n      dup2\n        /* \"solidityTasks-Web3Bridge/SweetPractice/StudentDetail.sol\":757:775  thisStudent.Gender */\n      0x01\n      add\n        /* \"solidityTasks-Web3Bridge/SweetPractice/StudentDetail.sol\":777:788  thisStudent */\n      dup3\n        /* \"solidityTasks-Web3Bridge/SweetPractice/StudentDetail.sol\":777:792  thisStudent.age */\n      0x02\n      add\n      0x00\n      swap1\n      sload\n      swap1\n      0x0100\n      exp\n      swap1\n      div\n      0xff\n      and\n        /* \"solidityTasks-Web3Bridge/SweetPractice/StudentDetail.sol\":731:793  return (thisStudent.Name, thisStudent.Gender, thisStudent.age) */\n      dup3\n      dup1\n      sload\n      tag_46\n      swap1\n      tag_47\n      jump\t// in\n    tag_46:\n      dup1\n      0x1f\n      add\n      0x20\n      dup1\n      swap2\n      div\n      mul\n      0x20\n      add\n      mload(0x40)\n      swap1\n      dup2\n      add\n      0x40\n      mstore\n      dup1\n      swap3\n      swap2\n      swap1\n      dup2\n      dup2\n      mstore\n      0x20\n      add\n      dup3\n      dup1\n      sload\n      tag_48\n      swap1\n      tag_47\n      jump\t// in\n    tag_48:\n      dup1\n      iszero\n      tag_49\n      jumpi\n      dup1\n      0x1f\n      lt\n      tag_50\n      jumpi\n      0x0100\n      dup1\n      dup4\n      sload\n      div\n      mul\n      dup4\n      mstore\n      swap2\n      0x20\n      add\n      swap2\n      jump(tag_49)\n    tag_50:\n      dup3\n      add\n      swap2\n      swap1\n      0x00\n      mstore\n      keccak256(0x00, 0x20)\n      swap1\n    tag_51:\n      dup2\n      sload\n      dup2\n      mstore\n      swap1\n      0x01\n      add\n      swap1\n      0x20\n      add\n      dup1\n      dup4\n      gt\n      tag_51\n      jumpi\n      dup3\n      swap1\n      sub\n      0x1f\n      and\n      dup3\n      add\n      swap2\n    tag_49:\n      pop\n      pop\n      pop\n      pop\n      pop\n      swap3\n      pop\n      dup2\n      dup1\n      sload\n      tag_52\n      swap1\n      tag_47\n      jump\t// in\n    tag_52:\n      dup1\n      0x1f\n      add\n      0x20\n      dup1\n      swap2\n      div\n      mul\n      0x20\n      add\n      mload(0x40)\n      swap1\n      dup2\n      add\n      0x40\n      mstore\n      dup1\n      swap3\n      swap2\n      swap1\n      dup2\n      dup2\n      mstore\n      0x20\n      add\n      dup3\n      dup1\n      sload\n      tag_53\n      swap1\n      tag_47\n      jump\t// in\n    tag_53:\n      dup1\n      iszero\n      tag_54\n      jumpi\n      dup1\n      0x1f\n      lt\n      tag_55\n      jumpi\n      0x0100\n      dup1\n      dup4\n      sload\n      div\n      mul\n      dup4\n      mstore\n      swap2\n      0x20\n      add\n      swap2\n      jump(tag_54)\n    tag_55:\n      dup3\n      add\n      swap2\n      swap1\n      0x00\n      mstore\n      keccak256(0x00, 0x20)\n      swap1\n    tag_56:\n      dup2\n      sload\n      dup2\n      mstore\n      swap1\n      0x01\n      add\n      swap1\n      0x20\n      add\n      dup1\n      dup4\n      gt\n      tag_56\n      jumpi\n      dup3\n      swap1\n      sub\n      0x1f\n      and\n      dup3\n      add\n      swap2\n    tag_54:\n      pop\n      pop\n      pop\n      pop\n      pop\n      swap2\n      pop\n      swap5\n      pop\n      swap5\n      pop\n      swap5\n      pop\n      pop\n        /* \"solidityTasks-Web3Bridge/SweetPractice/StudentDetail.sol\":545:800  function get_name(uint8 _index) public view check_this(_index) returns(string memory, string memory, uint8) {... */\n      pop\n      swap2\n      swap4\n      swap1\n      swap3\n      pop\n      jump\t// out\n        /* \"solidityTasks-Web3Bridge/SweetPractice/StudentDetail.sol\":806:980  function deleteStudent(uint _index) public check_this(_index) {... */\n    tag_21:\n        /* \"solidityTasks-Web3Bridge/SweetPractice/StudentDetail.sol\":860:866  _index */\n      dup1\n        /* \"solidityTasks-Web3Bridge/SweetPractice/StudentDetail.sol\":1071:1072  1 */\n      0x01\n        /* \"solidityTasks-Web3Bridge/SweetPractice/StudentDetail.sol\":1047:1061  studentDetails */\n      dup1\n        /* \"solidityTasks-Web3Bridge/SweetPractice/StudentDetail.sol\":1047:1068  studentDetails.length */\n      dup1\n      sload\n      swap1\n      pop\n        /* \"solidityTasks-Web3Bridge/SweetPractice/StudentDetail.sol\":1047:1072  studentDetails.length - 1 */\n      tag_58\n      swap2\n      swap1\n      tag_37\n      jump\t// in\n    tag_58:\n        /* \"solidityTasks-Web3Bridge/SweetPractice/StudentDetail.sol\":1037:1043  _index */\n      dup2\n        /* \"solidityTasks-Web3Bridge/SweetPractice/StudentDetail.sol\":1037:1072  _index <= studentDetails.length - 1 */\n      gt\n      iszero\n        /* \"solidityTasks-Web3Bridge/SweetPractice/StudentDetail.sol\":1029:1123  require(_index <= studentDetails.length - 1, \"NO STUDENT AT THIS INDEX! ENTER A LOWER NUMBER\") */\n      tag_59\n      jumpi\n      mload(0x40)\n      0x08c379a000000000000000000000000000000000000000000000000000000000\n      dup2\n      mstore\n      0x04\n      add\n      tag_60\n      swap1\n      tag_40\n      jump\t// in\n    tag_60:\n      mload(0x40)\n      dup1\n      swap2\n      sub\n      swap1\n      revert\n    tag_59:\n        /* \"solidityTasks-Web3Bridge/SweetPractice/StudentDetail.sol\":903:917  studentDetails */\n      0x01\n        /* \"solidityTasks-Web3Bridge/SweetPractice/StudentDetail.sol\":941:942  1 */\n      dup1\n        /* \"solidityTasks-Web3Bridge/SweetPractice/StudentDetail.sol\":918:932  studentDetails */\n      dup1\n        /* \"solidityTasks-Web3Bridge/SweetPractice/StudentDetail.sol\":918:939  studentDetails.length */\n      dup1\n      sload\n      swap1\n      pop\n        /* \"solidityTasks-Web3Bridge/SweetPractice/StudentDetail.sol\":918:942  studentDetails.length -1 */\n      tag_62\n      swap2\n      swap1\n      tag_37\n      jump\t// in\n    tag_62:\n        /* \"solidityTasks-Web3Bridge/SweetPractice/StudentDetail.sol\":903:943  studentDetails[studentDetails.length -1] */\n      dup2\n      sload\n      dup2\n      lt\n      tag_63\n      jumpi\n      tag_64\n      tag_44\n      jump\t// in\n    tag_64:\n    tag_63:\n      swap1\n      0x00\n      mstore\n      keccak256(0x00, 0x20)\n      swap1\n      0x03\n      mul\n      add\n        /* \"solidityTasks-Web3Bridge/SweetPractice/StudentDetail.sol\":878:892  studentDetails */\n      0x01\n        /* \"solidityTasks-Web3Bridge/SweetPractice/StudentDetail.sol\":893:899  _index */\n      dup4\n        /* \"solidityTasks-Web3Bridge/SweetPractice/StudentDetail.sol\":878:900  studentDetails[_index] */\n      dup2\n      sload\n      dup2\n      lt\n      tag_66\n      jumpi\n      tag_67\n      tag_44\n      jump\t// in\n    tag_67:\n    tag_66:\n      swap1\n      0x00\n      mstore\n      keccak256(0x00, 0x20)\n      swap1\n      0x03\n      mul\n      add\n        /* \"solidityTasks-Web3Bridge/SweetPractice/StudentDetail.sol\":878:943  studentDetails[_index] = studentDetails[studentDetails.length -1] */\n      0x00\n      dup3\n      add\n      dup2\n      0x00\n      add\n      swap1\n      dup1\n      sload\n      tag_69\n      swap1\n      tag_47\n      jump\t// in\n    tag_69:\n      tag_70\n      swap3\n      swap2\n      swap1\n      tag_71\n      jump\t// in\n    tag_70:\n      pop\n      0x01\n      dup3\n      add\n      dup2\n      0x01\n      add\n      swap1\n      dup1\n      sload\n      tag_72\n      swap1\n      tag_47\n      jump\t// in\n    tag_72:\n      tag_73\n      swap3\n      swap2\n      swap1\n      tag_71\n      jump\t// in\n    tag_73:\n      pop\n      0x02\n      dup3\n      add\n      0x00\n      swap1\n      sload\n      swap1\n      0x0100\n      exp\n      swap1\n      div\n      0xff\n      and\n      dup2\n      0x02\n      add\n      exp(0x0100, 0x00)\n      dup2\n      sload\n      dup2\n      0xff\n      mul\n      not\n      and\n      swap1\n      dup4\n      0xff\n      and\n      mul\n      or\n      swap1\n      sstore\n      pop\n      swap1\n      pop\n      pop\n        /* \"solidityTasks-Web3Bridge/SweetPractice/StudentDetail.sol\":953:967  studentDetails */\n      0x01\n        /* \"solidityTasks-Web3Bridge/SweetPractice/StudentDetail.sol\":953:973  studentDetails.pop() */\n      dup1\n      sload\n      dup1\n      tag_74\n      jumpi\n      tag_75\n      tag_76\n      jump\t// in\n    tag_75:\n    tag_74:\n      0x01\n      swap1\n      sub\n      dup2\n      dup2\n      swap1\n      0x00\n      mstore\n      keccak256(0x00, 0x20)\n      swap1\n      0x03\n      mul\n      add\n      0x00\n      dup1\n      dup3\n      add\n      0x00\n      tag_78\n      swap2\n      swap1\n      tag_79\n      jump\t// in\n    tag_78:\n      0x01\n      dup3\n      add\n      0x00\n      tag_80\n      swap2\n      swap1\n      tag_79\n      jump\t// in\n    tag_80:\n      0x02\n      dup3\n      add\n      exp(0x0100, 0x00)\n      dup2\n      sload\n      swap1\n      0xff\n      mul\n      not\n      and\n      swap1\n      sstore\n      pop\n      pop\n      swap1\n      sstore\n        /* \"solidityTasks-Web3Bridge/SweetPractice/StudentDetail.sol\":806:980  function deleteStudent(uint _index) public check_this(_index) {... */\n      pop\n      pop\n      jump\t// out\n        /* \"solidityTasks-Web3Bridge/SweetPractice/StudentDetail.sol\":281:318  studentDetail[] public studentDetails */\n    tag_24:\n      0x01\n      dup2\n      dup2\n      sload\n      dup2\n      lt\n      tag_81\n      jumpi\n      0x00\n      dup1\n      revert\n    tag_81:\n      swap1\n      0x00\n      mstore\n      keccak256(0x00, 0x20)\n      swap1\n      0x03\n      mul\n      add\n      0x00\n      swap2\n      pop\n      swap1\n      pop\n      dup1\n      0x00\n      add\n      dup1\n      sload\n      tag_83\n      swap1\n      tag_47\n      jump\t// in\n    tag_83:\n      dup1\n      0x1f\n      add\n      0x20\n      dup1\n      swap2\n      div\n      mul\n      0x20\n      add\n      mload(0x40)\n      swap1\n      dup2\n      add\n      0x40\n      mstore\n      dup1\n      swap3\n      swap2\n      swap1\n      dup2\n      dup2\n      mstore\n      0x20\n      add\n      dup3\n      dup1\n      sload\n      tag_84\n      swap1\n      tag_47\n      jump\t// in\n    tag_84:\n      dup1\n      iszero\n      tag_85\n      jumpi\n      dup1\n      0x1f\n      lt\n      tag_86\n      jumpi\n      0x0100\n      dup1\n      dup4\n      sload\n      div\n      mul\n      dup4\n      mstore\n      swap2\n      0x20\n      add\n      swap2\n      jump(tag_85)\n    tag_86:\n      dup3\n      add\n      swap2\n      swap1\n      0x00\n      mstore\n      keccak256(0x00, 0x20)\n      swap1\n    tag_87:\n      dup2\n      sload\n      dup2\n      mstore\n      swap1\n      0x01\n      add\n      swap1\n      0x20\n      add\n      dup1\n      dup4\n      gt\n      tag_87\n      jumpi\n      dup3\n      swap1\n      sub\n      0x1f\n      and\n      dup3\n      add\n      swap2\n    tag_85:\n      pop\n      pop\n      pop\n      pop\n      pop\n      swap1\n      dup1\n      0x01\n      add\n      dup1\n      sload\n      tag_88\n      swap1\n      tag_47\n      jump\t// in\n    tag_88:\n      dup1\n      0x1f\n      add\n      0x20\n      dup1\n      swap2\n      div\n      mul\n      0x20\n      add\n      mload(0x40)\n      swap1\n      dup2\n      add\n      0x40\n      mstore\n      dup1\n      swap3\n      swap2\n      swap1\n      dup2\n      dup2\n      mstore\n      0x20\n      add\n      dup3\n      dup1\n      sload\n      tag_89\n      swap1\n      tag_47\n      jump\t// in\n    tag_89:\n      dup1\n      iszero\n      tag_90\n      jumpi\n      dup1\n      0x1f\n      lt\n      tag_91\n      jumpi\n      0x0100\n      dup1\n      dup4\n      sload\n      div\n      mul\n      dup4\n      mstore\n      swap2\n      0x20\n      add\n      swap2\n      jump(tag_90)\n    tag_91:\n      dup3\n      add\n      swap2\n      swap1\n      0x00\n      mstore\n      keccak256(0x00, 0x20)\n      swap1\n    tag_92:\n      dup2\n      sload\n      dup2\n      mstore\n      swap1\n      0x01\n      add\n      swap1\n      0x20\n      add\n      dup1\n      dup4\n      gt\n      tag_92\n      jumpi\n      dup3\n      swap1\n      sub\n      0x1f\n      and\n      dup3\n      add\n      swap2\n    tag_90:\n      pop\n      pop\n      pop\n      pop\n      pop\n      swap1\n      dup1\n      0x02\n      add\n      0x00\n      swap1\n      sload\n      swap1\n      0x0100\n      exp\n      swap1\n      div\n      0xff\n      and\n      swap1\n      pop\n      dup4\n      jump\t// out\n        /* \"solidityTasks-Web3Bridge/SweetPractice/StudentDetail.sol\":183:211  address public admin_address */\n    tag_27:\n      0x00\n      dup1\n      sload\n      swap1\n      0x0100\n      exp\n      swap1\n      div\n      0xffffffffffffffffffffffffffffffffffffffff\n      and\n      dup2\n      jump\t// out\n    tag_33:\n      dup3\n      dup1\n      sload\n      tag_93\n      swap1\n      tag_47\n      jump\t// in\n    tag_93:\n      swap1\n      0x00\n      mstore\n      keccak256(0x00, 0x20)\n      swap1\n      0x1f\n      add\n      0x20\n      swap1\n      div\n      dup2\n      add\n      swap3\n      dup3\n      tag_95\n      jumpi\n      0x00\n      dup6\n      sstore\n      jump(tag_94)\n    tag_95:\n      dup3\n      0x1f\n      lt\n      tag_96\n      jumpi\n      dup1\n      mload\n      not(0xff)\n      and\n      dup4\n      dup1\n      add\n      or\n      dup6\n      sstore\n      jump(tag_94)\n    tag_96:\n      dup3\n      dup1\n      add\n      0x01\n      add\n      dup6\n      sstore\n      dup3\n      iszero\n      tag_94\n      jumpi\n      swap2\n      dup3\n      add\n    tag_97:\n      dup3\n      dup2\n      gt\n      iszero\n      tag_98\n      jumpi\n      dup3\n      mload\n      dup3\n      sstore\n      swap2\n      0x20\n      add\n      swap2\n      swap1\n      0x01\n      add\n      swap1\n      jump(tag_97)\n    tag_98:\n    tag_94:\n      pop\n      swap1\n      pop\n      tag_99\n      swap2\n      swap1\n      tag_100\n      jump\t// in\n    tag_99:\n      pop\n      swap1\n      jump\t// out\n    tag_71:\n      dup3\n      dup1\n      sload\n      tag_101\n      swap1\n      tag_47\n      jump\t// in\n    tag_101:\n      swap1\n      0x00\n      mstore\n      keccak256(0x00, 0x20)\n      swap1\n      0x1f\n      add\n      0x20\n      swap1\n      div\n      dup2\n      add\n      swap3\n      dup3\n      tag_103\n      jumpi\n      0x00\n      dup6\n      sstore\n      jump(tag_102)\n    tag_103:\n      dup3\n      0x1f\n      lt\n      tag_104\n      jumpi\n      dup1\n      sload\n      dup6\n      sstore\n      jump(tag_102)\n    tag_104:\n      dup3\n      dup1\n      add\n      0x01\n      add\n      dup6\n      sstore\n      dup3\n      iszero\n      tag_102\n      jumpi\n      0x00\n      mstore\n      keccak256(0x00, 0x20)\n      swap2\n      0x1f\n      add\n      0x20\n      swap1\n      div\n      dup3\n      add\n    tag_105:\n      dup3\n      dup2\n      gt\n      iszero\n      tag_106\n      jumpi\n      dup3\n      sload\n      dup3\n      sstore\n      swap2\n      0x01\n      add\n      swap2\n      swap1\n      0x01\n      add\n      swap1\n      jump(tag_105)\n    tag_106:\n    tag_102:\n      pop\n      swap1\n      pop\n      tag_107\n      swap2\n      swap1\n      tag_100\n      jump\t// in\n    tag_107:\n      pop\n      swap1\n      jump\t// out\n    tag_79:\n      pop\n      dup1\n      sload\n      tag_108\n      swap1\n      tag_47\n      jump\t// in\n    tag_108:\n      0x00\n      dup3\n      sstore\n      dup1\n      0x1f\n      lt\n      tag_110\n      jumpi\n      pop\n      jump(tag_109)\n    tag_110:\n      0x1f\n      add\n      0x20\n      swap1\n      div\n      swap1\n      0x00\n      mstore\n      keccak256(0x00, 0x20)\n      swap1\n      dup2\n      add\n      swap1\n      tag_111\n      swap2\n      swap1\n      tag_100\n      jump\t// in\n    tag_111:\n    tag_109:\n      pop\n      jump\t// out\n    tag_100:\n    tag_112:\n      dup1\n      dup3\n      gt\n      iszero\n      tag_113\n      jumpi\n      0x00\n      dup2\n      0x00\n      swap1\n      sstore\n      pop\n      0x01\n      add\n      jump(tag_112)\n    tag_113:\n      pop\n      swap1\n      jump\t// out\n        /* \"#utility.yul\":7:419   */\n    tag_115:\n        /* \"#utility.yul\":85:90   */\n      0x00\n        /* \"#utility.yul\":110:176   */\n      tag_117\n        /* \"#utility.yul\":126:175   */\n      tag_118\n        /* \"#utility.yul\":168:174   */\n      dup5\n        /* \"#utility.yul\":126:175   */\n      tag_119\n      jump\t// in\n    tag_118:\n        /* \"#utility.yul\":110:176   */\n      tag_120\n      jump\t// in\n    tag_117:\n        /* \"#utility.yul\":101:176   */\n      swap1\n      pop\n        /* \"#utility.yul\":199:205   */\n      dup3\n        /* \"#utility.yul\":192:197   */\n      dup2\n        /* \"#utility.yul\":185:206   */\n      mstore\n        /* \"#utility.yul\":237:241   */\n      0x20\n        /* \"#utility.yul\":230:235   */\n      dup2\n        /* \"#utility.yul\":226:242   */\n      add\n        /* \"#utility.yul\":275:278   */\n      dup5\n        /* \"#utility.yul\":266:272   */\n      dup5\n        /* \"#utility.yul\":261:264   */\n      dup5\n        /* \"#utility.yul\":257:273   */\n      add\n        /* \"#utility.yul\":254:279   */\n      gt\n        /* \"#utility.yul\":251:363   */\n      iszero\n      tag_121\n      jumpi\n        /* \"#utility.yul\":282:361   */\n      tag_122\n      tag_123\n      jump\t// in\n    tag_122:\n        /* \"#utility.yul\":251:363   */\n    tag_121:\n        /* \"#utility.yul\":372:413   */\n      tag_124\n        /* \"#utility.yul\":406:412   */\n      dup5\n        /* \"#utility.yul\":401:404   */\n      dup3\n        /* \"#utility.yul\":396:399   */\n      dup6\n        /* \"#utility.yul\":372:413   */\n      tag_125\n      jump\t// in\n    tag_124:\n        /* \"#utility.yul\":91:419   */\n      pop\n        /* \"#utility.yul\":7:419   */\n      swap4\n      swap3\n      pop\n      pop\n      pop\n      jump\t// out\n        /* \"#utility.yul\":439:779   */\n    tag_126:\n        /* \"#utility.yul\":495:500   */\n      0x00\n        /* \"#utility.yul\":544:547   */\n      dup3\n        /* \"#utility.yul\":537:541   */\n      0x1f\n        /* \"#utility.yul\":529:535   */\n      dup4\n        /* \"#utility.yul\":525:542   */\n      add\n        /* \"#utility.yul\":521:548   */\n      slt\n        /* \"#utility.yul\":511:633   */\n      tag_128\n      jumpi\n        /* \"#utility.yul\":552:631   */\n      tag_129\n      tag_130\n      jump\t// in\n    tag_129:\n        /* \"#utility.yul\":511:633   */\n    tag_128:\n        /* \"#utility.yul\":669:675   */\n      dup2\n        /* \"#utility.yul\":656:676   */\n      calldataload\n        /* \"#utility.yul\":694:773   */\n      tag_131\n        /* \"#utility.yul\":769:772   */\n      dup5\n        /* \"#utility.yul\":761:767   */\n      dup3\n        /* \"#utility.yul\":754:758   */\n      0x20\n        /* \"#utility.yul\":746:752   */\n      dup7\n        /* \"#utility.yul\":742:759   */\n      add\n        /* \"#utility.yul\":694:773   */\n      tag_115\n      jump\t// in\n    tag_131:\n        /* \"#utility.yul\":685:773   */\n      swap2\n      pop\n        /* \"#utility.yul\":501:779   */\n      pop\n        /* \"#utility.yul\":439:779   */\n      swap3\n      swap2\n      pop\n      pop\n      jump\t// out\n        /* \"#utility.yul\":785:924   */\n    tag_132:\n        /* \"#utility.yul\":831:836   */\n      0x00\n        /* \"#utility.yul\":869:875   */\n      dup2\n        /* \"#utility.yul\":856:876   */\n      calldataload\n        /* \"#utility.yul\":847:876   */\n      swap1\n      pop\n        /* \"#utility.yul\":885:918   */\n      tag_134\n        /* \"#utility.yul\":912:917   */\n      dup2\n        /* \"#utility.yul\":885:918   */\n      tag_135\n      jump\t// in\n    tag_134:\n        /* \"#utility.yul\":785:924   */\n      swap3\n      swap2\n      pop\n      pop\n      jump\t// out\n        /* \"#utility.yul\":930:1065   */\n    tag_136:\n        /* \"#utility.yul\":974:979   */\n      0x00\n        /* \"#utility.yul\":1012:1018   */\n      dup2\n        /* \"#utility.yul\":999:1019   */\n      calldataload\n        /* \"#utility.yul\":990:1019   */\n      swap1\n      pop\n        /* \"#utility.yul\":1028:1059   */\n      tag_138\n        /* \"#utility.yul\":1053:1058   */\n      dup2\n        /* \"#utility.yul\":1028:1059   */\n      tag_139\n      jump\t// in\n    tag_138:\n        /* \"#utility.yul\":930:1065   */\n      swap3\n      swap2\n      pop\n      pop\n      jump\t// out\n        /* \"#utility.yul\":1071:2046   */\n    tag_10:\n        /* \"#utility.yul\":1166:1172   */\n      0x00\n        /* \"#utility.yul\":1174:1180   */\n      dup1\n        /* \"#utility.yul\":1182:1188   */\n      0x00\n        /* \"#utility.yul\":1231:1233   */\n      0x60\n        /* \"#utility.yul\":1219:1228   */\n      dup5\n        /* \"#utility.yul\":1210:1217   */\n      dup7\n        /* \"#utility.yul\":1206:1229   */\n      sub\n        /* \"#utility.yul\":1202:1234   */\n      slt\n        /* \"#utility.yul\":1199:1318   */\n      iszero\n      tag_141\n      jumpi\n        /* \"#utility.yul\":1237:1316   */\n      tag_142\n      tag_143\n      jump\t// in\n    tag_142:\n        /* \"#utility.yul\":1199:1318   */\n    tag_141:\n        /* \"#utility.yul\":1385:1386   */\n      0x00\n        /* \"#utility.yul\":1374:1383   */\n      dup5\n        /* \"#utility.yul\":1370:1387   */\n      add\n        /* \"#utility.yul\":1357:1388   */\n      calldataload\n        /* \"#utility.yul\":1415:1433   */\n      0xffffffffffffffff\n        /* \"#utility.yul\":1407:1413   */\n      dup2\n        /* \"#utility.yul\":1404:1434   */\n      gt\n        /* \"#utility.yul\":1401:1518   */\n      iszero\n      tag_144\n      jumpi\n        /* \"#utility.yul\":1437:1516   */\n      tag_145\n      tag_146\n      jump\t// in\n    tag_145:\n        /* \"#utility.yul\":1401:1518   */\n    tag_144:\n        /* \"#utility.yul\":1542:1605   */\n      tag_147\n        /* \"#utility.yul\":1597:1604   */\n      dup7\n        /* \"#utility.yul\":1588:1594   */\n      dup3\n        /* \"#utility.yul\":1577:1586   */\n      dup8\n        /* \"#utility.yul\":1573:1595   */\n      add\n        /* \"#utility.yul\":1542:1605   */\n      tag_126\n      jump\t// in\n    tag_147:\n        /* \"#utility.yul\":1532:1605   */\n      swap4\n      pop\n        /* \"#utility.yul\":1328:1615   */\n      pop\n        /* \"#utility.yul\":1682:1684   */\n      0x20\n        /* \"#utility.yul\":1671:1680   */\n      dup5\n        /* \"#utility.yul\":1667:1685   */\n      add\n        /* \"#utility.yul\":1654:1686   */\n      calldataload\n        /* \"#utility.yul\":1713:1731   */\n      0xffffffffffffffff\n        /* \"#utility.yul\":1705:1711   */\n      dup2\n        /* \"#utility.yul\":1702:1732   */\n      gt\n        /* \"#utility.yul\":1699:1816   */\n      iszero\n      tag_148\n      jumpi\n        /* \"#utility.yul\":1735:1814   */\n      tag_149\n      tag_146\n      jump\t// in\n    tag_149:\n        /* \"#utility.yul\":1699:1816   */\n    tag_148:\n        /* \"#utility.yul\":1840:1903   */\n      tag_150\n        /* \"#utility.yul\":1895:1902   */\n      dup7\n        /* \"#utility.yul\":1886:1892   */\n      dup3\n        /* \"#utility.yul\":1875:1884   */\n      dup8\n        /* \"#utility.yul\":1871:1893   */\n      add\n        /* \"#utility.yul\":1840:1903   */\n      tag_126\n      jump\t// in\n    tag_150:\n        /* \"#utility.yul\":1830:1903   */\n      swap3\n      pop\n        /* \"#utility.yul\":1625:1913   */\n      pop\n        /* \"#utility.yul\":1952:1954   */\n      0x40\n        /* \"#utility.yul\":1978:2029   */\n      tag_151\n        /* \"#utility.yul\":2021:2028   */\n      dup7\n        /* \"#utility.yul\":2012:2018   */\n      dup3\n        /* \"#utility.yul\":2001:2010   */\n      dup8\n        /* \"#utility.yul\":1997:2019   */\n      add\n        /* \"#utility.yul\":1978:2029   */\n      tag_136\n      jump\t// in\n    tag_151:\n        /* \"#utility.yul\":1968:2029   */\n      swap2\n      pop\n        /* \"#utility.yul\":1923:2039   */\n      pop\n        /* \"#utility.yul\":1071:2046   */\n      swap3\n      pop\n      swap3\n      pop\n      swap3\n      jump\t// out\n        /* \"#utility.yul\":2052:2381   */\n    tag_20:\n        /* \"#utility.yul\":2111:2117   */\n      0x00\n        /* \"#utility.yul\":2160:2162   */\n      0x20\n        /* \"#utility.yul\":2148:2157   */\n      dup3\n        /* \"#utility.yul\":2139:2146   */\n      dup5\n        /* \"#utility.yul\":2135:2158   */\n      sub\n        /* \"#utility.yul\":2131:2163   */\n      slt\n        /* \"#utility.yul\":2128:2247   */\n      iszero\n      tag_153\n      jumpi\n        /* \"#utility.yul\":2166:2245   */\n      tag_154\n      tag_143\n      jump\t// in\n    tag_154:\n        /* \"#utility.yul\":2128:2247   */\n    tag_153:\n        /* \"#utility.yul\":2286:2287   */\n      0x00\n        /* \"#utility.yul\":2311:2364   */\n      tag_155\n        /* \"#utility.yul\":2356:2363   */\n      dup5\n        /* \"#utility.yul\":2347:2353   */\n      dup3\n        /* \"#utility.yul\":2336:2345   */\n      dup6\n        /* \"#utility.yul\":2332:2354   */\n      add\n        /* \"#utility.yul\":2311:2364   */\n      tag_132\n      jump\t// in\n    tag_155:\n        /* \"#utility.yul\":2301:2364   */\n      swap2\n      pop\n        /* \"#utility.yul\":2257:2374   */\n      pop\n        /* \"#utility.yul\":2052:2381   */\n      swap3\n      swap2\n      pop\n      pop\n      jump\t// out\n        /* \"#utility.yul\":2387:2712   */\n    tag_14:\n        /* \"#utility.yul\":2444:2450   */\n      0x00\n        /* \"#utility.yul\":2493:2495   */\n      0x20\n        /* \"#utility.yul\":2481:2490   */\n      dup3\n        /* \"#utility.yul\":2472:2479   */\n      dup5\n        /* \"#utility.yul\":2468:2491   */\n      sub\n        /* \"#utility.yul\":2464:2496   */\n      slt\n        /* \"#utility.yul\":2461:2580   */\n      iszero\n      tag_157\n      jumpi\n        /* \"#utility.yul\":2499:2578   */\n      tag_158\n      tag_143\n      jump\t// in\n    tag_158:\n        /* \"#utility.yul\":2461:2580   */\n    tag_157:\n        /* \"#utility.yul\":2619:2620   */\n      0x00\n        /* \"#utility.yul\":2644:2695   */\n      tag_159\n        /* \"#utility.yul\":2687:2694   */\n      dup5\n        /* \"#utility.yul\":2678:2684   */\n      dup3\n        /* \"#utility.yul\":2667:2676   */\n      dup6\n        /* \"#utility.yul\":2663:2685   */\n      add\n        /* \"#utility.yul\":2644:2695   */\n      tag_136\n      jump\t// in\n    tag_159:\n        /* \"#utility.yul\":2634:2695   */\n      swap2\n      pop\n        /* \"#utility.yul\":2590:2705   */\n      pop\n        /* \"#utility.yul\":2387:2712   */\n      swap3\n      swap2\n      pop\n      pop\n      jump\t// out\n        /* \"#utility.yul\":2718:2836   */\n    tag_160:\n        /* \"#utility.yul\":2805:2829   */\n      tag_162\n        /* \"#utility.yul\":2823:2828   */\n      dup2\n        /* \"#utility.yul\":2805:2829   */\n      tag_163\n      jump\t// in\n    tag_162:\n        /* \"#utility.yul\":2800:2803   */\n      dup3\n        /* \"#utility.yul\":2793:2830   */\n      mstore\n        /* \"#utility.yul\":2718:2836   */\n      pop\n      pop\n      jump\t// out\n        /* \"#utility.yul\":2842:3206   */\n    tag_164:\n        /* \"#utility.yul\":2930:2933   */\n      0x00\n        /* \"#utility.yul\":2958:2997   */\n      tag_166\n        /* \"#utility.yul\":2991:2996   */\n      dup3\n        /* \"#utility.yul\":2958:2997   */\n      tag_167\n      jump\t// in\n    tag_166:\n        /* \"#utility.yul\":3013:3084   */\n      tag_168\n        /* \"#utility.yul\":3077:3083   */\n      dup2\n        /* \"#utility.yul\":3072:3075   */\n      dup6\n        /* \"#utility.yul\":3013:3084   */\n      tag_169\n      jump\t// in\n    tag_168:\n        /* \"#utility.yul\":3006:3084   */\n      swap4\n      pop\n        /* \"#utility.yul\":3093:3145   */\n      tag_170\n        /* \"#utility.yul\":3138:3144   */\n      dup2\n        /* \"#utility.yul\":3133:3136   */\n      dup6\n        /* \"#utility.yul\":3126:3130   */\n      0x20\n        /* \"#utility.yul\":3119:3124   */\n      dup7\n        /* \"#utility.yul\":3115:3131   */\n      add\n        /* \"#utility.yul\":3093:3145   */\n      tag_171\n      jump\t// in\n    tag_170:\n        /* \"#utility.yul\":3170:3199   */\n      tag_172\n        /* \"#utility.yul\":3192:3198   */\n      dup2\n        /* \"#utility.yul\":3170:3199   */\n      tag_173\n      jump\t// in\n    tag_172:\n        /* \"#utility.yul\":3165:3168   */\n      dup5\n        /* \"#utility.yul\":3161:3200   */\n      add\n        /* \"#utility.yul\":3154:3200   */\n      swap2\n      pop\n        /* \"#utility.yul\":2934:3206   */\n      pop\n        /* \"#utility.yul\":2842:3206   */\n      swap3\n      swap2\n      pop\n      pop\n      jump\t// out\n        /* \"#utility.yul\":3212:3578   */\n    tag_174:\n        /* \"#utility.yul\":3354:3357   */\n      0x00\n        /* \"#utility.yul\":3375:3442   */\n      tag_176\n        /* \"#utility.yul\":3439:3441   */\n      0x2e\n        /* \"#utility.yul\":3434:3437   */\n      dup4\n        /* \"#utility.yul\":3375:3442   */\n      tag_169\n      jump\t// in\n    tag_176:\n        /* \"#utility.yul\":3368:3442   */\n      swap2\n      pop\n        /* \"#utility.yul\":3451:3544   */\n      tag_177\n        /* \"#utility.yul\":3540:3543   */\n      dup3\n        /* \"#utility.yul\":3451:3544   */\n      tag_178\n      jump\t// in\n    tag_177:\n        /* \"#utility.yul\":3569:3571   */\n      0x40\n        /* \"#utility.yul\":3564:3567   */\n      dup3\n        /* \"#utility.yul\":3560:3572   */\n      add\n        /* \"#utility.yul\":3553:3572   */\n      swap1\n      pop\n        /* \"#utility.yul\":3212:3578   */\n      swap2\n      swap1\n      pop\n      jump\t// out\n        /* \"#utility.yul\":3584:3696   */\n    tag_179:\n        /* \"#utility.yul\":3667:3689   */\n      tag_181\n        /* \"#utility.yul\":3683:3688   */\n      dup2\n        /* \"#utility.yul\":3667:3689   */\n      tag_182\n      jump\t// in\n    tag_181:\n        /* \"#utility.yul\":3662:3665   */\n      dup3\n        /* \"#utility.yul\":3655:3690   */\n      mstore\n        /* \"#utility.yul\":3584:3696   */\n      pop\n      pop\n      jump\t// out\n        /* \"#utility.yul\":3702:3924   */\n    tag_29:\n        /* \"#utility.yul\":3795:3799   */\n      0x00\n        /* \"#utility.yul\":3833:3835   */\n      0x20\n        /* \"#utility.yul\":3822:3831   */\n      dup3\n        /* \"#utility.yul\":3818:3836   */\n      add\n        /* \"#utility.yul\":3810:3836   */\n      swap1\n      pop\n        /* \"#utility.yul\":3846:3917   */\n      tag_184\n        /* \"#utility.yul\":3914:3915   */\n      0x00\n        /* \"#utility.yul\":3903:3912   */\n      dup4\n        /* \"#utility.yul\":3899:3916   */\n      add\n        /* \"#utility.yul\":3890:3896   */\n      dup5\n        /* \"#utility.yul\":3846:3917   */\n      tag_160\n      jump\t// in\n    tag_184:\n        /* \"#utility.yul\":3702:3924   */\n      swap3\n      swap2\n      pop\n      pop\n      jump\t// out\n        /* \"#utility.yul\":3930:4546   */\n    tag_17:\n        /* \"#utility.yul\":4115:4119   */\n      0x00\n        /* \"#utility.yul\":4153:4155   */\n      0x60\n        /* \"#utility.yul\":4142:4151   */\n      dup3\n        /* \"#utility.yul\":4138:4156   */\n      add\n        /* \"#utility.yul\":4130:4156   */\n      swap1\n      pop\n        /* \"#utility.yul\":4202:4211   */\n      dup2\n        /* \"#utility.yul\":4196:4200   */\n      dup2\n        /* \"#utility.yul\":4192:4212   */\n      sub\n        /* \"#utility.yul\":4188:4189   */\n      0x00\n        /* \"#utility.yul\":4177:4186   */\n      dup4\n        /* \"#utility.yul\":4173:4190   */\n      add\n        /* \"#utility.yul\":4166:4213   */\n      mstore\n        /* \"#utility.yul\":4230:4308   */\n      tag_186\n        /* \"#utility.yul\":4303:4307   */\n      dup2\n        /* \"#utility.yul\":4294:4300   */\n      dup7\n        /* \"#utility.yul\":4230:4308   */\n      tag_164\n      jump\t// in\n    tag_186:\n        /* \"#utility.yul\":4222:4308   */\n      swap1\n      pop\n        /* \"#utility.yul\":4355:4364   */\n      dup2\n        /* \"#utility.yul\":4349:4353   */\n      dup2\n        /* \"#utility.yul\":4345:4365   */\n      sub\n        /* \"#utility.yul\":4340:4342   */\n      0x20\n        /* \"#utility.yul\":4329:4338   */\n      dup4\n        /* \"#utility.yul\":4325:4343   */\n      add\n        /* \"#utility.yul\":4318:4366   */\n      mstore\n        /* \"#utility.yul\":4383:4461   */\n      tag_187\n        /* \"#utility.yul\":4456:4460   */\n      dup2\n        /* \"#utility.yul\":4447:4453   */\n      dup6\n        /* \"#utility.yul\":4383:4461   */\n      tag_164\n      jump\t// in\n    tag_187:\n        /* \"#utility.yul\":4375:4461   */\n      swap1\n      pop\n        /* \"#utility.yul\":4471:4539   */\n      tag_188\n        /* \"#utility.yul\":4535:4537   */\n      0x40\n        /* \"#utility.yul\":4524:4533   */\n      dup4\n        /* \"#utility.yul\":4520:4538   */\n      add\n        /* \"#utility.yul\":4511:4517   */\n      dup5\n        /* \"#utility.yul\":4471:4539   */\n      tag_179\n      jump\t// in\n    tag_188:\n        /* \"#utility.yul\":3930:4546   */\n      swap5\n      swap4\n      pop\n      pop\n      pop\n      pop\n      jump\t// out\n        /* \"#utility.yul\":4552:4971   */\n    tag_40:\n        /* \"#utility.yul\":4718:4722   */\n      0x00\n        /* \"#utility.yul\":4756:4758   */\n      0x20\n        /* \"#utility.yul\":4745:4754   */\n      dup3\n        /* \"#utility.yul\":4741:4759   */\n      add\n        /* \"#utility.yul\":4733:4759   */\n      swap1\n      pop\n        /* \"#utility.yul\":4805:4814   */\n      dup2\n        /* \"#utility.yul\":4799:4803   */\n      dup2\n        /* \"#utility.yul\":4795:4815   */\n      sub\n        /* \"#utility.yul\":4791:4792   */\n      0x00\n        /* \"#utility.yul\":4780:4789   */\n      dup4\n        /* \"#utility.yul\":4776:4793   */\n      add\n        /* \"#utility.yul\":4769:4816   */\n      mstore\n        /* \"#utility.yul\":4833:4964   */\n      tag_190\n        /* \"#utility.yul\":4959:4963   */\n      dup2\n        /* \"#utility.yul\":4833:4964   */\n      tag_174\n      jump\t// in\n    tag_190:\n        /* \"#utility.yul\":4825:4964   */\n      swap1\n      pop\n        /* \"#utility.yul\":4552:4971   */\n      swap2\n      swap1\n      pop\n      jump\t// out\n        /* \"#utility.yul\":4977:5106   */\n    tag_120:\n        /* \"#utility.yul\":5011:5017   */\n      0x00\n        /* \"#utility.yul\":5038:5058   */\n      tag_192\n      tag_193\n      jump\t// in\n    tag_192:\n        /* \"#utility.yul\":5028:5058   */\n      swap1\n      pop\n        /* \"#utility.yul\":5067:5100   */\n      tag_194\n        /* \"#utility.yul\":5095:5099   */\n      dup3\n        /* \"#utility.yul\":5087:5093   */\n      dup3\n        /* \"#utility.yul\":5067:5100   */\n      tag_195\n      jump\t// in\n    tag_194:\n        /* \"#utility.yul\":4977:5106   */\n      swap2\n      swap1\n      pop\n      jump\t// out\n        /* \"#utility.yul\":5112:5187   */\n    tag_193:\n        /* \"#utility.yul\":5145:5151   */\n      0x00\n        /* \"#utility.yul\":5178:5180   */\n      0x40\n        /* \"#utility.yul\":5172:5181   */\n      mload\n        /* \"#utility.yul\":5162:5181   */\n      swap1\n      pop\n        /* \"#utility.yul\":5112:5187   */\n      swap1\n      jump\t// out\n        /* \"#utility.yul\":5193:5501   */\n    tag_119:\n        /* \"#utility.yul\":5255:5259   */\n      0x00\n        /* \"#utility.yul\":5345:5363   */\n      0xffffffffffffffff\n        /* \"#utility.yul\":5337:5343   */\n      dup3\n        /* \"#utility.yul\":5334:5364   */\n      gt\n        /* \"#utility.yul\":5331:5387   */\n      iszero\n      tag_198\n      jumpi\n        /* \"#utility.yul\":5367:5385   */\n      tag_199\n      tag_200\n      jump\t// in\n    tag_199:\n        /* \"#utility.yul\":5331:5387   */\n    tag_198:\n        /* \"#utility.yul\":5405:5434   */\n      tag_201\n        /* \"#utility.yul\":5427:5433   */\n      dup3\n        /* \"#utility.yul\":5405:5434   */\n      tag_173\n      jump\t// in\n    tag_201:\n        /* \"#utility.yul\":5397:5434   */\n      swap1\n      pop\n        /* \"#utility.yul\":5489:5493   */\n      0x20\n        /* \"#utility.yul\":5483:5487   */\n      dup2\n        /* \"#utility.yul\":5479:5494   */\n      add\n        /* \"#utility.yul\":5471:5494   */\n      swap1\n      pop\n        /* \"#utility.yul\":5193:5501   */\n      swap2\n      swap1\n      pop\n      jump\t// out\n        /* \"#utility.yul\":5507:5606   */\n    tag_167:\n        /* \"#utility.yul\":5559:5565   */\n      0x00\n        /* \"#utility.yul\":5593:5598   */\n      dup2\n        /* \"#utility.yul\":5587:5599   */\n      mload\n        /* \"#utility.yul\":5577:5599   */\n      swap1\n      pop\n        /* \"#utility.yul\":5507:5606   */\n      swap2\n      swap1\n      pop\n      jump\t// out\n        /* \"#utility.yul\":5612:5781   */\n    tag_169:\n        /* \"#utility.yul\":5696:5707   */\n      0x00\n        /* \"#utility.yul\":5730:5736   */\n      dup3\n        /* \"#utility.yul\":5725:5728   */\n      dup3\n        /* \"#utility.yul\":5718:5737   */\n      mstore\n        /* \"#utility.yul\":5770:5774   */\n      0x20\n        /* \"#utility.yul\":5765:5768   */\n      dup3\n        /* \"#utility.yul\":5761:5775   */\n      add\n        /* \"#utility.yul\":5746:5775   */\n      swap1\n      pop\n        /* \"#utility.yul\":5612:5781   */\n      swap3\n      swap2\n      pop\n      pop\n      jump\t// out\n        /* \"#utility.yul\":5787:5978   */\n    tag_37:\n        /* \"#utility.yul\":5827:5831   */\n      0x00\n        /* \"#utility.yul\":5847:5867   */\n      tag_205\n        /* \"#utility.yul\":5865:5866   */\n      dup3\n        /* \"#utility.yul\":5847:5867   */\n      tag_206\n      jump\t// in\n    tag_205:\n        /* \"#utility.yul\":5842:5867   */\n      swap2\n      pop\n        /* \"#utility.yul\":5881:5901   */\n      tag_207\n        /* \"#utility.yul\":5899:5900   */\n      dup4\n        /* \"#utility.yul\":5881:5901   */\n      tag_206\n      jump\t// in\n    tag_207:\n        /* \"#utility.yul\":5876:5901   */\n      swap3\n      pop\n        /* \"#utility.yul\":5920:5921   */\n      dup3\n        /* \"#utility.yul\":5917:5918   */\n      dup3\n        /* \"#utility.yul\":5914:5922   */\n      lt\n        /* \"#utility.yul\":5911:5945   */\n      iszero\n      tag_208\n      jumpi\n        /* \"#utility.yul\":5925:5943   */\n      tag_209\n      tag_210\n      jump\t// in\n    tag_209:\n        /* \"#utility.yul\":5911:5945   */\n    tag_208:\n        /* \"#utility.yul\":5970:5971   */\n      dup3\n        /* \"#utility.yul\":5967:5968   */\n      dup3\n        /* \"#utility.yul\":5963:5972   */\n      sub\n        /* \"#utility.yul\":5955:5972   */\n      swap1\n      pop\n        /* \"#utility.yul\":5787:5978   */\n      swap3\n      swap2\n      pop\n      pop\n      jump\t// out\n        /* \"#utility.yul\":5984:6080   */\n    tag_163:\n        /* \"#utility.yul\":6021:6028   */\n      0x00\n        /* \"#utility.yul\":6050:6074   */\n      tag_212\n        /* \"#utility.yul\":6068:6073   */\n      dup3\n        /* \"#utility.yul\":6050:6074   */\n      tag_213\n      jump\t// in\n    tag_212:\n        /* \"#utility.yul\":6039:6074   */\n      swap1\n      pop\n        /* \"#utility.yul\":5984:6080   */\n      swap2\n      swap1\n      pop\n      jump\t// out\n        /* \"#utility.yul\":6086:6212   */\n    tag_213:\n        /* \"#utility.yul\":6123:6130   */\n      0x00\n        /* \"#utility.yul\":6163:6205   */\n      0xffffffffffffffffffffffffffffffffffffffff\n        /* \"#utility.yul\":6156:6161   */\n      dup3\n        /* \"#utility.yul\":6152:6206   */\n      and\n        /* \"#utility.yul\":6141:6206   */\n      swap1\n      pop\n        /* \"#utility.yul\":6086:6212   */\n      swap2\n      swap1\n      pop\n      jump\t// out\n        /* \"#utility.yul\":6218:6295   */\n    tag_206:\n        /* \"#utility.yul\":6255:6262   */\n      0x00\n        /* \"#utility.yul\":6284:6289   */\n      dup2\n        /* \"#utility.yul\":6273:6289   */\n      swap1\n      pop\n        /* \"#utility.yul\":6218:6295   */\n      swap2\n      swap1\n      pop\n      jump\t// out\n        /* \"#utility.yul\":6301:6387   */\n    tag_182:\n        /* \"#utility.yul\":6336:6343   */\n      0x00\n        /* \"#utility.yul\":6376:6380   */\n      0xff\n        /* \"#utility.yul\":6369:6374   */\n      dup3\n        /* \"#utility.yul\":6365:6381   */\n      and\n        /* \"#utility.yul\":6354:6381   */\n      swap1\n      pop\n        /* \"#utility.yul\":6301:6387   */\n      swap2\n      swap1\n      pop\n      jump\t// out\n        /* \"#utility.yul\":6393:6547   */\n    tag_125:\n        /* \"#utility.yul\":6477:6483   */\n      dup3\n        /* \"#utility.yul\":6472:6475   */\n      dup2\n        /* \"#utility.yul\":6467:6470   */\n      dup4\n        /* \"#utility.yul\":6454:6484   */\n      calldatacopy\n        /* \"#utility.yul\":6539:6540   */\n      0x00\n        /* \"#utility.yul\":6530:6536   */\n      dup4\n        /* \"#utility.yul\":6525:6528   */\n      dup4\n        /* \"#utility.yul\":6521:6537   */\n      add\n        /* \"#utility.yul\":6514:6541   */\n      mstore\n        /* \"#utility.yul\":6393:6547   */\n      pop\n      pop\n      pop\n      jump\t// out\n        /* \"#utility.yul\":6553:6860   */\n    tag_171:\n        /* \"#utility.yul\":6621:6622   */\n      0x00\n        /* \"#utility.yul\":6631:6744   */\n    tag_219:\n        /* \"#utility.yul\":6645:6651   */\n      dup4\n        /* \"#utility.yul\":6642:6643   */\n      dup2\n        /* \"#utility.yul\":6639:6652   */\n      lt\n        /* \"#utility.yul\":6631:6744   */\n      iszero\n      tag_221\n      jumpi\n        /* \"#utility.yul\":6730:6731   */\n      dup1\n        /* \"#utility.yul\":6725:6728   */\n      dup3\n        /* \"#utility.yul\":6721:6732   */\n      add\n        /* \"#utility.yul\":6715:6733   */\n      mload\n        /* \"#utility.yul\":6711:6712   */\n      dup2\n        /* \"#utility.yul\":6706:6709   */\n      dup5\n        /* \"#utility.yul\":6702:6713   */\n      add\n        /* \"#utility.yul\":6695:6734   */\n      mstore\n        /* \"#utility.yul\":6667:6669   */\n      0x20\n        /* \"#utility.yul\":6664:6665   */\n      dup2\n        /* \"#utility.yul\":6660:6670   */\n      add\n        /* \"#utility.yul\":6655:6670   */\n      swap1\n      pop\n        /* \"#utility.yul\":6631:6744   */\n      jump(tag_219)\n    tag_221:\n        /* \"#utility.yul\":6762:6768   */\n      dup4\n        /* \"#utility.yul\":6759:6760   */\n      dup2\n        /* \"#utility.yul\":6756:6769   */\n      gt\n        /* \"#utility.yul\":6753:6854   */\n      iszero\n      tag_222\n      jumpi\n        /* \"#utility.yul\":6842:6843   */\n      0x00\n        /* \"#utility.yul\":6833:6839   */\n      dup5\n        /* \"#utility.yul\":6828:6831   */\n      dup5\n        /* \"#utility.yul\":6824:6840   */\n      add\n        /* \"#utility.yul\":6817:6844   */\n      mstore\n        /* \"#utility.yul\":6753:6854   */\n    tag_222:\n        /* \"#utility.yul\":6602:6860   */\n      pop\n        /* \"#utility.yul\":6553:6860   */\n      pop\n      pop\n      pop\n      jump\t// out\n        /* \"#utility.yul\":6866:7186   */\n    tag_47:\n        /* \"#utility.yul\":6910:6916   */\n      0x00\n        /* \"#utility.yul\":6947:6948   */\n      0x02\n        /* \"#utility.yul\":6941:6945   */\n      dup3\n        /* \"#utility.yul\":6937:6949   */\n      div\n        /* \"#utility.yul\":6927:6949   */\n      swap1\n      pop\n        /* \"#utility.yul\":6994:6995   */\n      0x01\n        /* \"#utility.yul\":6988:6992   */\n      dup3\n        /* \"#utility.yul\":6984:6996   */\n      and\n        /* \"#utility.yul\":7015:7033   */\n      dup1\n        /* \"#utility.yul\":7005:7086   */\n      tag_224\n      jumpi\n        /* \"#utility.yul\":7071:7075   */\n      0x7f\n        /* \"#utility.yul\":7063:7069   */\n      dup3\n        /* \"#utility.yul\":7059:7076   */\n      and\n        /* \"#utility.yul\":7049:7076   */\n      swap2\n      pop\n        /* \"#utility.yul\":7005:7086   */\n    tag_224:\n        /* \"#utility.yul\":7133:7135   */\n      0x20\n        /* \"#utility.yul\":7125:7131   */\n      dup3\n        /* \"#utility.yul\":7122:7136   */\n      lt\n        /* \"#utility.yul\":7102:7120   */\n      dup2\n        /* \"#utility.yul\":7099:7137   */\n      eq\n        /* \"#utility.yul\":7096:7180   */\n      iszero\n      tag_225\n      jumpi\n        /* \"#utility.yul\":7152:7170   */\n      tag_226\n      tag_227\n      jump\t// in\n    tag_226:\n        /* \"#utility.yul\":7096:7180   */\n    tag_225:\n        /* \"#utility.yul\":6917:7186   */\n      pop\n        /* \"#utility.yul\":6866:7186   */\n      swap2\n      swap1\n      pop\n      jump\t// out\n        /* \"#utility.yul\":7192:7473   */\n    tag_195:\n        /* \"#utility.yul\":7275:7302   */\n      tag_229\n        /* \"#utility.yul\":7297:7301   */\n      dup3\n        /* \"#utility.yul\":7275:7302   */\n      tag_173\n      jump\t// in\n    tag_229:\n        /* \"#utility.yul\":7267:7273   */\n      dup2\n        /* \"#utility.yul\":7263:7303   */\n      add\n        /* \"#utility.yul\":7405:7411   */\n      dup2\n        /* \"#utility.yul\":7393:7403   */\n      dup2\n        /* \"#utility.yul\":7390:7412   */\n      lt\n        /* \"#utility.yul\":7369:7387   */\n      0xffffffffffffffff\n        /* \"#utility.yul\":7357:7367   */\n      dup3\n        /* \"#utility.yul\":7354:7388   */\n      gt\n        /* \"#utility.yul\":7351:7413   */\n      or\n        /* \"#utility.yul\":7348:7436   */\n      iszero\n      tag_230\n      jumpi\n        /* \"#utility.yul\":7416:7434   */\n      tag_231\n      tag_200\n      jump\t// in\n    tag_231:\n        /* \"#utility.yul\":7348:7436   */\n    tag_230:\n        /* \"#utility.yul\":7456:7466   */\n      dup1\n        /* \"#utility.yul\":7452:7454   */\n      0x40\n        /* \"#utility.yul\":7445:7467   */\n      mstore\n        /* \"#utility.yul\":7235:7473   */\n      pop\n        /* \"#utility.yul\":7192:7473   */\n      pop\n      pop\n      jump\t// out\n        /* \"#utility.yul\":7479:7659   */\n    tag_210:\n        /* \"#utility.yul\":7527:7604   */\n      0x4e487b7100000000000000000000000000000000000000000000000000000000\n        /* \"#utility.yul\":7524:7525   */\n      0x00\n        /* \"#utility.yul\":7517:7605   */\n      mstore\n        /* \"#utility.yul\":7624:7628   */\n      0x11\n        /* \"#utility.yul\":7621:7622   */\n      0x04\n        /* \"#utility.yul\":7614:7629   */\n      mstore\n        /* \"#utility.yul\":7648:7652   */\n      0x24\n        /* \"#utility.yul\":7645:7646   */\n      0x00\n        /* \"#utility.yul\":7638:7653   */\n      revert\n        /* \"#utility.yul\":7665:7845   */\n    tag_227:\n        /* \"#utility.yul\":7713:7790   */\n      0x4e487b7100000000000000000000000000000000000000000000000000000000\n        /* \"#utility.yul\":7710:7711   */\n      0x00\n        /* \"#utility.yul\":7703:7791   */\n      mstore\n        /* \"#utility.yul\":7810:7814   */\n      0x22\n        /* \"#utility.yul\":7807:7808   */\n      0x04\n        /* \"#utility.yul\":7800:7815   */\n      mstore\n        /* \"#utility.yul\":7834:7838   */\n      0x24\n        /* \"#utility.yul\":7831:7832   */\n      0x00\n        /* \"#utility.yul\":7824:7839   */\n      revert\n        /* \"#utility.yul\":7851:8031   */\n    tag_76:\n        /* \"#utility.yul\":7899:7976   */\n      0x4e487b7100000000000000000000000000000000000000000000000000000000\n        /* \"#utility.yul\":7896:7897   */\n      0x00\n        /* \"#utility.yul\":7889:7977   */\n      mstore\n        /* \"#utility.yul\":7996:8000   */\n      0x31\n        /* \"#utility.yul\":7993:7994   */\n      0x04\n        /* \"#utility.yul\":7986:8001   */\n      mstore\n        /* \"#utility.yul\":8020:8024   */\n      0x24\n        /* \"#utility.yul\":8017:8018   */\n      0x00\n        /* \"#utility.yul\":8010:8025   */\n      revert\n        /* \"#utility.yul\":8037:8217   */\n    tag_44:\n        /* \"#utility.yul\":8085:8162   */\n      0x4e487b7100000000000000000000000000000000000000000000000000000000\n        /* \"#utility.yul\":8082:8083   */\n      0x00\n        /* \"#utility.yul\":8075:8163   */\n      mstore\n        /* \"#utility.yul\":8182:8186   */\n      0x32\n        /* \"#utility.yul\":8179:8180   */\n      0x04\n        /* \"#utility.yul\":8172:8187   */\n      mstore\n        /* \"#utility.yul\":8206:8210   */\n      0x24\n        /* \"#utility.yul\":8203:8204   */\n      0x00\n        /* \"#utility.yul\":8196:8211   */\n      revert\n        /* \"#utility.yul\":8223:8403   */\n    tag_200:\n        /* \"#utility.yul\":8271:8348   */\n      0x4e487b7100000000000000000000000000000000000000000000000000000000\n        /* \"#utility.yul\":8268:8269   */\n      0x00\n        /* \"#utility.yul\":8261:8349   */\n      mstore\n        /* \"#utility.yul\":8368:8372   */\n      0x41\n        /* \"#utility.yul\":8365:8366   */\n      0x04\n        /* \"#utility.yul\":8358:8373   */\n      mstore\n        /* \"#utility.yul\":8392:8396   */\n      0x24\n        /* \"#utility.yul\":8389:8390   */\n      0x00\n        /* \"#utility.yul\":8382:8397   */\n      revert\n        /* \"#utility.yul\":8409:8526   */\n    tag_130:\n        /* \"#utility.yul\":8518:8519   */\n      0x00\n        /* \"#utility.yul\":8515:8516   */\n      dup1\n        /* \"#utility.yul\":8508:8520   */\n      revert\n        /* \"#utility.yul\":8532:8649   */\n    tag_123:\n        /* \"#utility.yul\":8641:8642   */\n      0x00\n        /* \"#utility.yul\":8638:8639   */\n      dup1\n        /* \"#utility.yul\":8631:8643   */\n      revert\n        /* \"#utility.yul\":8655:8772   */\n    tag_146:\n        /* \"#utility.yul\":8764:8765   */\n      0x00\n        /* \"#utility.yul\":8761:8762   */\n      dup1\n        /* \"#utility.yul\":8754:8766   */\n      revert\n        /* \"#utility.yul\":8778:8895   */\n    tag_143:\n        /* \"#utility.yul\":8887:8888   */\n      0x00\n        /* \"#utility.yul\":8884:8885   */\n      dup1\n        /* \"#utility.yul\":8877:8889   */\n      revert\n        /* \"#utility.yul\":8901:9003   */\n    tag_173:\n        /* \"#utility.yul\":8942:8948   */\n      0x00\n        /* \"#utility.yul\":8993:8995   */\n      0x1f\n        /* \"#utility.yul\":8989:8996   */\n      not\n        /* \"#utility.yul\":8984:8986   */\n      0x1f\n        /* \"#utility.yul\":8977:8982   */\n      dup4\n        /* \"#utility.yul\":8973:8987   */\n      add\n        /* \"#utility.yul\":8969:8997   */\n      and\n        /* \"#utility.yul\":8959:8997   */\n      swap1\n      pop\n        /* \"#utility.yul\":8901:9003   */\n      swap2\n      swap1\n      pop\n      jump\t// out\n        /* \"#utility.yul\":9009:9242   */\n    tag_178:\n        /* \"#utility.yul\":9149:9183   */\n      0x4e4f2053545544454e54204154205448495320494e4445582120454e54455220\n        /* \"#utility.yul\":9145:9146   */\n      0x00\n        /* \"#utility.yul\":9137:9143   */\n      dup3\n        /* \"#utility.yul\":9133:9147   */\n      add\n        /* \"#utility.yul\":9126:9184   */\n      mstore\n        /* \"#utility.yul\":9218:9234   */\n      0x41204c4f574552204e554d424552000000000000000000000000000000000000\n        /* \"#utility.yul\":9213:9215   */\n      0x20\n        /* \"#utility.yul\":9205:9211   */\n      dup3\n        /* \"#utility.yul\":9201:9216   */\n      add\n        /* \"#utility.yul\":9194:9235   */\n      mstore\n        /* \"#utility.yul\":9009:9242   */\n      pop\n      jump\t// out\n        /* \"#utility.yul\":9248:9370   */\n    tag_135:\n        /* \"#utility.yul\":9321:9345   */\n      tag_244\n        /* \"#utility.yul\":9339:9344   */\n      dup2\n        /* \"#utility.yul\":9321:9345   */\n      tag_206\n      jump\t// in\n    tag_244:\n        /* \"#utility.yul\":9314:9319   */\n      dup2\n        /* \"#utility.yul\":9311:9346   */\n      eq\n        /* \"#utility.yul\":9301:9364   */\n      tag_245\n      jumpi\n        /* \"#utility.yul\":9360:9361   */\n      0x00\n        /* \"#utility.yul\":9357:9358   */\n      dup1\n        /* \"#utility.yul\":9350:9362   */\n      revert\n        /* \"#utility.yul\":9301:9364   */\n    tag_245:\n        /* \"#utility.yul\":9248:9370   */\n      pop\n      jump\t// out\n        /* \"#utility.yul\":9376:9494   */\n    tag_139:\n        /* \"#utility.yul\":9447:9469   */\n      tag_247\n        /* \"#utility.yul\":9463:9468   */\n      dup2\n        /* \"#utility.yul\":9447:9469   */\n      tag_182\n      jump\t// in\n    tag_247:\n        /* \"#utility.yul\":9440:9445   */\n      dup2\n        /* \"#utility.yul\":9437:9470   */\n      eq\n        /* \"#utility.yul\":9427:9488   */\n      tag_248\n      jumpi\n        /* \"#utility.yul\":9484:9485   */\n      0x00\n        /* \"#utility.yul\":9481:9482   */\n      dup1\n        /* \"#utility.yul\":9474:9486   */\n      revert\n        /* \"#utility.yul\":9427:9488   */\n    tag_248:\n        /* \"#utility.yul\":9376:9494   */\n      pop\n      jump\t// out\n\n    auxdata: 0xa26469706673582212206cdc2f827327d5be9579c75d065d121398230044019ba57b994707a5694a41a864736f6c63430008070033\n}\n",
				"bytecode": {
					"linkReferences": {},
					"object": "608060405234801561001057600080fd5b50336000806101000a81548173ffffffffffffffffffffffffffffffffffffffff021916908373ffffffffffffffffffffffffffffffffffffffff160217905550610dc3806100606000396000f3fe608060405234801561001057600080fd5b50600436106100575760003560e01c806326142d2b1461005c578063781caf1d14610078578063b645307d146100aa578063d5fb052f146100c6578063f2e62772146100f8575b600080fd5b6100766004803603810190610071919061088d565b610116565b005b610092600480360381019061008d9190610945565b6101c7565b6040516100a193929190610a07565b60405180910390f35b6100c460048036038101906100bf9190610918565b61038d565b005b6100e060048036038101906100db9190610918565b610508565b6040516100ef93929190610a07565b60405180910390f35b61010061065f565b60405161010d91906109ec565b60405180910390f35b600060405180606001604052808581526020018481526020018360ff16815250905060018190806001815401808255809150506001900390600052602060002090600302016000909190919091506000820151816000019080519060200190610180929190610683565b50602082015181600101908051906020019061019d929190610683565b5060408201518160020160006101000a81548160ff021916908360ff160217905550505050505050565b60608060008360ff16600180805490506101e19190610ade565b811115610223576040517f08c379a000000000000000000000000000000000000000000000000000000000815260040161021a90610a4c565b60405180910390fd5b600060018660ff168154811061023c5761023b610c8d565b5b9060005260206000209060030201905080600001816001018260020160009054906101000a900460ff1682805461027290610b9d565b80601f016020809104026020016040519081016040528092919081815260200182805461029e90610b9d565b80156102eb5780601f106102c0576101008083540402835291602001916102eb565b820191906000526020600020905b8154815290600101906020018083116102ce57829003601f168201915b505050505092508180546102fe90610b9d565b80601f016020809104026020016040519081016040528092919081815260200182805461032a90610b9d565b80156103775780601f1061034c57610100808354040283529160200191610377565b820191906000526020600020905b81548152906001019060200180831161035a57829003601f168201915b5050505050915094509450945050509193909250565b806001808054905061039f9190610ade565b8111156103e1576040517f08c379a00000000000000000000000000000000000000000000000000000000081526004016103d890610a4c565b60405180910390fd5b60018080805490506103f39190610ade565b8154811061040457610403610c8d565b5b90600052602060002090600302016001838154811061042657610425610c8d565b5b9060005260206000209060030201600082018160000190805461044890610b9d565b610453929190610709565b50600182018160010190805461046890610b9d565b610473929190610709565b506002820160009054906101000a900460ff168160020160006101000a81548160ff021916908360ff16021790555090505060018054806104b7576104b6610c5e565b5b6001900381819060005260206000209060030201600080820160006104dc9190610796565b6001820160006104ec9190610796565b6002820160006101000a81549060ff0219169055505090555050565b6001818154811061051857600080fd5b906000526020600020906003020160009150905080600001805461053b90610b9d565b80601f016020809104026020016040519081016040528092919081815260200182805461056790610b9d565b80156105b45780601f10610589576101008083540402835291602001916105b4565b820191906000526020600020905b81548152906001019060200180831161059757829003601f168201915b5050505050908060010180546105c990610b9d565b80601f01602080910402602001604051908101604052809291908181526020018280546105f590610b9d565b80156106425780601f1061061757610100808354040283529160200191610642565b820191906000526020600020905b81548152906001019060200180831161062557829003601f168201915b5050505050908060020160009054906101000a900460ff16905083565b60008054906101000a900473ffffffffffffffffffffffffffffffffffffffff1681565b82805461068f90610b9d565b90600052602060002090601f0160209004810192826106b157600085556106f8565b82601f106106ca57805160ff19168380011785556106f8565b828001600101855582156106f8579182015b828111156106f75782518255916020019190600101906106dc565b5b50905061070591906107d6565b5090565b82805461071590610b9d565b90600052602060002090601f0160209004810192826107375760008555610785565b82601f106107485780548555610785565b8280016001018555821561078557600052602060002091601f016020900482015b82811115610784578254825591600101919060010190610769565b5b50905061079291906107d6565b5090565b5080546107a290610b9d565b6000825580601f106107b457506107d3565b601f0160209004906000526020600020908101906107d291906107d6565b5b50565b5b808211156107ef5760008160009055506001016107d7565b5090565b600061080661080184610a91565b610a6c565b90508281526020810184848401111561082257610821610cf0565b5b61082d848285610b5b565b509392505050565b600082601f83011261084a57610849610ceb565b5b813561085a8482602086016107f3565b91505092915050565b60008135905061087281610d5f565b92915050565b60008135905061088781610d76565b92915050565b6000806000606084860312156108a6576108a5610cfa565b5b600084013567ffffffffffffffff8111156108c4576108c3610cf5565b5b6108d086828701610835565b935050602084013567ffffffffffffffff8111156108f1576108f0610cf5565b5b6108fd86828701610835565b925050604061090e86828701610878565b9150509250925092565b60006020828403121561092e5761092d610cfa565b5b600061093c84828501610863565b91505092915050565b60006020828403121561095b5761095a610cfa565b5b600061096984828501610878565b91505092915050565b61097b81610b12565b82525050565b600061098c82610ac2565b6109968185610acd565b93506109a6818560208601610b6a565b6109af81610cff565b840191505092915050565b60006109c7602e83610acd565b91506109d282610d10565b604082019050919050565b6109e681610b4e565b82525050565b6000602082019050610a016000830184610972565b92915050565b60006060820190508181036000830152610a218186610981565b90508181036020830152610a358185610981565b9050610a4460408301846109dd565b949350505050565b60006020820190508181036000830152610a65816109ba565b9050919050565b6000610a76610a87565b9050610a828282610bcf565b919050565b6000604051905090565b600067ffffffffffffffff821115610aac57610aab610cbc565b5b610ab582610cff565b9050602081019050919050565b600081519050919050565b600082825260208201905092915050565b6000610ae982610b44565b9150610af483610b44565b925082821015610b0757610b06610c00565b5b828203905092915050565b6000610b1d82610b24565b9050919050565b600073ffffffffffffffffffffffffffffffffffffffff82169050919050565b6000819050919050565b600060ff82169050919050565b82818337600083830152505050565b60005b83811015610b88578082015181840152602081019050610b6d565b83811115610b97576000848401525b50505050565b60006002820490506001821680610bb557607f821691505b60208210811415610bc957610bc8610c2f565b5b50919050565b610bd882610cff565b810181811067ffffffffffffffff82111715610bf757610bf6610cbc565b5b80604052505050565b7f4e487b7100000000000000000000000000000000000000000000000000000000600052601160045260246000fd5b7f4e487b7100000000000000000000000000000000000000000000000000000000600052602260045260246000fd5b7f4e487b7100000000000000000000000000000000000000000000000000000000600052603160045260246000fd5b7f4e487b7100000000000000000000000000000000000000000000000000000000600052603260045260246000fd5b7f4e487b7100000000000000000000000000000000000000000000000000000000600052604160045260246000fd5b600080fd5b600080fd5b600080fd5b600080fd5b6000601f19601f8301169050919050565b7f4e4f2053545544454e54204154205448495320494e4445582120454e5445522060008201527f41204c4f574552204e554d424552000000000000000000000000000000000000602082015250565b610d6881610b44565b8114610d7357600080fd5b50565b610d7f81610b4e565b8114610d8a57600080fd5b5056fea26469706673582212206cdc2f827327d5be9579c75d065d121398230044019ba57b994707a5694a41a864736f6c63430008070033",
					"opcodes": "PUSH1 0x80 PUSH1 0x40 MSTORE CALLVALUE DUP1 ISZERO PUSH2 0x10 JUMPI PUSH1 0x0 DUP1 REVERT JUMPDEST POP CALLER PUSH1 0x0 DUP1 PUSH2 0x100 EXP DUP2 SLOAD DUP2 PUSH20 0xFFFFFFFFFFFFFFFFFFFFFFFFFFFFFFFFFFFFFFFF MUL NOT AND SWAP1 DUP4 PUSH20 0xFFFFFFFFFFFFFFFFFFFFFFFFFFFFFFFFFFFFFFFF AND MUL OR SWAP1 SSTORE POP PUSH2 0xDC3 DUP1 PUSH2 0x60 PUSH1 0x0 CODECOPY PUSH1 0x0 RETURN INVALID PUSH1 0x80 PUSH1 0x40 MSTORE CALLVALUE DUP1 ISZERO PUSH2 0x10 JUMPI PUSH1 0x0 DUP1 REVERT JUMPDEST POP PUSH1 0x4 CALLDATASIZE LT PUSH2 0x57 JUMPI PUSH1 0x0 CALLDATALOAD PUSH1 0xE0 SHR DUP1 PUSH4 0x26142D2B EQ PUSH2 0x5C JUMPI DUP1 PUSH4 0x781CAF1D EQ PUSH2 0x78 JUMPI DUP1 PUSH4 0xB645307D EQ PUSH2 0xAA JUMPI DUP1 PUSH4 0xD5FB052F EQ PUSH2 0xC6 JUMPI DUP1 PUSH4 0xF2E62772 EQ PUSH2 0xF8 JUMPI JUMPDEST PUSH1 0x0 DUP1 REVERT JUMPDEST PUSH2 0x76 PUSH1 0x4 DUP1 CALLDATASIZE SUB DUP2 ADD SWAP1 PUSH2 0x71 SWAP2 SWAP1 PUSH2 0x88D JUMP JUMPDEST PUSH2 0x116 JUMP JUMPDEST STOP JUMPDEST PUSH2 0x92 PUSH1 0x4 DUP1 CALLDATASIZE SUB DUP2 ADD SWAP1 PUSH2 0x8D SWAP2 SWAP1 PUSH2 0x945 JUMP JUMPDEST PUSH2 0x1C7 JUMP JUMPDEST PUSH1 0x40 MLOAD PUSH2 0xA1 SWAP4 SWAP3 SWAP2 SWAP1 PUSH2 0xA07 JUMP JUMPDEST PUSH1 0x40 MLOAD DUP1 SWAP2 SUB SWAP1 RETURN JUMPDEST PUSH2 0xC4 PUSH1 0x4 DUP1 CALLDATASIZE SUB DUP2 ADD SWAP1 PUSH2 0xBF SWAP2 SWAP1 PUSH2 0x918 JUMP JUMPDEST PUSH2 0x38D JUMP JUMPDEST STOP JUMPDEST PUSH2 0xE0 PUSH1 0x4 DUP1 CALLDATASIZE SUB DUP2 ADD SWAP1 PUSH2 0xDB SWAP2 SWAP1 PUSH2 0x918 JUMP JUMPDEST PUSH2 0x508 JUMP JUMPDEST PUSH1 0x40 MLOAD PUSH2 0xEF SWAP4 SWAP3 SWAP2 SWAP1 PUSH2 0xA07 JUMP JUMPDEST PUSH1 0x40 MLOAD DUP1 SWAP2 SUB SWAP1 RETURN JUMPDEST PUSH2 0x100 PUSH2 0x65F JUMP JUMPDEST PUSH1 0x40 MLOAD PUSH2 0x10D SWAP2 SWAP1 PUSH2 0x9EC JUMP JUMPDEST PUSH1 0x40 MLOAD DUP1 SWAP2 SUB SWAP1 RETURN JUMPDEST PUSH1 0x0 PUSH1 0x40 MLOAD DUP1 PUSH1 0x60 ADD PUSH1 0x40 MSTORE DUP1 DUP6 DUP2 MSTORE PUSH1 0x20 ADD DUP5 DUP2 MSTORE PUSH1 0x20 ADD DUP4 PUSH1 0xFF AND DUP2 MSTORE POP SWAP1 POP PUSH1 0x1 DUP2 SWAP1 DUP1 PUSH1 0x1 DUP2 SLOAD ADD DUP1 DUP3 SSTORE DUP1 SWAP2 POP POP PUSH1 0x1 SWAP1 SUB SWAP1 PUSH1 0x0 MSTORE PUSH1 0x20 PUSH1 0x0 KECCAK256 SWAP1 PUSH1 0x3 MUL ADD PUSH1 0x0 SWAP1 SWAP2 SWAP1 SWAP2 SWAP1 SWAP2 POP PUSH1 0x0 DUP3 ADD MLOAD DUP2 PUSH1 0x0 ADD SWAP1 DUP1 MLOAD SWAP1 PUSH1 0x20 ADD SWAP1 PUSH2 0x180 SWAP3 SWAP2 SWAP1 PUSH2 0x683 JUMP JUMPDEST POP PUSH1 0x20 DUP3 ADD MLOAD DUP2 PUSH1 0x1 ADD SWAP1 DUP1 MLOAD SWAP1 PUSH1 0x20 ADD SWAP1 PUSH2 0x19D SWAP3 SWAP2 SWAP1 PUSH2 0x683 JUMP JUMPDEST POP PUSH1 0x40 DUP3 ADD MLOAD DUP2 PUSH1 0x2 ADD PUSH1 0x0 PUSH2 0x100 EXP DUP2 SLOAD DUP2 PUSH1 0xFF MUL NOT AND SWAP1 DUP4 PUSH1 0xFF AND MUL OR SWAP1 SSTORE POP POP POP POP POP POP POP JUMP JUMPDEST PUSH1 0x60 DUP1 PUSH1 0x0 DUP4 PUSH1 0xFF AND PUSH1 0x1 DUP1 DUP1 SLOAD SWAP1 POP PUSH2 0x1E1 SWAP2 SWAP1 PUSH2 0xADE JUMP JUMPDEST DUP2 GT ISZERO PUSH2 0x223 JUMPI PUSH1 0x40 MLOAD PUSH32 0x8C379A000000000000000000000000000000000000000000000000000000000 DUP2 MSTORE PUSH1 0x4 ADD PUSH2 0x21A SWAP1 PUSH2 0xA4C JUMP JUMPDEST PUSH1 0x40 MLOAD DUP1 SWAP2 SUB SWAP1 REVERT JUMPDEST PUSH1 0x0 PUSH1 0x1 DUP7 PUSH1 0xFF AND DUP2 SLOAD DUP2 LT PUSH2 0x23C JUMPI PUSH2 0x23B PUSH2 0xC8D JUMP JUMPDEST JUMPDEST SWAP1 PUSH1 0x0 MSTORE PUSH1 0x20 PUSH1 0x0 KECCAK256 SWAP1 PUSH1 0x3 MUL ADD SWAP1 POP DUP1 PUSH1 0x0 ADD DUP2 PUSH1 0x1 ADD DUP3 PUSH1 0x2 ADD PUSH1 0x0 SWAP1 SLOAD SWAP1 PUSH2 0x100 EXP SWAP1 DIV PUSH1 0xFF AND DUP3 DUP1 SLOAD PUSH2 0x272 SWAP1 PUSH2 0xB9D JUMP JUMPDEST DUP1 PUSH1 0x1F ADD PUSH1 0x20 DUP1 SWAP2 DIV MUL PUSH1 0x20 ADD PUSH1 0x40 MLOAD SWAP1 DUP2 ADD PUSH1 0x40 MSTORE DUP1 SWAP3 SWAP2 SWAP1 DUP2 DUP2 MSTORE PUSH1 0x20 ADD DUP3 DUP1 SLOAD PUSH2 0x29E SWAP1 PUSH2 0xB9D JUMP JUMPDEST DUP1 ISZERO PUSH2 0x2EB JUMPI DUP1 PUSH1 0x1F LT PUSH2 0x2C0 JUMPI PUSH2 0x100 DUP1 DUP4 SLOAD DIV MUL DUP4 MSTORE SWAP2 PUSH1 0x20 ADD SWAP2 PUSH2 0x2EB JUMP JUMPDEST DUP3 ADD SWAP2 SWAP1 PUSH1 0x0 MSTORE PUSH1 0x20 PUSH1 0x0 KECCAK256 SWAP1 JUMPDEST DUP2 SLOAD DUP2 MSTORE SWAP1 PUSH1 0x1 ADD SWAP1 PUSH1 0x20 ADD DUP1 DUP4 GT PUSH2 0x2CE JUMPI DUP3 SWAP1 SUB PUSH1 0x1F AND DUP3 ADD SWAP2 JUMPDEST POP POP POP POP POP SWAP3 POP DUP2 DUP1 SLOAD PUSH2 0x2FE SWAP1 PUSH2 0xB9D JUMP JUMPDEST DUP1 PUSH1 0x1F ADD PUSH1 0x20 DUP1 SWAP2 DIV MUL PUSH1 0x20 ADD PUSH1 0x40 MLOAD SWAP1 DUP2 ADD PUSH1 0x40 MSTORE DUP1 SWAP3 SWAP2 SWAP1 DUP2 DUP2 MSTORE PUSH1 0x20 ADD DUP3 DUP1 SLOAD PUSH2 0x32A SWAP1 PUSH2 0xB9D JUMP JUMPDEST DUP1 ISZERO PUSH2 0x377 JUMPI DUP1 PUSH1 0x1F LT PUSH2 0x34C JUMPI PUSH2 0x100 DUP1 DUP4 SLOAD DIV MUL DUP4 MSTORE SWAP2 PUSH1 0x20 ADD SWAP2 PUSH2 0x377 JUMP JUMPDEST DUP3 ADD SWAP2 SWAP1 PUSH1 0x0 MSTORE PUSH1 0x20 PUSH1 0x0 KECCAK256 SWAP1 JUMPDEST DUP2 SLOAD DUP2 MSTORE SWAP1 PUSH1 0x1 ADD SWAP1 PUSH1 0x20 ADD DUP1 DUP4 GT PUSH2 0x35A JUMPI DUP3 SWAP1 SUB PUSH1 0x1F AND DUP3 ADD SWAP2 JUMPDEST POP POP POP POP POP SWAP2 POP SWAP5 POP SWAP5 POP SWAP5 POP POP POP SWAP2 SWAP4 SWAP1 SWAP3 POP JUMP JUMPDEST DUP1 PUSH1 0x1 DUP1 DUP1 SLOAD SWAP1 POP PUSH2 0x39F SWAP2 SWAP1 PUSH2 0xADE JUMP JUMPDEST DUP2 GT ISZERO PUSH2 0x3E1 JUMPI PUSH1 0x40 MLOAD PUSH32 0x8C379A000000000000000000000000000000000000000000000000000000000 DUP2 MSTORE PUSH1 0x4 ADD PUSH2 0x3D8 SWAP1 PUSH2 0xA4C JUMP JUMPDEST PUSH1 0x40 MLOAD DUP1 SWAP2 SUB SWAP1 REVERT JUMPDEST PUSH1 0x1 DUP1 DUP1 DUP1 SLOAD SWAP1 POP PUSH2 0x3F3 SWAP2 SWAP1 PUSH2 0xADE JUMP JUMPDEST DUP2 SLOAD DUP2 LT PUSH2 0x404 JUMPI PUSH2 0x403 PUSH2 0xC8D JUMP JUMPDEST JUMPDEST SWAP1 PUSH1 0x0 MSTORE PUSH1 0x20 PUSH1 0x0 KECCAK256 SWAP1 PUSH1 0x3 MUL ADD PUSH1 0x1 DUP4 DUP2 SLOAD DUP2 LT PUSH2 0x426 JUMPI PUSH2 0x425 PUSH2 0xC8D JUMP JUMPDEST JUMPDEST SWAP1 PUSH1 0x0 MSTORE PUSH1 0x20 PUSH1 0x0 KECCAK256 SWAP1 PUSH1 0x3 MUL ADD PUSH1 0x0 DUP3 ADD DUP2 PUSH1 0x0 ADD SWAP1 DUP1 SLOAD PUSH2 0x448 SWAP1 PUSH2 0xB9D JUMP JUMPDEST PUSH2 0x453 SWAP3 SWAP2 SWAP1 PUSH2 0x709 JUMP JUMPDEST POP PUSH1 0x1 DUP3 ADD DUP2 PUSH1 0x1 ADD SWAP1 DUP1 SLOAD PUSH2 0x468 SWAP1 PUSH2 0xB9D JUMP JUMPDEST PUSH2 0x473 SWAP3 SWAP2 SWAP1 PUSH2 0x709 JUMP JUMPDEST POP PUSH1 0x2 DUP3 ADD PUSH1 0x0 SWAP1 SLOAD SWAP1 PUSH2 0x100 EXP SWAP1 DIV PUSH1 0xFF AND DUP2 PUSH1 0x2 ADD PUSH1 0x0 PUSH2 0x100 EXP DUP2 SLOAD DUP2 PUSH1 0xFF MUL NOT AND SWAP1 DUP4 PUSH1 0xFF AND MUL OR SWAP1 SSTORE POP SWAP1 POP POP PUSH1 0x1 DUP1 SLOAD DUP1 PUSH2 0x4B7 JUMPI PUSH2 0x4B6 PUSH2 0xC5E JUMP JUMPDEST JUMPDEST PUSH1 0x1 SWAP1 SUB DUP2 DUP2 SWAP1 PUSH1 0x0 MSTORE PUSH1 0x20 PUSH1 0x0 KECCAK256 SWAP1 PUSH1 0x3 MUL ADD PUSH1 0x0 DUP1 DUP3 ADD PUSH1 0x0 PUSH2 0x4DC SWAP2 SWAP1 PUSH2 0x796 JUMP JUMPDEST PUSH1 0x1 DUP3 ADD PUSH1 0x0 PUSH2 0x4EC SWAP2 SWAP1 PUSH2 0x796 JUMP JUMPDEST PUSH1 0x2 DUP3 ADD PUSH1 0x0 PUSH2 0x100 EXP DUP2 SLOAD SWAP1 PUSH1 0xFF MUL NOT AND SWAP1 SSTORE POP POP SWAP1 SSTORE POP POP JUMP JUMPDEST PUSH1 0x1 DUP2 DUP2 SLOAD DUP2 LT PUSH2 0x518 JUMPI PUSH1 0x0 DUP1 REVERT JUMPDEST SWAP1 PUSH1 0x0 MSTORE PUSH1 0x20 PUSH1 0x0 KECCAK256 SWAP1 PUSH1 0x3 MUL ADD PUSH1 0x0 SWAP2 POP SWAP1 POP DUP1 PUSH1 0x0 ADD DUP1 SLOAD PUSH2 0x53B SWAP1 PUSH2 0xB9D JUMP JUMPDEST DUP1 PUSH1 0x1F ADD PUSH1 0x20 DUP1 SWAP2 DIV MUL PUSH1 0x20 ADD PUSH1 0x40 MLOAD SWAP1 DUP2 ADD PUSH1 0x40 MSTORE DUP1 SWAP3 SWAP2 SWAP1 DUP2 DUP2 MSTORE PUSH1 0x20 ADD DUP3 DUP1 SLOAD PUSH2 0x567 SWAP1 PUSH2 0xB9D JUMP JUMPDEST DUP1 ISZERO PUSH2 0x5B4 JUMPI DUP1 PUSH1 0x1F LT PUSH2 0x589 JUMPI PUSH2 0x100 DUP1 DUP4 SLOAD DIV MUL DUP4 MSTORE SWAP2 PUSH1 0x20 ADD SWAP2 PUSH2 0x5B4 JUMP JUMPDEST DUP3 ADD SWAP2 SWAP1 PUSH1 0x0 MSTORE PUSH1 0x20 PUSH1 0x0 KECCAK256 SWAP1 JUMPDEST DUP2 SLOAD DUP2 MSTORE SWAP1 PUSH1 0x1 ADD SWAP1 PUSH1 0x20 ADD DUP1 DUP4 GT PUSH2 0x597 JUMPI DUP3 SWAP1 SUB PUSH1 0x1F AND DUP3 ADD SWAP2 JUMPDEST POP POP POP POP POP SWAP1 DUP1 PUSH1 0x1 ADD DUP1 SLOAD PUSH2 0x5C9 SWAP1 PUSH2 0xB9D JUMP JUMPDEST DUP1 PUSH1 0x1F ADD PUSH1 0x20 DUP1 SWAP2 DIV MUL PUSH1 0x20 ADD PUSH1 0x40 MLOAD SWAP1 DUP2 ADD PUSH1 0x40 MSTORE DUP1 SWAP3 SWAP2 SWAP1 DUP2 DUP2 MSTORE PUSH1 0x20 ADD DUP3 DUP1 SLOAD PUSH2 0x5F5 SWAP1 PUSH2 0xB9D JUMP JUMPDEST DUP1 ISZERO PUSH2 0x642 JUMPI DUP1 PUSH1 0x1F LT PUSH2 0x617 JUMPI PUSH2 0x100 DUP1 DUP4 SLOAD DIV MUL DUP4 MSTORE SWAP2 PUSH1 0x20 ADD SWAP2 PUSH2 0x642 JUMP JUMPDEST DUP3 ADD SWAP2 SWAP1 PUSH1 0x0 MSTORE PUSH1 0x20 PUSH1 0x0 KECCAK256 SWAP1 JUMPDEST DUP2 SLOAD DUP2 MSTORE SWAP1 PUSH1 0x1 ADD SWAP1 PUSH1 0x20 ADD DUP1 DUP4 GT PUSH2 0x625 JUMPI DUP3 SWAP1 SUB PUSH1 0x1F AND DUP3 ADD SWAP2 JUMPDEST POP POP POP POP POP SWAP1 DUP1 PUSH1 0x2 ADD PUSH1 0x0 SWAP1 SLOAD SWAP1 PUSH2 0x100 EXP SWAP1 DIV PUSH1 0xFF AND SWAP1 POP DUP4 JUMP JUMPDEST PUSH1 0x0 DUP1 SLOAD SWAP1 PUSH2 0x100 EXP SWAP1 DIV PUSH20 0xFFFFFFFFFFFFFFFFFFFFFFFFFFFFFFFFFFFFFFFF AND DUP2 JUMP JUMPDEST DUP3 DUP1 SLOAD PUSH2 0x68F SWAP1 PUSH2 0xB9D JUMP JUMPDEST SWAP1 PUSH1 0x0 MSTORE PUSH1 0x20 PUSH1 0x0 KECCAK256 SWAP1 PUSH1 0x1F ADD PUSH1 0x20 SWAP1 DIV DUP2 ADD SWAP3 DUP3 PUSH2 0x6B1 JUMPI PUSH1 0x0 DUP6 SSTORE PUSH2 0x6F8 JUMP JUMPDEST DUP3 PUSH1 0x1F LT PUSH2 0x6CA JUMPI DUP1 MLOAD PUSH1 0xFF NOT AND DUP4 DUP1 ADD OR DUP6 SSTORE PUSH2 0x6F8 JUMP JUMPDEST DUP3 DUP1 ADD PUSH1 0x1 ADD DUP6 SSTORE DUP3 ISZERO PUSH2 0x6F8 JUMPI SWAP2 DUP3 ADD JUMPDEST DUP3 DUP2 GT ISZERO PUSH2 0x6F7 JUMPI DUP3 MLOAD DUP3 SSTORE SWAP2 PUSH1 0x20 ADD SWAP2 SWAP1 PUSH1 0x1 ADD SWAP1 PUSH2 0x6DC JUMP JUMPDEST JUMPDEST POP SWAP1 POP PUSH2 0x705 SWAP2 SWAP1 PUSH2 0x7D6 JUMP JUMPDEST POP SWAP1 JUMP JUMPDEST DUP3 DUP1 SLOAD PUSH2 0x715 SWAP1 PUSH2 0xB9D JUMP JUMPDEST SWAP1 PUSH1 0x0 MSTORE PUSH1 0x20 PUSH1 0x0 KECCAK256 SWAP1 PUSH1 0x1F ADD PUSH1 0x20 SWAP1 DIV DUP2 ADD SWAP3 DUP3 PUSH2 0x737 JUMPI PUSH1 0x0 DUP6 SSTORE PUSH2 0x785 JUMP JUMPDEST DUP3 PUSH1 0x1F LT PUSH2 0x748 JUMPI DUP1 SLOAD DUP6 SSTORE PUSH2 0x785 JUMP JUMPDEST DUP3 DUP1 ADD PUSH1 0x1 ADD DUP6 SSTORE DUP3 ISZERO PUSH2 0x785 JUMPI PUSH1 0x0 MSTORE PUSH1 0x20 PUSH1 0x0 KECCAK256 SWAP2 PUSH1 0x1F ADD PUSH1 0x20 SWAP1 DIV DUP3 ADD JUMPDEST DUP3 DUP2 GT ISZERO PUSH2 0x784 JUMPI DUP3 SLOAD DUP3 SSTORE SWAP2 PUSH1 0x1 ADD SWAP2 SWAP1 PUSH1 0x1 ADD SWAP1 PUSH2 0x769 JUMP JUMPDEST JUMPDEST POP SWAP1 POP PUSH2 0x792 SWAP2 SWAP1 PUSH2 0x7D6 JUMP JUMPDEST POP SWAP1 JUMP JUMPDEST POP DUP1 SLOAD PUSH2 0x7A2 SWAP1 PUSH2 0xB9D JUMP JUMPDEST PUSH1 0x0 DUP3 SSTORE DUP1 PUSH1 0x1F LT PUSH2 0x7B4 JUMPI POP PUSH2 0x7D3 JUMP JUMPDEST PUSH1 0x1F ADD PUSH1 0x20 SWAP1 DIV SWAP1 PUSH1 0x0 MSTORE PUSH1 0x20 PUSH1 0x0 KECCAK256 SWAP1 DUP2 ADD SWAP1 PUSH2 0x7D2 SWAP2 SWAP1 PUSH2 0x7D6 JUMP JUMPDEST JUMPDEST POP JUMP JUMPDEST JUMPDEST DUP1 DUP3 GT ISZERO PUSH2 0x7EF JUMPI PUSH1 0x0 DUP2 PUSH1 0x0 SWAP1 SSTORE POP PUSH1 0x1 ADD PUSH2 0x7D7 JUMP JUMPDEST POP SWAP1 JUMP JUMPDEST PUSH1 0x0 PUSH2 0x806 PUSH2 0x801 DUP5 PUSH2 0xA91 JUMP JUMPDEST PUSH2 0xA6C JUMP JUMPDEST SWAP1 POP DUP3 DUP2 MSTORE PUSH1 0x20 DUP2 ADD DUP5 DUP5 DUP5 ADD GT ISZERO PUSH2 0x822 JUMPI PUSH2 0x821 PUSH2 0xCF0 JUMP JUMPDEST JUMPDEST PUSH2 0x82D DUP5 DUP3 DUP6 PUSH2 0xB5B JUMP JUMPDEST POP SWAP4 SWAP3 POP POP POP JUMP JUMPDEST PUSH1 0x0 DUP3 PUSH1 0x1F DUP4 ADD SLT PUSH2 0x84A JUMPI PUSH2 0x849 PUSH2 0xCEB JUMP JUMPDEST JUMPDEST DUP2 CALLDATALOAD PUSH2 0x85A DUP5 DUP3 PUSH1 0x20 DUP7 ADD PUSH2 0x7F3 JUMP JUMPDEST SWAP2 POP POP SWAP3 SWAP2 POP POP JUMP JUMPDEST PUSH1 0x0 DUP2 CALLDATALOAD SWAP1 POP PUSH2 0x872 DUP2 PUSH2 0xD5F JUMP JUMPDEST SWAP3 SWAP2 POP POP JUMP JUMPDEST PUSH1 0x0 DUP2 CALLDATALOAD SWAP1 POP PUSH2 0x887 DUP2 PUSH2 0xD76 JUMP JUMPDEST SWAP3 SWAP2 POP POP JUMP JUMPDEST PUSH1 0x0 DUP1 PUSH1 0x0 PUSH1 0x60 DUP5 DUP7 SUB SLT ISZERO PUSH2 0x8A6 JUMPI PUSH2 0x8A5 PUSH2 0xCFA JUMP JUMPDEST JUMPDEST PUSH1 0x0 DUP5 ADD CALLDATALOAD PUSH8 0xFFFFFFFFFFFFFFFF DUP2 GT ISZERO PUSH2 0x8C4 JUMPI PUSH2 0x8C3 PUSH2 0xCF5 JUMP JUMPDEST JUMPDEST PUSH2 0x8D0 DUP7 DUP3 DUP8 ADD PUSH2 0x835 JUMP JUMPDEST SWAP4 POP POP PUSH1 0x20 DUP5 ADD CALLDATALOAD PUSH8 0xFFFFFFFFFFFFFFFF DUP2 GT ISZERO PUSH2 0x8F1 JUMPI PUSH2 0x8F0 PUSH2 0xCF5 JUMP JUMPDEST JUMPDEST PUSH2 0x8FD DUP7 DUP3 DUP8 ADD PUSH2 0x835 JUMP JUMPDEST SWAP3 POP POP PUSH1 0x40 PUSH2 0x90E DUP7 DUP3 DUP8 ADD PUSH2 0x878 JUMP JUMPDEST SWAP2 POP POP SWAP3 POP SWAP3 POP SWAP3 JUMP JUMPDEST PUSH1 0x0 PUSH1 0x20 DUP3 DUP5 SUB SLT ISZERO PUSH2 0x92E JUMPI PUSH2 0x92D PUSH2 0xCFA JUMP JUMPDEST JUMPDEST PUSH1 0x0 PUSH2 0x93C DUP5 DUP3 DUP6 ADD PUSH2 0x863 JUMP JUMPDEST SWAP2 POP POP SWAP3 SWAP2 POP POP JUMP JUMPDEST PUSH1 0x0 PUSH1 0x20 DUP3 DUP5 SUB SLT ISZERO PUSH2 0x95B JUMPI PUSH2 0x95A PUSH2 0xCFA JUMP JUMPDEST JUMPDEST PUSH1 0x0 PUSH2 0x969 DUP5 DUP3 DUP6 ADD PUSH2 0x878 JUMP JUMPDEST SWAP2 POP POP SWAP3 SWAP2 POP POP JUMP JUMPDEST PUSH2 0x97B DUP2 PUSH2 0xB12 JUMP JUMPDEST DUP3 MSTORE POP POP JUMP JUMPDEST PUSH1 0x0 PUSH2 0x98C DUP3 PUSH2 0xAC2 JUMP JUMPDEST PUSH2 0x996 DUP2 DUP6 PUSH2 0xACD JUMP JUMPDEST SWAP4 POP PUSH2 0x9A6 DUP2 DUP6 PUSH1 0x20 DUP7 ADD PUSH2 0xB6A JUMP JUMPDEST PUSH2 0x9AF DUP2 PUSH2 0xCFF JUMP JUMPDEST DUP5 ADD SWAP2 POP POP SWAP3 SWAP2 POP POP JUMP JUMPDEST PUSH1 0x0 PUSH2 0x9C7 PUSH1 0x2E DUP4 PUSH2 0xACD JUMP JUMPDEST SWAP2 POP PUSH2 0x9D2 DUP3 PUSH2 0xD10 JUMP JUMPDEST PUSH1 0x40 DUP3 ADD SWAP1 POP SWAP2 SWAP1 POP JUMP JUMPDEST PUSH2 0x9E6 DUP2 PUSH2 0xB4E JUMP JUMPDEST DUP3 MSTORE POP POP JUMP JUMPDEST PUSH1 0x0 PUSH1 0x20 DUP3 ADD SWAP1 POP PUSH2 0xA01 PUSH1 0x0 DUP4 ADD DUP5 PUSH2 0x972 JUMP JUMPDEST SWAP3 SWAP2 POP POP JUMP JUMPDEST PUSH1 0x0 PUSH1 0x60 DUP3 ADD SWAP1 POP DUP2 DUP2 SUB PUSH1 0x0 DUP4 ADD MSTORE PUSH2 0xA21 DUP2 DUP7 PUSH2 0x981 JUMP JUMPDEST SWAP1 POP DUP2 DUP2 SUB PUSH1 0x20 DUP4 ADD MSTORE PUSH2 0xA35 DUP2 DUP6 PUSH2 0x981 JUMP JUMPDEST SWAP1 POP PUSH2 0xA44 PUSH1 0x40 DUP4 ADD DUP5 PUSH2 0x9DD JUMP JUMPDEST SWAP5 SWAP4 POP POP POP POP JUMP JUMPDEST PUSH1 0x0 PUSH1 0x20 DUP3 ADD SWAP1 POP DUP2 DUP2 SUB PUSH1 0x0 DUP4 ADD MSTORE PUSH2 0xA65 DUP2 PUSH2 0x9BA JUMP JUMPDEST SWAP1 POP SWAP2 SWAP1 POP JUMP JUMPDEST PUSH1 0x0 PUSH2 0xA76 PUSH2 0xA87 JUMP JUMPDEST SWAP1 POP PUSH2 0xA82 DUP3 DUP3 PUSH2 0xBCF JUMP JUMPDEST SWAP2 SWAP1 POP JUMP JUMPDEST PUSH1 0x0 PUSH1 0x40 MLOAD SWAP1 POP SWAP1 JUMP JUMPDEST PUSH1 0x0 PUSH8 0xFFFFFFFFFFFFFFFF DUP3 GT ISZERO PUSH2 0xAAC JUMPI PUSH2 0xAAB PUSH2 0xCBC JUMP JUMPDEST JUMPDEST PUSH2 0xAB5 DUP3 PUSH2 0xCFF JUMP JUMPDEST SWAP1 POP PUSH1 0x20 DUP2 ADD SWAP1 POP SWAP2 SWAP1 POP JUMP JUMPDEST PUSH1 0x0 DUP2 MLOAD SWAP1 POP SWAP2 SWAP1 POP JUMP JUMPDEST PUSH1 0x0 DUP3 DUP3 MSTORE PUSH1 0x20 DUP3 ADD SWAP1 POP SWAP3 SWAP2 POP POP JUMP JUMPDEST PUSH1 0x0 PUSH2 0xAE9 DUP3 PUSH2 0xB44 JUMP JUMPDEST SWAP2 POP PUSH2 0xAF4 DUP4 PUSH2 0xB44 JUMP JUMPDEST SWAP3 POP DUP3 DUP3 LT ISZERO PUSH2 0xB07 JUMPI PUSH2 0xB06 PUSH2 0xC00 JUMP JUMPDEST JUMPDEST DUP3 DUP3 SUB SWAP1 POP SWAP3 SWAP2 POP POP JUMP JUMPDEST PUSH1 0x0 PUSH2 0xB1D DUP3 PUSH2 0xB24 JUMP JUMPDEST SWAP1 POP SWAP2 SWAP1 POP JUMP JUMPDEST PUSH1 0x0 PUSH20 0xFFFFFFFFFFFFFFFFFFFFFFFFFFFFFFFFFFFFFFFF DUP3 AND SWAP1 POP SWAP2 SWAP1 POP JUMP JUMPDEST PUSH1 0x0 DUP2 SWAP1 POP SWAP2 SWAP1 POP JUMP JUMPDEST PUSH1 0x0 PUSH1 0xFF DUP3 AND SWAP1 POP SWAP2 SWAP1 POP JUMP JUMPDEST DUP3 DUP2 DUP4 CALLDATACOPY PUSH1 0x0 DUP4 DUP4 ADD MSTORE POP POP POP JUMP JUMPDEST PUSH1 0x0 JUMPDEST DUP4 DUP2 LT ISZERO PUSH2 0xB88 JUMPI DUP1 DUP3 ADD MLOAD DUP2 DUP5 ADD MSTORE PUSH1 0x20 DUP2 ADD SWAP1 POP PUSH2 0xB6D JUMP JUMPDEST DUP4 DUP2 GT ISZERO PUSH2 0xB97 JUMPI PUSH1 0x0 DUP5 DUP5 ADD MSTORE JUMPDEST POP POP POP POP JUMP JUMPDEST PUSH1 0x0 PUSH1 0x2 DUP3 DIV SWAP1 POP PUSH1 0x1 DUP3 AND DUP1 PUSH2 0xBB5 JUMPI PUSH1 0x7F DUP3 AND SWAP2 POP JUMPDEST PUSH1 0x20 DUP3 LT DUP2 EQ ISZERO PUSH2 0xBC9 JUMPI PUSH2 0xBC8 PUSH2 0xC2F JUMP JUMPDEST JUMPDEST POP SWAP2 SWAP1 POP JUMP JUMPDEST PUSH2 0xBD8 DUP3 PUSH2 0xCFF JUMP JUMPDEST DUP2 ADD DUP2 DUP2 LT PUSH8 0xFFFFFFFFFFFFFFFF DUP3 GT OR ISZERO PUSH2 0xBF7 JUMPI PUSH2 0xBF6 PUSH2 0xCBC JUMP JUMPDEST JUMPDEST DUP1 PUSH1 0x40 MSTORE POP POP POP JUMP JUMPDEST PUSH32 0x4E487B7100000000000000000000000000000000000000000000000000000000 PUSH1 0x0 MSTORE PUSH1 0x11 PUSH1 0x4 MSTORE PUSH1 0x24 PUSH1 0x0 REVERT JUMPDEST PUSH32 0x4E487B7100000000000000000000000000000000000000000000000000000000 PUSH1 0x0 MSTORE PUSH1 0x22 PUSH1 0x4 MSTORE PUSH1 0x24 PUSH1 0x0 REVERT JUMPDEST PUSH32 0x4E487B7100000000000000000000000000000000000000000000000000000000 PUSH1 0x0 MSTORE PUSH1 0x31 PUSH1 0x4 MSTORE PUSH1 0x24 PUSH1 0x0 REVERT JUMPDEST PUSH32 0x4E487B7100000000000000000000000000000000000000000000000000000000 PUSH1 0x0 MSTORE PUSH1 0x32 PUSH1 0x4 MSTORE PUSH1 0x24 PUSH1 0x0 REVERT JUMPDEST PUSH32 0x4E487B7100000000000000000000000000000000000000000000000000000000 PUSH1 0x0 MSTORE PUSH1 0x41 PUSH1 0x4 MSTORE PUSH1 0x24 PUSH1 0x0 REVERT JUMPDEST PUSH1 0x0 DUP1 REVERT JUMPDEST PUSH1 0x0 DUP1 REVERT JUMPDEST PUSH1 0x0 DUP1 REVERT JUMPDEST PUSH1 0x0 DUP1 REVERT JUMPDEST PUSH1 0x0 PUSH1 0x1F NOT PUSH1 0x1F DUP4 ADD AND SWAP1 POP SWAP2 SWAP1 POP JUMP JUMPDEST PUSH32 0x4E4F2053545544454E54204154205448495320494E4445582120454E54455220 PUSH1 0x0 DUP3 ADD MSTORE PUSH32 0x41204C4F574552204E554D424552000000000000000000000000000000000000 PUSH1 0x20 DUP3 ADD MSTORE POP JUMP JUMPDEST PUSH2 0xD68 DUP2 PUSH2 0xB44 JUMP JUMPDEST DUP2 EQ PUSH2 0xD73 JUMPI PUSH1 0x0 DUP1 REVERT JUMPDEST POP JUMP JUMPDEST PUSH2 0xD7F DUP2 PUSH2 0xB4E JUMP JUMPDEST DUP2 EQ PUSH2 0xD8A JUMPI PUSH1 0x0 DUP1 REVERT JUMPDEST POP JUMP INVALID LOG2 PUSH5 0x6970667358 0x22 SLT KECCAK256 PUSH13 0xDC2F827327D5BE9579C75D065D SLT SGT SWAP9 0x23 STOP DIFFICULTY ADD SWAP12 0xA5 PUSH28 0x994707A5694A41A864736F6C63430008070033000000000000000000 "
				},
				"gasEstimates": {
					"creation": {
						"codeDepositCost": "704600",
						"executionCost": "25007",
						"totalCost": "729607"
					},
					"external": {
						"admin_address()": "2577",
						"deleteStudent(uint256)": "infinite",
						"get_name(uint8)": "infinite",
						"store_Details(string,string,uint8)": "infinite",
						"studentDetails(uint256)": "infinite"
					}
				},
				"methodIdentifiers": {
					"admin_address()": "f2e62772",
					"deleteStudent(uint256)": "b645307d",
					"get_name(uint8)": "781caf1d",
					"store_Details(string,string,uint8)": "26142d2b",
					"studentDetails(uint256)": "d5fb052f"
				}
			},
			"storageLayout": {
				"storage": [
					{
						"astId": 10,
						"contract": "solidityTasks-Web3Bridge/SweetPractice/StudentDetail.sol:StudentDetail",
						"label": "admin_address",
						"offset": 0,
						"slot": "0",
						"type": "t_address"
					},
					{
						"astId": 23,
						"contract": "solidityTasks-Web3Bridge/SweetPractice/StudentDetail.sol:StudentDetail",
						"label": "studentDetails",
						"offset": 0,
						"slot": "1",
						"type": "t_array(t_struct(studentDetail)8_storage)dyn_storage"
					}
				],
				"types": {
					"t_address": {
						"encoding": "inplace",
						"label": "address",
						"numberOfBytes": "20"
					},
					"t_array(t_struct(studentDetail)8_storage)dyn_storage": {
						"base": "t_struct(studentDetail)8_storage",
						"encoding": "dynamic_array",
						"label": "struct StudentDetail.studentDetail[]",
						"numberOfBytes": "32"
					},
					"t_string_storage": {
						"encoding": "bytes",
						"label": "string",
						"numberOfBytes": "32"
					},
					"t_struct(studentDetail)8_storage": {
						"encoding": "inplace",
						"label": "struct StudentDetail.studentDetail",
						"members": [
							{
								"astId": 3,
								"contract": "solidityTasks-Web3Bridge/SweetPractice/StudentDetail.sol:StudentDetail",
								"label": "Name",
								"offset": 0,
								"slot": "0",
								"type": "t_string_storage"
							},
							{
								"astId": 5,
								"contract": "solidityTasks-Web3Bridge/SweetPractice/StudentDetail.sol:StudentDetail",
								"label": "Gender",
								"offset": 0,
								"slot": "1",
								"type": "t_string_storage"
							},
							{
								"astId": 7,
								"contract": "solidityTasks-Web3Bridge/SweetPractice/StudentDetail.sol:StudentDetail",
								"label": "age",
								"offset": 0,
								"slot": "2",
								"type": "t_uint8"
							}
						],
						"numberOfBytes": "96"
					},
					"t_uint8": {
						"encoding": "inplace",
						"label": "uint8",
						"numberOfBytes": "1"
					}
				}
			},
			"userdoc": {
				"kind": "user",
				"methods": {},
				"version": 1
			}
		}
	}
}