{
	"solidityTasks-Web3Bridge/SweetPractice/StructTest.sol": {
		"StructTest": {
			"abi": [
				{
					"inputs": [
						{
							"internalType": "string",
							"name": "_brand",
							"type": "string"
						},
						{
							"internalType": "uint256",
							"name": "_price",
							"type": "uint256"
						}
					],
					"name": "createVar",
					"outputs": [],
					"stateMutability": "nonpayable",
					"type": "function"
				},
				{
					"inputs": [],
					"name": "getVar",
					"outputs": [
						{
							"components": [
								{
									"internalType": "string",
									"name": "brand",
									"type": "string"
								},
								{
									"internalType": "uint256",
									"name": "price",
									"type": "uint256"
								}
							],
							"internalType": "struct StructTest.Car",
							"name": "",
							"type": "tuple"
						}
					],
					"stateMutability": "view",
					"type": "function"
				}
			],
			"devdoc": {
				"author": "the_roqbell (milk-maid)",
				"kind": "dev",
				"methods": {},
				"title": "Testing some Struct",
				"version": 1
			},
			"evm": {
				"assembly": "    /* \"solidityTasks-Web3Bridge/SweetPractice/StructTest.sol\":158:485  contract StructTest {... */\n  mstore(0x40, 0x80)\n  callvalue\n  dup1\n  iszero\n  tag_1\n  jumpi\n  0x00\n  dup1\n  revert\ntag_1:\n  pop\n  dataSize(sub_0)\n  dup1\n  dataOffset(sub_0)\n  0x00\n  codecopy\n  0x00\n  return\nstop\n\nsub_0: assembly {\n        /* \"solidityTasks-Web3Bridge/SweetPractice/StructTest.sol\":158:485  contract StructTest {... */\n      mstore(0x40, 0x80)\n      callvalue\n      dup1\n      iszero\n      tag_1\n      jumpi\n      0x00\n      dup1\n      revert\n    tag_1:\n      pop\n      jumpi(tag_2, lt(calldatasize, 0x04))\n      shr(0xe0, calldataload(0x00))\n      dup1\n      0x477a5c98\n      eq\n      tag_3\n      jumpi\n      dup1\n      0xce517ceb\n      eq\n      tag_4\n      jumpi\n    tag_2:\n      0x00\n      dup1\n      revert\n        /* \"solidityTasks-Web3Bridge/SweetPractice/StructTest.sol\":397:483  function getVar() external view returns (Car memory) {... */\n    tag_3:\n      tag_5\n      tag_6\n      jump\t// in\n    tag_5:\n      mload(0x40)\n      tag_7\n      swap2\n      swap1\n      tag_8\n      jump\t// in\n    tag_7:\n      mload(0x40)\n      dup1\n      swap2\n      sub\n      swap1\n      return\n        /* \"solidityTasks-Web3Bridge/SweetPractice/StructTest.sol\":280:391  function createVar(string memory _brand, uint _price) external {... */\n    tag_4:\n      tag_9\n      0x04\n      dup1\n      calldatasize\n      sub\n      dup2\n      add\n      swap1\n      tag_10\n      swap2\n      swap1\n      tag_11\n      jump\t// in\n    tag_10:\n      tag_12\n      jump\t// in\n    tag_9:\n      stop\n        /* \"solidityTasks-Web3Bridge/SweetPractice/StructTest.sol\":397:483  function getVar() external view returns (Car memory) {... */\n    tag_6:\n        /* \"solidityTasks-Web3Bridge/SweetPractice/StructTest.sol\":438:448  Car memory */\n      tag_13\n      tag_14\n      jump\t// in\n    tag_13:\n        /* \"solidityTasks-Web3Bridge/SweetPractice/StructTest.sol\":467:476  myVehicle */\n      0x00\n        /* \"solidityTasks-Web3Bridge/SweetPractice/StructTest.sol\":460:476  return myVehicle */\n      mload(0x40)\n      dup1\n      0x40\n      add\n      0x40\n      mstore\n      swap1\n      dup2\n      0x00\n      dup3\n      add\n      dup1\n      sload\n      tag_16\n      swap1\n      tag_17\n      jump\t// in\n    tag_16:\n      dup1\n      0x1f\n      add\n      0x20\n      dup1\n      swap2\n      div\n      mul\n      0x20\n      add\n      mload(0x40)\n      swap1\n      dup2\n      add\n      0x40\n      mstore\n      dup1\n      swap3\n      swap2\n      swap1\n      dup2\n      dup2\n      mstore\n      0x20\n      add\n      dup3\n      dup1\n      sload\n      tag_18\n      swap1\n      tag_17\n      jump\t// in\n    tag_18:\n      dup1\n      iszero\n      tag_19\n      jumpi\n      dup1\n      0x1f\n      lt\n      tag_20\n      jumpi\n      0x0100\n      dup1\n      dup4\n      sload\n      div\n      mul\n      dup4\n      mstore\n      swap2\n      0x20\n      add\n      swap2\n      jump(tag_19)\n    tag_20:\n      dup3\n      add\n      swap2\n      swap1\n      0x00\n      mstore\n      keccak256(0x00, 0x20)\n      swap1\n    tag_21:\n      dup2\n      sload\n      dup2\n      mstore\n      swap1\n      0x01\n      add\n      swap1\n      0x20\n      add\n      dup1\n      dup4\n      gt\n      tag_21\n      jumpi\n      dup3\n      swap1\n      sub\n      0x1f\n      and\n      dup3\n      add\n      swap2\n    tag_19:\n      pop\n      pop\n      pop\n      pop\n      pop\n      dup2\n      mstore\n      0x20\n      add\n      0x01\n      dup3\n      add\n      sload\n      dup2\n      mstore\n      pop\n      pop\n      swap1\n      pop\n        /* \"solidityTasks-Web3Bridge/SweetPractice/StructTest.sol\":397:483  function getVar() external view returns (Car memory) {... */\n      swap1\n      jump\t// out\n        /* \"solidityTasks-Web3Bridge/SweetPractice/StructTest.sol\":280:391  function createVar(string memory _brand, uint _price) external {... */\n    tag_12:\n        /* \"solidityTasks-Web3Bridge/SweetPractice/StructTest.sol\":365:384  Car(_brand, _price) */\n      mload(0x40)\n      dup1\n      0x40\n      add\n      0x40\n      mstore\n      dup1\n        /* \"solidityTasks-Web3Bridge/SweetPractice/StructTest.sol\":369:375  _brand */\n      dup4\n        /* \"solidityTasks-Web3Bridge/SweetPractice/StructTest.sol\":365:384  Car(_brand, _price) */\n      dup2\n      mstore\n      0x20\n      add\n        /* \"solidityTasks-Web3Bridge/SweetPractice/StructTest.sol\":377:383  _price */\n      dup3\n        /* \"solidityTasks-Web3Bridge/SweetPractice/StructTest.sol\":365:384  Car(_brand, _price) */\n      dup2\n      mstore\n      pop\n        /* \"solidityTasks-Web3Bridge/SweetPractice/StructTest.sol\":353:362  myVehicle */\n      0x00\n        /* \"solidityTasks-Web3Bridge/SweetPractice/StructTest.sol\":353:384  myVehicle = Car(_brand, _price) */\n      dup1\n      dup3\n      add\n      mload\n      dup2\n      0x00\n      add\n      swap1\n      dup1\n      mload\n      swap1\n      0x20\n      add\n      swap1\n      tag_23\n      swap3\n      swap2\n      swap1\n      tag_24\n      jump\t// in\n    tag_23:\n      pop\n      0x20\n      dup3\n      add\n      mload\n      dup2\n      0x01\n      add\n      sstore\n      swap1\n      pop\n      pop\n        /* \"solidityTasks-Web3Bridge/SweetPractice/StructTest.sol\":280:391  function createVar(string memory _brand, uint _price) external {... */\n      pop\n      pop\n      jump\t// out\n    tag_14:\n      mload(0x40)\n      dup1\n      0x40\n      add\n      0x40\n      mstore\n      dup1\n      0x60\n      dup2\n      mstore\n      0x20\n      add\n      0x00\n      dup2\n      mstore\n      pop\n      swap1\n      jump\t// out\n    tag_24:\n      dup3\n      dup1\n      sload\n      tag_25\n      swap1\n      tag_17\n      jump\t// in\n    tag_25:\n      swap1\n      0x00\n      mstore\n      keccak256(0x00, 0x20)\n      swap1\n      0x1f\n      add\n      0x20\n      swap1\n      div\n      dup2\n      add\n      swap3\n      dup3\n      tag_27\n      jumpi\n      0x00\n      dup6\n      sstore\n      jump(tag_26)\n    tag_27:\n      dup3\n      0x1f\n      lt\n      tag_28\n      jumpi\n      dup1\n      mload\n      not(0xff)\n      and\n      dup4\n      dup1\n      add\n      or\n      dup6\n      sstore\n      jump(tag_26)\n    tag_28:\n      dup3\n      dup1\n      add\n      0x01\n      add\n      dup6\n      sstore\n      dup3\n      iszero\n      tag_26\n      jumpi\n      swap2\n      dup3\n      add\n    tag_29:\n      dup3\n      dup2\n      gt\n      iszero\n      tag_30\n      jumpi\n      dup3\n      mload\n      dup3\n      sstore\n      swap2\n      0x20\n      add\n      swap2\n      swap1\n      0x01\n      add\n      swap1\n      jump(tag_29)\n    tag_30:\n    tag_26:\n      pop\n      swap1\n      pop\n      tag_31\n      swap2\n      swap1\n      tag_32\n      jump\t// in\n    tag_31:\n      pop\n      swap1\n      jump\t// out\n    tag_32:\n    tag_33:\n      dup1\n      dup3\n      gt\n      iszero\n      tag_34\n      jumpi\n      0x00\n      dup2\n      0x00\n      swap1\n      sstore\n      pop\n      0x01\n      add\n      jump(tag_33)\n    tag_34:\n      pop\n      swap1\n      jump\t// out\n        /* \"#utility.yul\":7:419   */\n    tag_36:\n        /* \"#utility.yul\":85:90   */\n      0x00\n        /* \"#utility.yul\":110:176   */\n      tag_38\n        /* \"#utility.yul\":126:175   */\n      tag_39\n        /* \"#utility.yul\":168:174   */\n      dup5\n        /* \"#utility.yul\":126:175   */\n      tag_40\n      jump\t// in\n    tag_39:\n        /* \"#utility.yul\":110:176   */\n      tag_41\n      jump\t// in\n    tag_38:\n        /* \"#utility.yul\":101:176   */\n      swap1\n      pop\n        /* \"#utility.yul\":199:205   */\n      dup3\n        /* \"#utility.yul\":192:197   */\n      dup2\n        /* \"#utility.yul\":185:206   */\n      mstore\n        /* \"#utility.yul\":237:241   */\n      0x20\n        /* \"#utility.yul\":230:235   */\n      dup2\n        /* \"#utility.yul\":226:242   */\n      add\n        /* \"#utility.yul\":275:278   */\n      dup5\n        /* \"#utility.yul\":266:272   */\n      dup5\n        /* \"#utility.yul\":261:264   */\n      dup5\n        /* \"#utility.yul\":257:273   */\n      add\n        /* \"#utility.yul\":254:279   */\n      gt\n        /* \"#utility.yul\":251:363   */\n      iszero\n      tag_42\n      jumpi\n        /* \"#utility.yul\":282:361   */\n      tag_43\n      tag_44\n      jump\t// in\n    tag_43:\n        /* \"#utility.yul\":251:363   */\n    tag_42:\n        /* \"#utility.yul\":372:413   */\n      tag_45\n        /* \"#utility.yul\":406:412   */\n      dup5\n        /* \"#utility.yul\":401:404   */\n      dup3\n        /* \"#utility.yul\":396:399   */\n      dup6\n        /* \"#utility.yul\":372:413   */\n      tag_46\n      jump\t// in\n    tag_45:\n        /* \"#utility.yul\":91:419   */\n      pop\n        /* \"#utility.yul\":7:419   */\n      swap4\n      swap3\n      pop\n      pop\n      pop\n      jump\t// out\n        /* \"#utility.yul\":439:779   */\n    tag_47:\n        /* \"#utility.yul\":495:500   */\n      0x00\n        /* \"#utility.yul\":544:547   */\n      dup3\n        /* \"#utility.yul\":537:541   */\n      0x1f\n        /* \"#utility.yul\":529:535   */\n      dup4\n        /* \"#utility.yul\":525:542   */\n      add\n        /* \"#utility.yul\":521:548   */\n      slt\n        /* \"#utility.yul\":511:633   */\n      tag_49\n      jumpi\n        /* \"#utility.yul\":552:631   */\n      tag_50\n      tag_51\n      jump\t// in\n    tag_50:\n        /* \"#utility.yul\":511:633   */\n    tag_49:\n        /* \"#utility.yul\":669:675   */\n      dup2\n        /* \"#utility.yul\":656:676   */\n      calldataload\n        /* \"#utility.yul\":694:773   */\n      tag_52\n        /* \"#utility.yul\":769:772   */\n      dup5\n        /* \"#utility.yul\":761:767   */\n      dup3\n        /* \"#utility.yul\":754:758   */\n      0x20\n        /* \"#utility.yul\":746:752   */\n      dup7\n        /* \"#utility.yul\":742:759   */\n      add\n        /* \"#utility.yul\":694:773   */\n      tag_36\n      jump\t// in\n    tag_52:\n        /* \"#utility.yul\":685:773   */\n      swap2\n      pop\n        /* \"#utility.yul\":501:779   */\n      pop\n        /* \"#utility.yul\":439:779   */\n      swap3\n      swap2\n      pop\n      pop\n      jump\t// out\n        /* \"#utility.yul\":785:924   */\n    tag_53:\n        /* \"#utility.yul\":831:836   */\n      0x00\n        /* \"#utility.yul\":869:875   */\n      dup2\n        /* \"#utility.yul\":856:876   */\n      calldataload\n        /* \"#utility.yul\":847:876   */\n      swap1\n      pop\n        /* \"#utility.yul\":885:918   */\n      tag_55\n        /* \"#utility.yul\":912:917   */\n      dup2\n        /* \"#utility.yul\":885:918   */\n      tag_56\n      jump\t// in\n    tag_55:\n        /* \"#utility.yul\":785:924   */\n      swap3\n      swap2\n      pop\n      pop\n      jump\t// out\n        /* \"#utility.yul\":930:1584   */\n    tag_11:\n        /* \"#utility.yul\":1008:1014   */\n      0x00\n        /* \"#utility.yul\":1016:1022   */\n      dup1\n        /* \"#utility.yul\":1065:1067   */\n      0x40\n        /* \"#utility.yul\":1053:1062   */\n      dup4\n        /* \"#utility.yul\":1044:1051   */\n      dup6\n        /* \"#utility.yul\":1040:1063   */\n      sub\n        /* \"#utility.yul\":1036:1068   */\n      slt\n        /* \"#utility.yul\":1033:1152   */\n      iszero\n      tag_58\n      jumpi\n        /* \"#utility.yul\":1071:1150   */\n      tag_59\n      tag_60\n      jump\t// in\n    tag_59:\n        /* \"#utility.yul\":1033:1152   */\n    tag_58:\n        /* \"#utility.yul\":1219:1220   */\n      0x00\n        /* \"#utility.yul\":1208:1217   */\n      dup4\n        /* \"#utility.yul\":1204:1221   */\n      add\n        /* \"#utility.yul\":1191:1222   */\n      calldataload\n        /* \"#utility.yul\":1249:1267   */\n      0xffffffffffffffff\n        /* \"#utility.yul\":1241:1247   */\n      dup2\n        /* \"#utility.yul\":1238:1268   */\n      gt\n        /* \"#utility.yul\":1235:1352   */\n      iszero\n      tag_61\n      jumpi\n        /* \"#utility.yul\":1271:1350   */\n      tag_62\n      tag_63\n      jump\t// in\n    tag_62:\n        /* \"#utility.yul\":1235:1352   */\n    tag_61:\n        /* \"#utility.yul\":1376:1439   */\n      tag_64\n        /* \"#utility.yul\":1431:1438   */\n      dup6\n        /* \"#utility.yul\":1422:1428   */\n      dup3\n        /* \"#utility.yul\":1411:1420   */\n      dup7\n        /* \"#utility.yul\":1407:1429   */\n      add\n        /* \"#utility.yul\":1376:1439   */\n      tag_47\n      jump\t// in\n    tag_64:\n        /* \"#utility.yul\":1366:1439   */\n      swap3\n      pop\n        /* \"#utility.yul\":1162:1449   */\n      pop\n        /* \"#utility.yul\":1488:1490   */\n      0x20\n        /* \"#utility.yul\":1514:1567   */\n      tag_65\n        /* \"#utility.yul\":1559:1566   */\n      dup6\n        /* \"#utility.yul\":1550:1556   */\n      dup3\n        /* \"#utility.yul\":1539:1548   */\n      dup7\n        /* \"#utility.yul\":1535:1557   */\n      add\n        /* \"#utility.yul\":1514:1567   */\n      tag_53\n      jump\t// in\n    tag_65:\n        /* \"#utility.yul\":1504:1567   */\n      swap2\n      pop\n        /* \"#utility.yul\":1459:1577   */\n      pop\n        /* \"#utility.yul\":930:1584   */\n      swap3\n      pop\n      swap3\n      swap1\n      pop\n      jump\t// out\n        /* \"#utility.yul\":1590:1934   */\n    tag_66:\n        /* \"#utility.yul\":1668:1671   */\n      0x00\n        /* \"#utility.yul\":1696:1735   */\n      tag_68\n        /* \"#utility.yul\":1729:1734   */\n      dup3\n        /* \"#utility.yul\":1696:1735   */\n      tag_69\n      jump\t// in\n    tag_68:\n        /* \"#utility.yul\":1751:1812   */\n      tag_70\n        /* \"#utility.yul\":1805:1811   */\n      dup2\n        /* \"#utility.yul\":1800:1803   */\n      dup6\n        /* \"#utility.yul\":1751:1812   */\n      tag_71\n      jump\t// in\n    tag_70:\n        /* \"#utility.yul\":1744:1812   */\n      swap4\n      pop\n        /* \"#utility.yul\":1821:1873   */\n      tag_72\n        /* \"#utility.yul\":1866:1872   */\n      dup2\n        /* \"#utility.yul\":1861:1864   */\n      dup6\n        /* \"#utility.yul\":1854:1858   */\n      0x20\n        /* \"#utility.yul\":1847:1852   */\n      dup7\n        /* \"#utility.yul\":1843:1859   */\n      add\n        /* \"#utility.yul\":1821:1873   */\n      tag_73\n      jump\t// in\n    tag_72:\n        /* \"#utility.yul\":1898:1927   */\n      tag_74\n        /* \"#utility.yul\":1920:1926   */\n      dup2\n        /* \"#utility.yul\":1898:1927   */\n      tag_75\n      jump\t// in\n    tag_74:\n        /* \"#utility.yul\":1893:1896   */\n      dup5\n        /* \"#utility.yul\":1889:1928   */\n      add\n        /* \"#utility.yul\":1882:1928   */\n      swap2\n      pop\n        /* \"#utility.yul\":1672:1934   */\n      pop\n        /* \"#utility.yul\":1590:1934   */\n      swap3\n      swap2\n      pop\n      pop\n      jump\t// out\n        /* \"#utility.yul\":1994:2588   */\n    tag_76:\n        /* \"#utility.yul\":2099:2102   */\n      0x00\n        /* \"#utility.yul\":2135:2139   */\n      0x40\n        /* \"#utility.yul\":2130:2133   */\n      dup4\n        /* \"#utility.yul\":2126:2140   */\n      add\n        /* \"#utility.yul\":2223:2227   */\n      0x00\n        /* \"#utility.yul\":2216:2221   */\n      dup4\n        /* \"#utility.yul\":2212:2228   */\n      add\n        /* \"#utility.yul\":2206:2229   */\n      mload\n        /* \"#utility.yul\":2276:2279   */\n      dup5\n        /* \"#utility.yul\":2270:2274   */\n      dup3\n        /* \"#utility.yul\":2266:2280   */\n      sub\n        /* \"#utility.yul\":2259:2263   */\n      0x00\n        /* \"#utility.yul\":2254:2257   */\n      dup7\n        /* \"#utility.yul\":2250:2264   */\n      add\n        /* \"#utility.yul\":2243:2281   */\n      mstore\n        /* \"#utility.yul\":2302:2375   */\n      tag_78\n        /* \"#utility.yul\":2370:2374   */\n      dup3\n        /* \"#utility.yul\":2356:2368   */\n      dup3\n        /* \"#utility.yul\":2302:2375   */\n      tag_66\n      jump\t// in\n    tag_78:\n        /* \"#utility.yul\":2294:2375   */\n      swap2\n      pop\n        /* \"#utility.yul\":2150:2386   */\n      pop\n        /* \"#utility.yul\":2469:2473   */\n      0x20\n        /* \"#utility.yul\":2462:2467   */\n      dup4\n        /* \"#utility.yul\":2458:2474   */\n      add\n        /* \"#utility.yul\":2452:2475   */\n      mload\n        /* \"#utility.yul\":2488:2551   */\n      tag_79\n        /* \"#utility.yul\":2545:2549   */\n      0x20\n        /* \"#utility.yul\":2540:2543   */\n      dup7\n        /* \"#utility.yul\":2536:2550   */\n      add\n        /* \"#utility.yul\":2522:2534   */\n      dup3\n        /* \"#utility.yul\":2488:2551   */\n      tag_80\n      jump\t// in\n    tag_79:\n        /* \"#utility.yul\":2396:2561   */\n      pop\n        /* \"#utility.yul\":2578:2582   */\n      dup1\n        /* \"#utility.yul\":2571:2582   */\n      swap2\n      pop\n        /* \"#utility.yul\":2104:2588   */\n      pop\n        /* \"#utility.yul\":1994:2588   */\n      swap3\n      swap2\n      pop\n      pop\n      jump\t// out\n        /* \"#utility.yul\":2594:2702   */\n    tag_80:\n        /* \"#utility.yul\":2671:2695   */\n      tag_82\n        /* \"#utility.yul\":2689:2694   */\n      dup2\n        /* \"#utility.yul\":2671:2695   */\n      tag_83\n      jump\t// in\n    tag_82:\n        /* \"#utility.yul\":2666:2669   */\n      dup3\n        /* \"#utility.yul\":2659:2696   */\n      mstore\n        /* \"#utility.yul\":2594:2702   */\n      pop\n      pop\n      jump\t// out\n        /* \"#utility.yul\":2708:3053   */\n    tag_8:\n        /* \"#utility.yul\":2837:2841   */\n      0x00\n        /* \"#utility.yul\":2875:2877   */\n      0x20\n        /* \"#utility.yul\":2864:2873   */\n      dup3\n        /* \"#utility.yul\":2860:2878   */\n      add\n        /* \"#utility.yul\":2852:2878   */\n      swap1\n      pop\n        /* \"#utility.yul\":2924:2933   */\n      dup2\n        /* \"#utility.yul\":2918:2922   */\n      dup2\n        /* \"#utility.yul\":2914:2934   */\n      sub\n        /* \"#utility.yul\":2910:2911   */\n      0x00\n        /* \"#utility.yul\":2899:2908   */\n      dup4\n        /* \"#utility.yul\":2895:2912   */\n      add\n        /* \"#utility.yul\":2888:2935   */\n      mstore\n        /* \"#utility.yul\":2952:3046   */\n      tag_85\n        /* \"#utility.yul\":3041:3045   */\n      dup2\n        /* \"#utility.yul\":3032:3038   */\n      dup5\n        /* \"#utility.yul\":2952:3046   */\n      tag_76\n      jump\t// in\n    tag_85:\n        /* \"#utility.yul\":2944:3046   */\n      swap1\n      pop\n        /* \"#utility.yul\":2708:3053   */\n      swap3\n      swap2\n      pop\n      pop\n      jump\t// out\n        /* \"#utility.yul\":3059:3188   */\n    tag_41:\n        /* \"#utility.yul\":3093:3099   */\n      0x00\n        /* \"#utility.yul\":3120:3140   */\n      tag_87\n      tag_88\n      jump\t// in\n    tag_87:\n        /* \"#utility.yul\":3110:3140   */\n      swap1\n      pop\n        /* \"#utility.yul\":3149:3182   */\n      tag_89\n        /* \"#utility.yul\":3177:3181   */\n      dup3\n        /* \"#utility.yul\":3169:3175   */\n      dup3\n        /* \"#utility.yul\":3149:3182   */\n      tag_90\n      jump\t// in\n    tag_89:\n        /* \"#utility.yul\":3059:3188   */\n      swap2\n      swap1\n      pop\n      jump\t// out\n        /* \"#utility.yul\":3194:3269   */\n    tag_88:\n        /* \"#utility.yul\":3227:3233   */\n      0x00\n        /* \"#utility.yul\":3260:3262   */\n      0x40\n        /* \"#utility.yul\":3254:3263   */\n      mload\n        /* \"#utility.yul\":3244:3263   */\n      swap1\n      pop\n        /* \"#utility.yul\":3194:3269   */\n      swap1\n      jump\t// out\n        /* \"#utility.yul\":3275:3583   */\n    tag_40:\n        /* \"#utility.yul\":3337:3341   */\n      0x00\n        /* \"#utility.yul\":3427:3445   */\n      0xffffffffffffffff\n        /* \"#utility.yul\":3419:3425   */\n      dup3\n        /* \"#utility.yul\":3416:3446   */\n      gt\n        /* \"#utility.yul\":3413:3469   */\n      iszero\n      tag_93\n      jumpi\n        /* \"#utility.yul\":3449:3467   */\n      tag_94\n      tag_95\n      jump\t// in\n    tag_94:\n        /* \"#utility.yul\":3413:3469   */\n    tag_93:\n        /* \"#utility.yul\":3487:3516   */\n      tag_96\n        /* \"#utility.yul\":3509:3515   */\n      dup3\n        /* \"#utility.yul\":3487:3516   */\n      tag_75\n      jump\t// in\n    tag_96:\n        /* \"#utility.yul\":3479:3516   */\n      swap1\n      pop\n        /* \"#utility.yul\":3571:3575   */\n      0x20\n        /* \"#utility.yul\":3565:3569   */\n      dup2\n        /* \"#utility.yul\":3561:3576   */\n      add\n        /* \"#utility.yul\":3553:3576   */\n      swap1\n      pop\n        /* \"#utility.yul\":3275:3583   */\n      swap2\n      swap1\n      pop\n      jump\t// out\n        /* \"#utility.yul\":3589:3688   */\n    tag_69:\n        /* \"#utility.yul\":3641:3647   */\n      0x00\n        /* \"#utility.yul\":3675:3680   */\n      dup2\n        /* \"#utility.yul\":3669:3681   */\n      mload\n        /* \"#utility.yul\":3659:3681   */\n      swap1\n      pop\n        /* \"#utility.yul\":3589:3688   */\n      swap2\n      swap1\n      pop\n      jump\t// out\n        /* \"#utility.yul\":3694:3853   */\n    tag_71:\n        /* \"#utility.yul\":3768:3779   */\n      0x00\n        /* \"#utility.yul\":3802:3808   */\n      dup3\n        /* \"#utility.yul\":3797:3800   */\n      dup3\n        /* \"#utility.yul\":3790:3809   */\n      mstore\n        /* \"#utility.yul\":3842:3846   */\n      0x20\n        /* \"#utility.yul\":3837:3840   */\n      dup3\n        /* \"#utility.yul\":3833:3847   */\n      add\n        /* \"#utility.yul\":3818:3847   */\n      swap1\n      pop\n        /* \"#utility.yul\":3694:3853   */\n      swap3\n      swap2\n      pop\n      pop\n      jump\t// out\n        /* \"#utility.yul\":3859:3936   */\n    tag_83:\n        /* \"#utility.yul\":3896:3903   */\n      0x00\n        /* \"#utility.yul\":3925:3930   */\n      dup2\n        /* \"#utility.yul\":3914:3930   */\n      swap1\n      pop\n        /* \"#utility.yul\":3859:3936   */\n      swap2\n      swap1\n      pop\n      jump\t// out\n        /* \"#utility.yul\":3942:4096   */\n    tag_46:\n        /* \"#utility.yul\":4026:4032   */\n      dup3\n        /* \"#utility.yul\":4021:4024   */\n      dup2\n        /* \"#utility.yul\":4016:4019   */\n      dup4\n        /* \"#utility.yul\":4003:4033   */\n      calldatacopy\n        /* \"#utility.yul\":4088:4089   */\n      0x00\n        /* \"#utility.yul\":4079:4085   */\n      dup4\n        /* \"#utility.yul\":4074:4077   */\n      dup4\n        /* \"#utility.yul\":4070:4086   */\n      add\n        /* \"#utility.yul\":4063:4090   */\n      mstore\n        /* \"#utility.yul\":3942:4096   */\n      pop\n      pop\n      pop\n      jump\t// out\n        /* \"#utility.yul\":4102:4409   */\n    tag_73:\n        /* \"#utility.yul\":4170:4171   */\n      0x00\n        /* \"#utility.yul\":4180:4293   */\n    tag_102:\n        /* \"#utility.yul\":4194:4200   */\n      dup4\n        /* \"#utility.yul\":4191:4192   */\n      dup2\n        /* \"#utility.yul\":4188:4201   */\n      lt\n        /* \"#utility.yul\":4180:4293   */\n      iszero\n      tag_104\n      jumpi\n        /* \"#utility.yul\":4279:4280   */\n      dup1\n        /* \"#utility.yul\":4274:4277   */\n      dup3\n        /* \"#utility.yul\":4270:4281   */\n      add\n        /* \"#utility.yul\":4264:4282   */\n      mload\n        /* \"#utility.yul\":4260:4261   */\n      dup2\n        /* \"#utility.yul\":4255:4258   */\n      dup5\n        /* \"#utility.yul\":4251:4262   */\n      add\n        /* \"#utility.yul\":4244:4283   */\n      mstore\n        /* \"#utility.yul\":4216:4218   */\n      0x20\n        /* \"#utility.yul\":4213:4214   */\n      dup2\n        /* \"#utility.yul\":4209:4219   */\n      add\n        /* \"#utility.yul\":4204:4219   */\n      swap1\n      pop\n        /* \"#utility.yul\":4180:4293   */\n      jump(tag_102)\n    tag_104:\n        /* \"#utility.yul\":4311:4317   */\n      dup4\n        /* \"#utility.yul\":4308:4309   */\n      dup2\n        /* \"#utility.yul\":4305:4318   */\n      gt\n        /* \"#utility.yul\":4302:4403   */\n      iszero\n      tag_105\n      jumpi\n        /* \"#utility.yul\":4391:4392   */\n      0x00\n        /* \"#utility.yul\":4382:4388   */\n      dup5\n        /* \"#utility.yul\":4377:4380   */\n      dup5\n        /* \"#utility.yul\":4373:4389   */\n      add\n        /* \"#utility.yul\":4366:4393   */\n      mstore\n        /* \"#utility.yul\":4302:4403   */\n    tag_105:\n        /* \"#utility.yul\":4151:4409   */\n      pop\n        /* \"#utility.yul\":4102:4409   */\n      pop\n      pop\n      pop\n      jump\t// out\n        /* \"#utility.yul\":4415:4735   */\n    tag_17:\n        /* \"#utility.yul\":4459:4465   */\n      0x00\n        /* \"#utility.yul\":4496:4497   */\n      0x02\n        /* \"#utility.yul\":4490:4494   */\n      dup3\n        /* \"#utility.yul\":4486:4498   */\n      div\n        /* \"#utility.yul\":4476:4498   */\n      swap1\n      pop\n        /* \"#utility.yul\":4543:4544   */\n      0x01\n        /* \"#utility.yul\":4537:4541   */\n      dup3\n        /* \"#utility.yul\":4533:4545   */\n      and\n        /* \"#utility.yul\":4564:4582   */\n      dup1\n        /* \"#utility.yul\":4554:4635   */\n      tag_107\n      jumpi\n        /* \"#utility.yul\":4620:4624   */\n      0x7f\n        /* \"#utility.yul\":4612:4618   */\n      dup3\n        /* \"#utility.yul\":4608:4625   */\n      and\n        /* \"#utility.yul\":4598:4625   */\n      swap2\n      pop\n        /* \"#utility.yul\":4554:4635   */\n    tag_107:\n        /* \"#utility.yul\":4682:4684   */\n      0x20\n        /* \"#utility.yul\":4674:4680   */\n      dup3\n        /* \"#utility.yul\":4671:4685   */\n      lt\n        /* \"#utility.yul\":4651:4669   */\n      dup2\n        /* \"#utility.yul\":4648:4686   */\n      eq\n        /* \"#utility.yul\":4645:4729   */\n      iszero\n      tag_108\n      jumpi\n        /* \"#utility.yul\":4701:4719   */\n      tag_109\n      tag_110\n      jump\t// in\n    tag_109:\n        /* \"#utility.yul\":4645:4729   */\n    tag_108:\n        /* \"#utility.yul\":4466:4735   */\n      pop\n        /* \"#utility.yul\":4415:4735   */\n      swap2\n      swap1\n      pop\n      jump\t// out\n        /* \"#utility.yul\":4741:5022   */\n    tag_90:\n        /* \"#utility.yul\":4824:4851   */\n      tag_112\n        /* \"#utility.yul\":4846:4850   */\n      dup3\n        /* \"#utility.yul\":4824:4851   */\n      tag_75\n      jump\t// in\n    tag_112:\n        /* \"#utility.yul\":4816:4822   */\n      dup2\n        /* \"#utility.yul\":4812:4852   */\n      add\n        /* \"#utility.yul\":4954:4960   */\n      dup2\n        /* \"#utility.yul\":4942:4952   */\n      dup2\n        /* \"#utility.yul\":4939:4961   */\n      lt\n        /* \"#utility.yul\":4918:4936   */\n      0xffffffffffffffff\n        /* \"#utility.yul\":4906:4916   */\n      dup3\n        /* \"#utility.yul\":4903:4937   */\n      gt\n        /* \"#utility.yul\":4900:4962   */\n      or\n        /* \"#utility.yul\":4897:4985   */\n      iszero\n      tag_113\n      jumpi\n        /* \"#utility.yul\":4965:4983   */\n      tag_114\n      tag_95\n      jump\t// in\n    tag_114:\n        /* \"#utility.yul\":4897:4985   */\n    tag_113:\n        /* \"#utility.yul\":5005:5015   */\n      dup1\n        /* \"#utility.yul\":5001:5003   */\n      0x40\n        /* \"#utility.yul\":4994:5016   */\n      mstore\n        /* \"#utility.yul\":4784:5022   */\n      pop\n        /* \"#utility.yul\":4741:5022   */\n      pop\n      pop\n      jump\t// out\n        /* \"#utility.yul\":5028:5208   */\n    tag_110:\n        /* \"#utility.yul\":5076:5153   */\n      0x4e487b7100000000000000000000000000000000000000000000000000000000\n        /* \"#utility.yul\":5073:5074   */\n      0x00\n        /* \"#utility.yul\":5066:5154   */\n      mstore\n        /* \"#utility.yul\":5173:5177   */\n      0x22\n        /* \"#utility.yul\":5170:5171   */\n      0x04\n        /* \"#utility.yul\":5163:5178   */\n      mstore\n        /* \"#utility.yul\":5197:5201   */\n      0x24\n        /* \"#utility.yul\":5194:5195   */\n      0x00\n        /* \"#utility.yul\":5187:5202   */\n      revert\n        /* \"#utility.yul\":5214:5394   */\n    tag_95:\n        /* \"#utility.yul\":5262:5339   */\n      0x4e487b7100000000000000000000000000000000000000000000000000000000\n        /* \"#utility.yul\":5259:5260   */\n      0x00\n        /* \"#utility.yul\":5252:5340   */\n      mstore\n        /* \"#utility.yul\":5359:5363   */\n      0x41\n        /* \"#utility.yul\":5356:5357   */\n      0x04\n        /* \"#utility.yul\":5349:5364   */\n      mstore\n        /* \"#utility.yul\":5383:5387   */\n      0x24\n        /* \"#utility.yul\":5380:5381   */\n      0x00\n        /* \"#utility.yul\":5373:5388   */\n      revert\n        /* \"#utility.yul\":5400:5517   */\n    tag_51:\n        /* \"#utility.yul\":5509:5510   */\n      0x00\n        /* \"#utility.yul\":5506:5507   */\n      dup1\n        /* \"#utility.yul\":5499:5511   */\n      revert\n        /* \"#utility.yul\":5523:5640   */\n    tag_44:\n        /* \"#utility.yul\":5632:5633   */\n      0x00\n        /* \"#utility.yul\":5629:5630   */\n      dup1\n        /* \"#utility.yul\":5622:5634   */\n      revert\n        /* \"#utility.yul\":5646:5763   */\n    tag_63:\n        /* \"#utility.yul\":5755:5756   */\n      0x00\n        /* \"#utility.yul\":5752:5753   */\n      dup1\n        /* \"#utility.yul\":5745:5757   */\n      revert\n        /* \"#utility.yul\":5769:5886   */\n    tag_60:\n        /* \"#utility.yul\":5878:5879   */\n      0x00\n        /* \"#utility.yul\":5875:5876   */\n      dup1\n        /* \"#utility.yul\":5868:5880   */\n      revert\n        /* \"#utility.yul\":5892:5994   */\n    tag_75:\n        /* \"#utility.yul\":5933:5939   */\n      0x00\n        /* \"#utility.yul\":5984:5986   */\n      0x1f\n        /* \"#utility.yul\":5980:5987   */\n      not\n        /* \"#utility.yul\":5975:5977   */\n      0x1f\n        /* \"#utility.yul\":5968:5973   */\n      dup4\n        /* \"#utility.yul\":5964:5978   */\n      add\n        /* \"#utility.yul\":5960:5988   */\n      and\n        /* \"#utility.yul\":5950:5988   */\n      swap1\n      pop\n        /* \"#utility.yul\":5892:5994   */\n      swap2\n      swap1\n      pop\n      jump\t// out\n        /* \"#utility.yul\":6000:6122   */\n    tag_56:\n        /* \"#utility.yul\":6073:6097   */\n      tag_123\n        /* \"#utility.yul\":6091:6096   */\n      dup2\n        /* \"#utility.yul\":6073:6097   */\n      tag_83\n      jump\t// in\n    tag_123:\n        /* \"#utility.yul\":6066:6071   */\n      dup2\n        /* \"#utility.yul\":6063:6098   */\n      eq\n        /* \"#utility.yul\":6053:6116   */\n      tag_124\n      jumpi\n        /* \"#utility.yul\":6112:6113   */\n      0x00\n        /* \"#utility.yul\":6109:6110   */\n      dup1\n        /* \"#utility.yul\":6102:6114   */\n      revert\n        /* \"#utility.yul\":6053:6116   */\n    tag_124:\n        /* \"#utility.yul\":6000:6122   */\n      pop\n      jump\t// out\n\n    auxdata: 0xa264697066735822122031555471c262bfc90848fea6ba46fbfcbff9acda16d45befb0e772e8ac63f8d464736f6c63430008070033\n}\n",
				"bytecode": {
					"linkReferences": {},
					"object": "608060405234801561001057600080fd5b506105a5806100206000396000f3fe608060405234801561001057600080fd5b50600436106100365760003560e01c8063477a5c981461003b578063ce517ceb14610059575b600080fd5b610043610075565b6040516100509190610392565b60405180910390f35b610073600480360381019061006e91906102b1565b61012b565b005b61007d61016f565b600060405180604001604052908160008201805461009a90610472565b80601f01602080910402602001604051908101604052809291908181526020018280546100c690610472565b80156101135780601f106100e857610100808354040283529160200191610113565b820191906000526020600020905b8154815290600101906020018083116100f657829003601f168201915b50505050508152602001600182015481525050905090565b60405180604001604052808381526020018281525060008082015181600001908051906020019061015d929190610189565b50602082015181600101559050505050565b604051806040016040528060608152602001600081525090565b82805461019590610472565b90600052602060002090601f0160209004810192826101b757600085556101fe565b82601f106101d057805160ff19168380011785556101fe565b828001600101855582156101fe579182015b828111156101fd5782518255916020019190600101906101e2565b5b50905061020b919061020f565b5090565b5b80821115610228576000816000905550600101610210565b5090565b600061023f61023a846103d9565b6103b4565b90508281526020810184848401111561025b5761025a610538565b5b610266848285610430565b509392505050565b600082601f83011261028357610282610533565b5b813561029384826020860161022c565b91505092915050565b6000813590506102ab81610558565b92915050565b600080604083850312156102c8576102c7610542565b5b600083013567ffffffffffffffff8111156102e6576102e561053d565b5b6102f28582860161026e565b92505060206103038582860161029c565b9150509250929050565b60006103188261040a565b6103228185610415565b935061033281856020860161043f565b61033b81610547565b840191505092915050565b60006040830160008301518482036000860152610363828261030d565b91505060208301516103786020860182610383565b508091505092915050565b61038c81610426565b82525050565b600060208201905081810360008301526103ac8184610346565b905092915050565b60006103be6103cf565b90506103ca82826104a4565b919050565b6000604051905090565b600067ffffffffffffffff8211156103f4576103f3610504565b5b6103fd82610547565b9050602081019050919050565b600081519050919050565b600082825260208201905092915050565b6000819050919050565b82818337600083830152505050565b60005b8381101561045d578082015181840152602081019050610442565b8381111561046c576000848401525b50505050565b6000600282049050600182168061048a57607f821691505b6020821081141561049e5761049d6104d5565b5b50919050565b6104ad82610547565b810181811067ffffffffffffffff821117156104cc576104cb610504565b5b80604052505050565b7f4e487b7100000000000000000000000000000000000000000000000000000000600052602260045260246000fd5b7f4e487b7100000000000000000000000000000000000000000000000000000000600052604160045260246000fd5b600080fd5b600080fd5b600080fd5b600080fd5b6000601f19601f8301169050919050565b61056181610426565b811461056c57600080fd5b5056fea264697066735822122031555471c262bfc90848fea6ba46fbfcbff9acda16d45befb0e772e8ac63f8d464736f6c63430008070033",
					"opcodes": "PUSH1 0x80 PUSH1 0x40 MSTORE CALLVALUE DUP1 ISZERO PUSH2 0x10 JUMPI PUSH1 0x0 DUP1 REVERT JUMPDEST POP PUSH2 0x5A5 DUP1 PUSH2 0x20 PUSH1 0x0 CODECOPY PUSH1 0x0 RETURN INVALID PUSH1 0x80 PUSH1 0x40 MSTORE CALLVALUE DUP1 ISZERO PUSH2 0x10 JUMPI PUSH1 0x0 DUP1 REVERT JUMPDEST POP PUSH1 0x4 CALLDATASIZE LT PUSH2 0x36 JUMPI PUSH1 0x0 CALLDATALOAD PUSH1 0xE0 SHR DUP1 PUSH4 0x477A5C98 EQ PUSH2 0x3B JUMPI DUP1 PUSH4 0xCE517CEB EQ PUSH2 0x59 JUMPI JUMPDEST PUSH1 0x0 DUP1 REVERT JUMPDEST PUSH2 0x43 PUSH2 0x75 JUMP JUMPDEST PUSH1 0x40 MLOAD PUSH2 0x50 SWAP2 SWAP1 PUSH2 0x392 JUMP JUMPDEST PUSH1 0x40 MLOAD DUP1 SWAP2 SUB SWAP1 RETURN JUMPDEST PUSH2 0x73 PUSH1 0x4 DUP1 CALLDATASIZE SUB DUP2 ADD SWAP1 PUSH2 0x6E SWAP2 SWAP1 PUSH2 0x2B1 JUMP JUMPDEST PUSH2 0x12B JUMP JUMPDEST STOP JUMPDEST PUSH2 0x7D PUSH2 0x16F JUMP JUMPDEST PUSH1 0x0 PUSH1 0x40 MLOAD DUP1 PUSH1 0x40 ADD PUSH1 0x40 MSTORE SWAP1 DUP2 PUSH1 0x0 DUP3 ADD DUP1 SLOAD PUSH2 0x9A SWAP1 PUSH2 0x472 JUMP JUMPDEST DUP1 PUSH1 0x1F ADD PUSH1 0x20 DUP1 SWAP2 DIV MUL PUSH1 0x20 ADD PUSH1 0x40 MLOAD SWAP1 DUP2 ADD PUSH1 0x40 MSTORE DUP1 SWAP3 SWAP2 SWAP1 DUP2 DUP2 MSTORE PUSH1 0x20 ADD DUP3 DUP1 SLOAD PUSH2 0xC6 SWAP1 PUSH2 0x472 JUMP JUMPDEST DUP1 ISZERO PUSH2 0x113 JUMPI DUP1 PUSH1 0x1F LT PUSH2 0xE8 JUMPI PUSH2 0x100 DUP1 DUP4 SLOAD DIV MUL DUP4 MSTORE SWAP2 PUSH1 0x20 ADD SWAP2 PUSH2 0x113 JUMP JUMPDEST DUP3 ADD SWAP2 SWAP1 PUSH1 0x0 MSTORE PUSH1 0x20 PUSH1 0x0 KECCAK256 SWAP1 JUMPDEST DUP2 SLOAD DUP2 MSTORE SWAP1 PUSH1 0x1 ADD SWAP1 PUSH1 0x20 ADD DUP1 DUP4 GT PUSH2 0xF6 JUMPI DUP3 SWAP1 SUB PUSH1 0x1F AND DUP3 ADD SWAP2 JUMPDEST POP POP POP POP POP DUP2 MSTORE PUSH1 0x20 ADD PUSH1 0x1 DUP3 ADD SLOAD DUP2 MSTORE POP POP SWAP1 POP SWAP1 JUMP JUMPDEST PUSH1 0x40 MLOAD DUP1 PUSH1 0x40 ADD PUSH1 0x40 MSTORE DUP1 DUP4 DUP2 MSTORE PUSH1 0x20 ADD DUP3 DUP2 MSTORE POP PUSH1 0x0 DUP1 DUP3 ADD MLOAD DUP2 PUSH1 0x0 ADD SWAP1 DUP1 MLOAD SWAP1 PUSH1 0x20 ADD SWAP1 PUSH2 0x15D SWAP3 SWAP2 SWAP1 PUSH2 0x189 JUMP JUMPDEST POP PUSH1 0x20 DUP3 ADD MLOAD DUP2 PUSH1 0x1 ADD SSTORE SWAP1 POP POP POP POP JUMP JUMPDEST PUSH1 0x40 MLOAD DUP1 PUSH1 0x40 ADD PUSH1 0x40 MSTORE DUP1 PUSH1 0x60 DUP2 MSTORE PUSH1 0x20 ADD PUSH1 0x0 DUP2 MSTORE POP SWAP1 JUMP JUMPDEST DUP3 DUP1 SLOAD PUSH2 0x195 SWAP1 PUSH2 0x472 JUMP JUMPDEST SWAP1 PUSH1 0x0 MSTORE PUSH1 0x20 PUSH1 0x0 KECCAK256 SWAP1 PUSH1 0x1F ADD PUSH1 0x20 SWAP1 DIV DUP2 ADD SWAP3 DUP3 PUSH2 0x1B7 JUMPI PUSH1 0x0 DUP6 SSTORE PUSH2 0x1FE JUMP JUMPDEST DUP3 PUSH1 0x1F LT PUSH2 0x1D0 JUMPI DUP1 MLOAD PUSH1 0xFF NOT AND DUP4 DUP1 ADD OR DUP6 SSTORE PUSH2 0x1FE JUMP JUMPDEST DUP3 DUP1 ADD PUSH1 0x1 ADD DUP6 SSTORE DUP3 ISZERO PUSH2 0x1FE JUMPI SWAP2 DUP3 ADD JUMPDEST DUP3 DUP2 GT ISZERO PUSH2 0x1FD JUMPI DUP3 MLOAD DUP3 SSTORE SWAP2 PUSH1 0x20 ADD SWAP2 SWAP1 PUSH1 0x1 ADD SWAP1 PUSH2 0x1E2 JUMP JUMPDEST JUMPDEST POP SWAP1 POP PUSH2 0x20B SWAP2 SWAP1 PUSH2 0x20F JUMP JUMPDEST POP SWAP1 JUMP JUMPDEST JUMPDEST DUP1 DUP3 GT ISZERO PUSH2 0x228 JUMPI PUSH1 0x0 DUP2 PUSH1 0x0 SWAP1 SSTORE POP PUSH1 0x1 ADD PUSH2 0x210 JUMP JUMPDEST POP SWAP1 JUMP JUMPDEST PUSH1 0x0 PUSH2 0x23F PUSH2 0x23A DUP5 PUSH2 0x3D9 JUMP JUMPDEST PUSH2 0x3B4 JUMP JUMPDEST SWAP1 POP DUP3 DUP2 MSTORE PUSH1 0x20 DUP2 ADD DUP5 DUP5 DUP5 ADD GT ISZERO PUSH2 0x25B JUMPI PUSH2 0x25A PUSH2 0x538 JUMP JUMPDEST JUMPDEST PUSH2 0x266 DUP5 DUP3 DUP6 PUSH2 0x430 JUMP JUMPDEST POP SWAP4 SWAP3 POP POP POP JUMP JUMPDEST PUSH1 0x0 DUP3 PUSH1 0x1F DUP4 ADD SLT PUSH2 0x283 JUMPI PUSH2 0x282 PUSH2 0x533 JUMP JUMPDEST JUMPDEST DUP2 CALLDATALOAD PUSH2 0x293 DUP5 DUP3 PUSH1 0x20 DUP7 ADD PUSH2 0x22C JUMP JUMPDEST SWAP2 POP POP SWAP3 SWAP2 POP POP JUMP JUMPDEST PUSH1 0x0 DUP2 CALLDATALOAD SWAP1 POP PUSH2 0x2AB DUP2 PUSH2 0x558 JUMP JUMPDEST SWAP3 SWAP2 POP POP JUMP JUMPDEST PUSH1 0x0 DUP1 PUSH1 0x40 DUP4 DUP6 SUB SLT ISZERO PUSH2 0x2C8 JUMPI PUSH2 0x2C7 PUSH2 0x542 JUMP JUMPDEST JUMPDEST PUSH1 0x0 DUP4 ADD CALLDATALOAD PUSH8 0xFFFFFFFFFFFFFFFF DUP2 GT ISZERO PUSH2 0x2E6 JUMPI PUSH2 0x2E5 PUSH2 0x53D JUMP JUMPDEST JUMPDEST PUSH2 0x2F2 DUP6 DUP3 DUP7 ADD PUSH2 0x26E JUMP JUMPDEST SWAP3 POP POP PUSH1 0x20 PUSH2 0x303 DUP6 DUP3 DUP7 ADD PUSH2 0x29C JUMP JUMPDEST SWAP2 POP POP SWAP3 POP SWAP3 SWAP1 POP JUMP JUMPDEST PUSH1 0x0 PUSH2 0x318 DUP3 PUSH2 0x40A JUMP JUMPDEST PUSH2 0x322 DUP2 DUP6 PUSH2 0x415 JUMP JUMPDEST SWAP4 POP PUSH2 0x332 DUP2 DUP6 PUSH1 0x20 DUP7 ADD PUSH2 0x43F JUMP JUMPDEST PUSH2 0x33B DUP2 PUSH2 0x547 JUMP JUMPDEST DUP5 ADD SWAP2 POP POP SWAP3 SWAP2 POP POP JUMP JUMPDEST PUSH1 0x0 PUSH1 0x40 DUP4 ADD PUSH1 0x0 DUP4 ADD MLOAD DUP5 DUP3 SUB PUSH1 0x0 DUP7 ADD MSTORE PUSH2 0x363 DUP3 DUP3 PUSH2 0x30D JUMP JUMPDEST SWAP2 POP POP PUSH1 0x20 DUP4 ADD MLOAD PUSH2 0x378 PUSH1 0x20 DUP7 ADD DUP3 PUSH2 0x383 JUMP JUMPDEST POP DUP1 SWAP2 POP POP SWAP3 SWAP2 POP POP JUMP JUMPDEST PUSH2 0x38C DUP2 PUSH2 0x426 JUMP JUMPDEST DUP3 MSTORE POP POP JUMP JUMPDEST PUSH1 0x0 PUSH1 0x20 DUP3 ADD SWAP1 POP DUP2 DUP2 SUB PUSH1 0x0 DUP4 ADD MSTORE PUSH2 0x3AC DUP2 DUP5 PUSH2 0x346 JUMP JUMPDEST SWAP1 POP SWAP3 SWAP2 POP POP JUMP JUMPDEST PUSH1 0x0 PUSH2 0x3BE PUSH2 0x3CF JUMP JUMPDEST SWAP1 POP PUSH2 0x3CA DUP3 DUP3 PUSH2 0x4A4 JUMP JUMPDEST SWAP2 SWAP1 POP JUMP JUMPDEST PUSH1 0x0 PUSH1 0x40 MLOAD SWAP1 POP SWAP1 JUMP JUMPDEST PUSH1 0x0 PUSH8 0xFFFFFFFFFFFFFFFF DUP3 GT ISZERO PUSH2 0x3F4 JUMPI PUSH2 0x3F3 PUSH2 0x504 JUMP JUMPDEST JUMPDEST PUSH2 0x3FD DUP3 PUSH2 0x547 JUMP JUMPDEST SWAP1 POP PUSH1 0x20 DUP2 ADD SWAP1 POP SWAP2 SWAP1 POP JUMP JUMPDEST PUSH1 0x0 DUP2 MLOAD SWAP1 POP SWAP2 SWAP1 POP JUMP JUMPDEST PUSH1 0x0 DUP3 DUP3 MSTORE PUSH1 0x20 DUP3 ADD SWAP1 POP SWAP3 SWAP2 POP POP JUMP JUMPDEST PUSH1 0x0 DUP2 SWAP1 POP SWAP2 SWAP1 POP JUMP JUMPDEST DUP3 DUP2 DUP4 CALLDATACOPY PUSH1 0x0 DUP4 DUP4 ADD MSTORE POP POP POP JUMP JUMPDEST PUSH1 0x0 JUMPDEST DUP4 DUP2 LT ISZERO PUSH2 0x45D JUMPI DUP1 DUP3 ADD MLOAD DUP2 DUP5 ADD MSTORE PUSH1 0x20 DUP2 ADD SWAP1 POP PUSH2 0x442 JUMP JUMPDEST DUP4 DUP2 GT ISZERO PUSH2 0x46C JUMPI PUSH1 0x0 DUP5 DUP5 ADD MSTORE JUMPDEST POP POP POP POP JUMP JUMPDEST PUSH1 0x0 PUSH1 0x2 DUP3 DIV SWAP1 POP PUSH1 0x1 DUP3 AND DUP1 PUSH2 0x48A JUMPI PUSH1 0x7F DUP3 AND SWAP2 POP JUMPDEST PUSH1 0x20 DUP3 LT DUP2 EQ ISZERO PUSH2 0x49E JUMPI PUSH2 0x49D PUSH2 0x4D5 JUMP JUMPDEST JUMPDEST POP SWAP2 SWAP1 POP JUMP JUMPDEST PUSH2 0x4AD DUP3 PUSH2 0x547 JUMP JUMPDEST DUP2 ADD DUP2 DUP2 LT PUSH8 0xFFFFFFFFFFFFFFFF DUP3 GT OR ISZERO PUSH2 0x4CC JUMPI PUSH2 0x4CB PUSH2 0x504 JUMP JUMPDEST JUMPDEST DUP1 PUSH1 0x40 MSTORE POP POP POP JUMP JUMPDEST PUSH32 0x4E487B7100000000000000000000000000000000000000000000000000000000 PUSH1 0x0 MSTORE PUSH1 0x22 PUSH1 0x4 MSTORE PUSH1 0x24 PUSH1 0x0 REVERT JUMPDEST PUSH32 0x4E487B7100000000000000000000000000000000000000000000000000000000 PUSH1 0x0 MSTORE PUSH1 0x41 PUSH1 0x4 MSTORE PUSH1 0x24 PUSH1 0x0 REVERT JUMPDEST PUSH1 0x0 DUP1 REVERT JUMPDEST PUSH1 0x0 DUP1 REVERT JUMPDEST PUSH1 0x0 DUP1 REVERT JUMPDEST PUSH1 0x0 DUP1 REVERT JUMPDEST PUSH1 0x0 PUSH1 0x1F NOT PUSH1 0x1F DUP4 ADD AND SWAP1 POP SWAP2 SWAP1 POP JUMP JUMPDEST PUSH2 0x561 DUP2 PUSH2 0x426 JUMP JUMPDEST DUP2 EQ PUSH2 0x56C JUMPI PUSH1 0x0 DUP1 REVERT JUMPDEST POP JUMP INVALID LOG2 PUSH5 0x6970667358 0x22 SLT KECCAK256 BALANCE SSTORE SLOAD PUSH18 0xC262BFC90848FEA6BA46FBFCBFF9ACDA16D4 JUMPDEST 0xEF 0xB0 0xE7 PUSH19 0xE8AC63F8D464736F6C63430008070033000000 "
				},
				"gasEstimates": {
					"creation": {
						"codeDepositCost": "289000",
						"executionCost": "331",
						"totalCost": "289331"
					},
					"external": {
						"createVar(string,uint256)": "infinite",
						"getVar()": "infinite"
					}
				},
				"methodIdentifiers": {
					"createVar(string,uint256)": "ce517ceb",
					"getVar()": "477a5c98"
				}
			},
			"storageLayout": {
				"storage": [
					{
						"astId": 10,
						"contract": "solidityTasks-Web3Bridge/SweetPractice/StructTest.sol:StructTest",
						"label": "myVehicle",
						"offset": 0,
						"slot": "0",
						"type": "t_struct(Car)7_storage"
					}
				],
				"types": {
					"t_string_storage": {
						"encoding": "bytes",
						"label": "string",
						"numberOfBytes": "32"
					},
					"t_struct(Car)7_storage": {
						"encoding": "inplace",
						"label": "struct StructTest.Car",
						"members": [
							{
								"astId": 4,
								"contract": "solidityTasks-Web3Bridge/SweetPractice/StructTest.sol:StructTest",
								"label": "brand",
								"offset": 0,
								"slot": "0",
								"type": "t_string_storage"
							},
							{
								"astId": 6,
								"contract": "solidityTasks-Web3Bridge/SweetPractice/StructTest.sol:StructTest",
								"label": "price",
								"offset": 0,
								"slot": "1",
								"type": "t_uint256"
							}
						],
						"numberOfBytes": "64"
					},
					"t_uint256": {
						"encoding": "inplace",
						"label": "uint256",
						"numberOfBytes": "32"
					}
				}
			},
			"userdoc": {
				"kind": "user",
				"methods": {},
				"notice": "see how structs work s",
				"version": 1
			}
		}
	}
}