{
	"solidityTasks-Web3Bridge/SweetPractice/Call.sol": {
		"TestCall": {
			"abi": [
				{
					"anonymous": false,
					"inputs": [
						{
							"indexed": false,
							"internalType": "string",
							"name": "message",
							"type": "string"
						}
					],
					"name": "Log",
					"type": "event"
				},
				{
					"stateMutability": "payable",
					"type": "fallback"
				},
				{
					"inputs": [
						{
							"internalType": "string",
							"name": "_message",
							"type": "string"
						},
						{
							"internalType": "uint256",
							"name": "_x",
							"type": "uint256"
						}
					],
					"name": "foo",
					"outputs": [
						{
							"internalType": "bool",
							"name": "",
							"type": "bool"
						},
						{
							"internalType": "uint256",
							"name": "",
							"type": "uint256"
						}
					],
					"stateMutability": "payable",
					"type": "function"
				},
				{
					"inputs": [],
					"name": "message",
					"outputs": [
						{
							"internalType": "string",
							"name": "",
							"type": "string"
						}
					],
					"stateMutability": "view",
					"type": "function"
				},
				{
					"inputs": [],
					"name": "x",
					"outputs": [
						{
							"internalType": "uint256",
							"name": "",
							"type": "uint256"
						}
					],
					"stateMutability": "view",
					"type": "function"
				}
			],
			"devdoc": {
				"kind": "dev",
				"methods": {},
				"version": 1
			},
			"evm": {
				"assembly": "    /* \"solidityTasks-Web3Bridge/SweetPractice/Call.sol\":56:405  contract TestCall {... */\n  mstore(0x40, 0x80)\n  callvalue\n  dup1\n  iszero\n  tag_1\n  jumpi\n  0x00\n  dup1\n  revert\ntag_1:\n  pop\n  dataSize(sub_0)\n  dup1\n  dataOffset(sub_0)\n  0x00\n  codecopy\n  0x00\n  return\nstop\n\nsub_0: assembly {\n        /* \"solidityTasks-Web3Bridge/SweetPractice/Call.sol\":56:405  contract TestCall {... */\n      mstore(0x40, 0x80)\n      jumpi(tag_1, lt(calldatasize, 0x04))\n      shr(0xe0, calldataload(0x00))\n      dup1\n      0x0c55699c\n      eq\n      tag_3\n      jumpi\n      dup1\n      0x24ccab8f\n      eq\n      tag_4\n      jumpi\n      dup1\n      0xe21f37ce\n      eq\n      tag_5\n      jumpi\n      jump(tag_2)\n    tag_1:\n    tag_2:\n        /* \"solidityTasks-Web3Bridge/SweetPractice/Call.sol\":202:227  Log(\"FALLBACK WA CALLED\") */\n      0xcf34ef537ac33ee1ac626ca1587a0a7e8e51561e5514f8cb36afa1c5102b3bab\n      mload(0x40)\n      tag_8\n      swap1\n      tag_9\n      jump\t// in\n    tag_8:\n      mload(0x40)\n      dup1\n      swap2\n      sub\n      swap1\n      log1\n        /* \"solidityTasks-Web3Bridge/SweetPractice/Call.sol\":56:405  contract TestCall {... */\n      stop\n        /* \"solidityTasks-Web3Bridge/SweetPractice/Call.sol\":107:120  uint public x */\n    tag_3:\n      callvalue\n      dup1\n      iszero\n      tag_10\n      jumpi\n      0x00\n      dup1\n      revert\n    tag_10:\n      pop\n      tag_11\n      tag_12\n      jump\t// in\n    tag_11:\n      mload(0x40)\n      tag_13\n      swap2\n      swap1\n      tag_14\n      jump\t// in\n    tag_13:\n      mload(0x40)\n      dup1\n      swap2\n      sub\n      swap1\n      return\n        /* \"solidityTasks-Web3Bridge/SweetPractice/Call.sol\":240:403  function foo(string memory _message, uint _x) external payable returns (bool, uint) {... */\n    tag_4:\n      tag_15\n      0x04\n      dup1\n      calldatasize\n      sub\n      dup2\n      add\n      swap1\n      tag_16\n      swap2\n      swap1\n      tag_17\n      jump\t// in\n    tag_16:\n      tag_18\n      jump\t// in\n    tag_15:\n      mload(0x40)\n      tag_19\n      swap3\n      swap2\n      swap1\n      tag_20\n      jump\t// in\n    tag_19:\n      mload(0x40)\n      dup1\n      swap2\n      sub\n      swap1\n      return\n        /* \"solidityTasks-Web3Bridge/SweetPractice/Call.sol\":80:101  string public message */\n    tag_5:\n      callvalue\n      dup1\n      iszero\n      tag_21\n      jumpi\n      0x00\n      dup1\n      revert\n    tag_21:\n      pop\n      tag_22\n      tag_23\n      jump\t// in\n    tag_22:\n      mload(0x40)\n      tag_24\n      swap2\n      swap1\n      tag_25\n      jump\t// in\n    tag_24:\n      mload(0x40)\n      dup1\n      swap2\n      sub\n      swap1\n      return\n        /* \"solidityTasks-Web3Bridge/SweetPractice/Call.sol\":107:120  uint public x */\n    tag_12:\n      sload(0x01)\n      dup2\n      jump\t// out\n        /* \"solidityTasks-Web3Bridge/SweetPractice/Call.sol\":240:403  function foo(string memory _message, uint _x) external payable returns (bool, uint) {... */\n    tag_18:\n        /* \"solidityTasks-Web3Bridge/SweetPractice/Call.sol\":312:316  bool */\n      0x00\n        /* \"solidityTasks-Web3Bridge/SweetPractice/Call.sol\":318:322  uint */\n      dup1\n        /* \"solidityTasks-Web3Bridge/SweetPractice/Call.sol\":344:352  _message */\n      dup4\n        /* \"solidityTasks-Web3Bridge/SweetPractice/Call.sol\":334:341  message */\n      0x00\n        /* \"solidityTasks-Web3Bridge/SweetPractice/Call.sol\":334:352  message = _message */\n      swap1\n      dup2\n      tag_27\n      swap2\n      swap1\n      tag_28\n      jump\t// in\n    tag_27:\n      pop\n        /* \"solidityTasks-Web3Bridge/SweetPractice/Call.sol\":366:368  _x */\n      dup3\n        /* \"solidityTasks-Web3Bridge/SweetPractice/Call.sol\":362:363  x */\n      0x01\n        /* \"solidityTasks-Web3Bridge/SweetPractice/Call.sol\":362:368  x = _x */\n      dup2\n      swap1\n      sstore\n      pop\n        /* \"solidityTasks-Web3Bridge/SweetPractice/Call.sol\":386:390  true */\n      0x01\n        /* \"solidityTasks-Web3Bridge/SweetPractice/Call.sol\":392:395  222 */\n      0xde\n        /* \"solidityTasks-Web3Bridge/SweetPractice/Call.sol\":378:396  return (true, 222) */\n      swap2\n      pop\n      swap2\n      pop\n        /* \"solidityTasks-Web3Bridge/SweetPractice/Call.sol\":240:403  function foo(string memory _message, uint _x) external payable returns (bool, uint) {... */\n      swap3\n      pop\n      swap3\n      swap1\n      pop\n      jump\t// out\n        /* \"solidityTasks-Web3Bridge/SweetPractice/Call.sol\":80:101  string public message */\n    tag_23:\n      0x00\n      dup1\n      sload\n      tag_29\n      swap1\n      tag_30\n      jump\t// in\n    tag_29:\n      dup1\n      0x1f\n      add\n      0x20\n      dup1\n      swap2\n      div\n      mul\n      0x20\n      add\n      mload(0x40)\n      swap1\n      dup2\n      add\n      0x40\n      mstore\n      dup1\n      swap3\n      swap2\n      swap1\n      dup2\n      dup2\n      mstore\n      0x20\n      add\n      dup3\n      dup1\n      sload\n      tag_31\n      swap1\n      tag_30\n      jump\t// in\n    tag_31:\n      dup1\n      iszero\n      tag_32\n      jumpi\n      dup1\n      0x1f\n      lt\n      tag_33\n      jumpi\n      0x0100\n      dup1\n      dup4\n      sload\n      div\n      mul\n      dup4\n      mstore\n      swap2\n      0x20\n      add\n      swap2\n      jump(tag_32)\n    tag_33:\n      dup3\n      add\n      swap2\n      swap1\n      0x00\n      mstore\n      keccak256(0x00, 0x20)\n      swap1\n    tag_34:\n      dup2\n      sload\n      dup2\n      mstore\n      swap1\n      0x01\n      add\n      swap1\n      0x20\n      add\n      dup1\n      dup4\n      gt\n      tag_34\n      jumpi\n      dup3\n      swap1\n      sub\n      0x1f\n      and\n      dup3\n      add\n      swap2\n    tag_32:\n      pop\n      pop\n      pop\n      pop\n      pop\n      dup2\n      jump\t// out\n        /* \"#utility.yul\":7:176   */\n    tag_35:\n        /* \"#utility.yul\":91:102   */\n      0x00\n        /* \"#utility.yul\":125:131   */\n      dup3\n        /* \"#utility.yul\":120:123   */\n      dup3\n        /* \"#utility.yul\":113:132   */\n      mstore\n        /* \"#utility.yul\":165:169   */\n      0x20\n        /* \"#utility.yul\":160:163   */\n      dup3\n        /* \"#utility.yul\":156:170   */\n      add\n        /* \"#utility.yul\":141:170   */\n      swap1\n      pop\n        /* \"#utility.yul\":7:176   */\n      swap3\n      swap2\n      pop\n      pop\n      jump\t// out\n        /* \"#utility.yul\":182:350   */\n    tag_36:\n        /* \"#utility.yul\":322:342   */\n      0x46414c4c4241434b2057412043414c4c45440000000000000000000000000000\n        /* \"#utility.yul\":318:319   */\n      0x00\n        /* \"#utility.yul\":310:316   */\n      dup3\n        /* \"#utility.yul\":306:320   */\n      add\n        /* \"#utility.yul\":299:343   */\n      mstore\n        /* \"#utility.yul\":182:350   */\n      pop\n      jump\t// out\n        /* \"#utility.yul\":356:722   */\n    tag_37:\n        /* \"#utility.yul\":498:501   */\n      0x00\n        /* \"#utility.yul\":519:586   */\n      tag_80\n        /* \"#utility.yul\":583:585   */\n      0x12\n        /* \"#utility.yul\":578:581   */\n      dup4\n        /* \"#utility.yul\":519:586   */\n      tag_35\n      jump\t// in\n    tag_80:\n        /* \"#utility.yul\":512:586   */\n      swap2\n      pop\n        /* \"#utility.yul\":595:688   */\n      tag_81\n        /* \"#utility.yul\":684:687   */\n      dup3\n        /* \"#utility.yul\":595:688   */\n      tag_36\n      jump\t// in\n    tag_81:\n        /* \"#utility.yul\":713:715   */\n      0x20\n        /* \"#utility.yul\":708:711   */\n      dup3\n        /* \"#utility.yul\":704:716   */\n      add\n        /* \"#utility.yul\":697:716   */\n      swap1\n      pop\n        /* \"#utility.yul\":356:722   */\n      swap2\n      swap1\n      pop\n      jump\t// out\n        /* \"#utility.yul\":728:1147   */\n    tag_9:\n        /* \"#utility.yul\":894:898   */\n      0x00\n        /* \"#utility.yul\":932:934   */\n      0x20\n        /* \"#utility.yul\":921:930   */\n      dup3\n        /* \"#utility.yul\":917:935   */\n      add\n        /* \"#utility.yul\":909:935   */\n      swap1\n      pop\n        /* \"#utility.yul\":981:990   */\n      dup2\n        /* \"#utility.yul\":975:979   */\n      dup2\n        /* \"#utility.yul\":971:991   */\n      sub\n        /* \"#utility.yul\":967:968   */\n      0x00\n        /* \"#utility.yul\":956:965   */\n      dup4\n        /* \"#utility.yul\":952:969   */\n      add\n        /* \"#utility.yul\":945:992   */\n      mstore\n        /* \"#utility.yul\":1009:1140   */\n      tag_83\n        /* \"#utility.yul\":1135:1139   */\n      dup2\n        /* \"#utility.yul\":1009:1140   */\n      tag_37\n      jump\t// in\n    tag_83:\n        /* \"#utility.yul\":1001:1140   */\n      swap1\n      pop\n        /* \"#utility.yul\":728:1147   */\n      swap2\n      swap1\n      pop\n      jump\t// out\n        /* \"#utility.yul\":1153:1230   */\n    tag_38:\n        /* \"#utility.yul\":1190:1197   */\n      0x00\n        /* \"#utility.yul\":1219:1224   */\n      dup2\n        /* \"#utility.yul\":1208:1224   */\n      swap1\n      pop\n        /* \"#utility.yul\":1153:1230   */\n      swap2\n      swap1\n      pop\n      jump\t// out\n        /* \"#utility.yul\":1236:1354   */\n    tag_39:\n        /* \"#utility.yul\":1323:1347   */\n      tag_86\n        /* \"#utility.yul\":1341:1346   */\n      dup2\n        /* \"#utility.yul\":1323:1347   */\n      tag_38\n      jump\t// in\n    tag_86:\n        /* \"#utility.yul\":1318:1321   */\n      dup3\n        /* \"#utility.yul\":1311:1348   */\n      mstore\n        /* \"#utility.yul\":1236:1354   */\n      pop\n      pop\n      jump\t// out\n        /* \"#utility.yul\":1360:1582   */\n    tag_14:\n        /* \"#utility.yul\":1453:1457   */\n      0x00\n        /* \"#utility.yul\":1491:1493   */\n      0x20\n        /* \"#utility.yul\":1480:1489   */\n      dup3\n        /* \"#utility.yul\":1476:1494   */\n      add\n        /* \"#utility.yul\":1468:1494   */\n      swap1\n      pop\n        /* \"#utility.yul\":1504:1575   */\n      tag_88\n        /* \"#utility.yul\":1572:1573   */\n      0x00\n        /* \"#utility.yul\":1561:1570   */\n      dup4\n        /* \"#utility.yul\":1557:1574   */\n      add\n        /* \"#utility.yul\":1548:1554   */\n      dup5\n        /* \"#utility.yul\":1504:1575   */\n      tag_39\n      jump\t// in\n    tag_88:\n        /* \"#utility.yul\":1360:1582   */\n      swap3\n      swap2\n      pop\n      pop\n      jump\t// out\n        /* \"#utility.yul\":1588:1663   */\n    tag_40:\n        /* \"#utility.yul\":1621:1627   */\n      0x00\n        /* \"#utility.yul\":1654:1656   */\n      0x40\n        /* \"#utility.yul\":1648:1657   */\n      mload\n        /* \"#utility.yul\":1638:1657   */\n      swap1\n      pop\n        /* \"#utility.yul\":1588:1663   */\n      swap1\n      jump\t// out\n        /* \"#utility.yul\":1669:1786   */\n    tag_41:\n        /* \"#utility.yul\":1778:1779   */\n      0x00\n        /* \"#utility.yul\":1775:1776   */\n      dup1\n        /* \"#utility.yul\":1768:1780   */\n      revert\n        /* \"#utility.yul\":1792:1909   */\n    tag_42:\n        /* \"#utility.yul\":1901:1902   */\n      0x00\n        /* \"#utility.yul\":1898:1899   */\n      dup1\n        /* \"#utility.yul\":1891:1903   */\n      revert\n        /* \"#utility.yul\":1915:2032   */\n    tag_43:\n        /* \"#utility.yul\":2024:2025   */\n      0x00\n        /* \"#utility.yul\":2021:2022   */\n      dup1\n        /* \"#utility.yul\":2014:2026   */\n      revert\n        /* \"#utility.yul\":2038:2155   */\n    tag_44:\n        /* \"#utility.yul\":2147:2148   */\n      0x00\n        /* \"#utility.yul\":2144:2145   */\n      dup1\n        /* \"#utility.yul\":2137:2149   */\n      revert\n        /* \"#utility.yul\":2161:2263   */\n    tag_45:\n        /* \"#utility.yul\":2202:2208   */\n      0x00\n        /* \"#utility.yul\":2253:2255   */\n      0x1f\n        /* \"#utility.yul\":2249:2256   */\n      not\n        /* \"#utility.yul\":2244:2246   */\n      0x1f\n        /* \"#utility.yul\":2237:2242   */\n      dup4\n        /* \"#utility.yul\":2233:2247   */\n      add\n        /* \"#utility.yul\":2229:2257   */\n      and\n        /* \"#utility.yul\":2219:2257   */\n      swap1\n      pop\n        /* \"#utility.yul\":2161:2263   */\n      swap2\n      swap1\n      pop\n      jump\t// out\n        /* \"#utility.yul\":2269:2449   */\n    tag_46:\n        /* \"#utility.yul\":2317:2394   */\n      0x4e487b7100000000000000000000000000000000000000000000000000000000\n        /* \"#utility.yul\":2314:2315   */\n      0x00\n        /* \"#utility.yul\":2307:2395   */\n      mstore\n        /* \"#utility.yul\":2414:2418   */\n      0x41\n        /* \"#utility.yul\":2411:2412   */\n      0x04\n        /* \"#utility.yul\":2404:2419   */\n      mstore\n        /* \"#utility.yul\":2438:2442   */\n      0x24\n        /* \"#utility.yul\":2435:2436   */\n      0x00\n        /* \"#utility.yul\":2428:2443   */\n      revert\n        /* \"#utility.yul\":2455:2736   */\n    tag_47:\n        /* \"#utility.yul\":2538:2565   */\n      tag_97\n        /* \"#utility.yul\":2560:2564   */\n      dup3\n        /* \"#utility.yul\":2538:2565   */\n      tag_45\n      jump\t// in\n    tag_97:\n        /* \"#utility.yul\":2530:2536   */\n      dup2\n        /* \"#utility.yul\":2526:2566   */\n      add\n        /* \"#utility.yul\":2668:2674   */\n      dup2\n        /* \"#utility.yul\":2656:2666   */\n      dup2\n        /* \"#utility.yul\":2653:2675   */\n      lt\n        /* \"#utility.yul\":2632:2650   */\n      0xffffffffffffffff\n        /* \"#utility.yul\":2620:2630   */\n      dup3\n        /* \"#utility.yul\":2617:2651   */\n      gt\n        /* \"#utility.yul\":2614:2676   */\n      or\n        /* \"#utility.yul\":2611:2699   */\n      iszero\n      tag_98\n      jumpi\n        /* \"#utility.yul\":2679:2697   */\n      tag_99\n      tag_46\n      jump\t// in\n    tag_99:\n        /* \"#utility.yul\":2611:2699   */\n    tag_98:\n        /* \"#utility.yul\":2719:2729   */\n      dup1\n        /* \"#utility.yul\":2715:2717   */\n      0x40\n        /* \"#utility.yul\":2708:2730   */\n      mstore\n        /* \"#utility.yul\":2498:2736   */\n      pop\n        /* \"#utility.yul\":2455:2736   */\n      pop\n      pop\n      jump\t// out\n        /* \"#utility.yul\":2742:2871   */\n    tag_48:\n        /* \"#utility.yul\":2776:2782   */\n      0x00\n        /* \"#utility.yul\":2803:2823   */\n      tag_101\n      tag_40\n      jump\t// in\n    tag_101:\n        /* \"#utility.yul\":2793:2823   */\n      swap1\n      pop\n        /* \"#utility.yul\":2832:2865   */\n      tag_102\n        /* \"#utility.yul\":2860:2864   */\n      dup3\n        /* \"#utility.yul\":2852:2858   */\n      dup3\n        /* \"#utility.yul\":2832:2865   */\n      tag_47\n      jump\t// in\n    tag_102:\n        /* \"#utility.yul\":2742:2871   */\n      swap2\n      swap1\n      pop\n      jump\t// out\n        /* \"#utility.yul\":2877:3185   */\n    tag_49:\n        /* \"#utility.yul\":2939:2943   */\n      0x00\n        /* \"#utility.yul\":3029:3047   */\n      0xffffffffffffffff\n        /* \"#utility.yul\":3021:3027   */\n      dup3\n        /* \"#utility.yul\":3018:3048   */\n      gt\n        /* \"#utility.yul\":3015:3071   */\n      iszero\n      tag_104\n      jumpi\n        /* \"#utility.yul\":3051:3069   */\n      tag_105\n      tag_46\n      jump\t// in\n    tag_105:\n        /* \"#utility.yul\":3015:3071   */\n    tag_104:\n        /* \"#utility.yul\":3089:3118   */\n      tag_106\n        /* \"#utility.yul\":3111:3117   */\n      dup3\n        /* \"#utility.yul\":3089:3118   */\n      tag_45\n      jump\t// in\n    tag_106:\n        /* \"#utility.yul\":3081:3118   */\n      swap1\n      pop\n        /* \"#utility.yul\":3173:3177   */\n      0x20\n        /* \"#utility.yul\":3167:3171   */\n      dup2\n        /* \"#utility.yul\":3163:3178   */\n      add\n        /* \"#utility.yul\":3155:3178   */\n      swap1\n      pop\n        /* \"#utility.yul\":2877:3185   */\n      swap2\n      swap1\n      pop\n      jump\t// out\n        /* \"#utility.yul\":3191:3337   */\n    tag_50:\n        /* \"#utility.yul\":3288:3294   */\n      dup3\n        /* \"#utility.yul\":3283:3286   */\n      dup2\n        /* \"#utility.yul\":3278:3281   */\n      dup4\n        /* \"#utility.yul\":3265:3295   */\n      calldatacopy\n        /* \"#utility.yul\":3329:3330   */\n      0x00\n        /* \"#utility.yul\":3320:3326   */\n      dup4\n        /* \"#utility.yul\":3315:3318   */\n      dup4\n        /* \"#utility.yul\":3311:3327   */\n      add\n        /* \"#utility.yul\":3304:3331   */\n      mstore\n        /* \"#utility.yul\":3191:3337   */\n      pop\n      pop\n      pop\n      jump\t// out\n        /* \"#utility.yul\":3343:3768   */\n    tag_51:\n        /* \"#utility.yul\":3421:3426   */\n      0x00\n        /* \"#utility.yul\":3446:3512   */\n      tag_109\n        /* \"#utility.yul\":3462:3511   */\n      tag_110\n        /* \"#utility.yul\":3504:3510   */\n      dup5\n        /* \"#utility.yul\":3462:3511   */\n      tag_49\n      jump\t// in\n    tag_110:\n        /* \"#utility.yul\":3446:3512   */\n      tag_48\n      jump\t// in\n    tag_109:\n        /* \"#utility.yul\":3437:3512   */\n      swap1\n      pop\n        /* \"#utility.yul\":3535:3541   */\n      dup3\n        /* \"#utility.yul\":3528:3533   */\n      dup2\n        /* \"#utility.yul\":3521:3542   */\n      mstore\n        /* \"#utility.yul\":3573:3577   */\n      0x20\n        /* \"#utility.yul\":3566:3571   */\n      dup2\n        /* \"#utility.yul\":3562:3578   */\n      add\n        /* \"#utility.yul\":3611:3614   */\n      dup5\n        /* \"#utility.yul\":3602:3608   */\n      dup5\n        /* \"#utility.yul\":3597:3600   */\n      dup5\n        /* \"#utility.yul\":3593:3609   */\n      add\n        /* \"#utility.yul\":3590:3615   */\n      gt\n        /* \"#utility.yul\":3587:3699   */\n      iszero\n      tag_111\n      jumpi\n        /* \"#utility.yul\":3618:3697   */\n      tag_112\n      tag_44\n      jump\t// in\n    tag_112:\n        /* \"#utility.yul\":3587:3699   */\n    tag_111:\n        /* \"#utility.yul\":3708:3762   */\n      tag_113\n        /* \"#utility.yul\":3755:3761   */\n      dup5\n        /* \"#utility.yul\":3750:3753   */\n      dup3\n        /* \"#utility.yul\":3745:3748   */\n      dup6\n        /* \"#utility.yul\":3708:3762   */\n      tag_50\n      jump\t// in\n    tag_113:\n        /* \"#utility.yul\":3427:3768   */\n      pop\n        /* \"#utility.yul\":3343:3768   */\n      swap4\n      swap3\n      pop\n      pop\n      pop\n      jump\t// out\n        /* \"#utility.yul\":3788:4128   */\n    tag_52:\n        /* \"#utility.yul\":3844:3849   */\n      0x00\n        /* \"#utility.yul\":3893:3896   */\n      dup3\n        /* \"#utility.yul\":3886:3890   */\n      0x1f\n        /* \"#utility.yul\":3878:3884   */\n      dup4\n        /* \"#utility.yul\":3874:3891   */\n      add\n        /* \"#utility.yul\":3870:3897   */\n      slt\n        /* \"#utility.yul\":3860:3982   */\n      tag_115\n      jumpi\n        /* \"#utility.yul\":3901:3980   */\n      tag_116\n      tag_43\n      jump\t// in\n    tag_116:\n        /* \"#utility.yul\":3860:3982   */\n    tag_115:\n        /* \"#utility.yul\":4018:4024   */\n      dup2\n        /* \"#utility.yul\":4005:4025   */\n      calldataload\n        /* \"#utility.yul\":4043:4122   */\n      tag_117\n        /* \"#utility.yul\":4118:4121   */\n      dup5\n        /* \"#utility.yul\":4110:4116   */\n      dup3\n        /* \"#utility.yul\":4103:4107   */\n      0x20\n        /* \"#utility.yul\":4095:4101   */\n      dup7\n        /* \"#utility.yul\":4091:4108   */\n      add\n        /* \"#utility.yul\":4043:4122   */\n      tag_51\n      jump\t// in\n    tag_117:\n        /* \"#utility.yul\":4034:4122   */\n      swap2\n      pop\n        /* \"#utility.yul\":3850:4128   */\n      pop\n        /* \"#utility.yul\":3788:4128   */\n      swap3\n      swap2\n      pop\n      pop\n      jump\t// out\n        /* \"#utility.yul\":4134:4256   */\n    tag_53:\n        /* \"#utility.yul\":4207:4231   */\n      tag_119\n        /* \"#utility.yul\":4225:4230   */\n      dup2\n        /* \"#utility.yul\":4207:4231   */\n      tag_38\n      jump\t// in\n    tag_119:\n        /* \"#utility.yul\":4200:4205   */\n      dup2\n        /* \"#utility.yul\":4197:4232   */\n      eq\n        /* \"#utility.yul\":4187:4250   */\n      tag_120\n      jumpi\n        /* \"#utility.yul\":4246:4247   */\n      0x00\n        /* \"#utility.yul\":4243:4244   */\n      dup1\n        /* \"#utility.yul\":4236:4248   */\n      revert\n        /* \"#utility.yul\":4187:4250   */\n    tag_120:\n        /* \"#utility.yul\":4134:4256   */\n      pop\n      jump\t// out\n        /* \"#utility.yul\":4262:4401   */\n    tag_54:\n        /* \"#utility.yul\":4308:4313   */\n      0x00\n        /* \"#utility.yul\":4346:4352   */\n      dup2\n        /* \"#utility.yul\":4333:4353   */\n      calldataload\n        /* \"#utility.yul\":4324:4353   */\n      swap1\n      pop\n        /* \"#utility.yul\":4362:4395   */\n      tag_122\n        /* \"#utility.yul\":4389:4394   */\n      dup2\n        /* \"#utility.yul\":4362:4395   */\n      tag_53\n      jump\t// in\n    tag_122:\n        /* \"#utility.yul\":4262:4401   */\n      swap3\n      swap2\n      pop\n      pop\n      jump\t// out\n        /* \"#utility.yul\":4407:5061   */\n    tag_17:\n        /* \"#utility.yul\":4485:4491   */\n      0x00\n        /* \"#utility.yul\":4493:4499   */\n      dup1\n        /* \"#utility.yul\":4542:4544   */\n      0x40\n        /* \"#utility.yul\":4530:4539   */\n      dup4\n        /* \"#utility.yul\":4521:4528   */\n      dup6\n        /* \"#utility.yul\":4517:4540   */\n      sub\n        /* \"#utility.yul\":4513:4545   */\n      slt\n        /* \"#utility.yul\":4510:4629   */\n      iszero\n      tag_124\n      jumpi\n        /* \"#utility.yul\":4548:4627   */\n      tag_125\n      tag_41\n      jump\t// in\n    tag_125:\n        /* \"#utility.yul\":4510:4629   */\n    tag_124:\n        /* \"#utility.yul\":4696:4697   */\n      0x00\n        /* \"#utility.yul\":4685:4694   */\n      dup4\n        /* \"#utility.yul\":4681:4698   */\n      add\n        /* \"#utility.yul\":4668:4699   */\n      calldataload\n        /* \"#utility.yul\":4726:4744   */\n      0xffffffffffffffff\n        /* \"#utility.yul\":4718:4724   */\n      dup2\n        /* \"#utility.yul\":4715:4745   */\n      gt\n        /* \"#utility.yul\":4712:4829   */\n      iszero\n      tag_126\n      jumpi\n        /* \"#utility.yul\":4748:4827   */\n      tag_127\n      tag_42\n      jump\t// in\n    tag_127:\n        /* \"#utility.yul\":4712:4829   */\n    tag_126:\n        /* \"#utility.yul\":4853:4916   */\n      tag_128\n        /* \"#utility.yul\":4908:4915   */\n      dup6\n        /* \"#utility.yul\":4899:4905   */\n      dup3\n        /* \"#utility.yul\":4888:4897   */\n      dup7\n        /* \"#utility.yul\":4884:4906   */\n      add\n        /* \"#utility.yul\":4853:4916   */\n      tag_52\n      jump\t// in\n    tag_128:\n        /* \"#utility.yul\":4843:4916   */\n      swap3\n      pop\n        /* \"#utility.yul\":4639:4926   */\n      pop\n        /* \"#utility.yul\":4965:4967   */\n      0x20\n        /* \"#utility.yul\":4991:5044   */\n      tag_129\n        /* \"#utility.yul\":5036:5043   */\n      dup6\n        /* \"#utility.yul\":5027:5033   */\n      dup3\n        /* \"#utility.yul\":5016:5025   */\n      dup7\n        /* \"#utility.yul\":5012:5034   */\n      add\n        /* \"#utility.yul\":4991:5044   */\n      tag_54\n      jump\t// in\n    tag_129:\n        /* \"#utility.yul\":4981:5044   */\n      swap2\n      pop\n        /* \"#utility.yul\":4936:5054   */\n      pop\n        /* \"#utility.yul\":4407:5061   */\n      swap3\n      pop\n      swap3\n      swap1\n      pop\n      jump\t// out\n        /* \"#utility.yul\":5067:5157   */\n    tag_55:\n        /* \"#utility.yul\":5101:5108   */\n      0x00\n        /* \"#utility.yul\":5144:5149   */\n      dup2\n        /* \"#utility.yul\":5137:5150   */\n      iszero\n        /* \"#utility.yul\":5130:5151   */\n      iszero\n        /* \"#utility.yul\":5119:5151   */\n      swap1\n      pop\n        /* \"#utility.yul\":5067:5157   */\n      swap2\n      swap1\n      pop\n      jump\t// out\n        /* \"#utility.yul\":5163:5272   */\n    tag_56:\n        /* \"#utility.yul\":5244:5265   */\n      tag_132\n        /* \"#utility.yul\":5259:5264   */\n      dup2\n        /* \"#utility.yul\":5244:5265   */\n      tag_55\n      jump\t// in\n    tag_132:\n        /* \"#utility.yul\":5239:5242   */\n      dup3\n        /* \"#utility.yul\":5232:5266   */\n      mstore\n        /* \"#utility.yul\":5163:5272   */\n      pop\n      pop\n      jump\t// out\n        /* \"#utility.yul\":5278:5598   */\n    tag_20:\n        /* \"#utility.yul\":5393:5397   */\n      0x00\n        /* \"#utility.yul\":5431:5433   */\n      0x40\n        /* \"#utility.yul\":5420:5429   */\n      dup3\n        /* \"#utility.yul\":5416:5434   */\n      add\n        /* \"#utility.yul\":5408:5434   */\n      swap1\n      pop\n        /* \"#utility.yul\":5444:5509   */\n      tag_134\n        /* \"#utility.yul\":5506:5507   */\n      0x00\n        /* \"#utility.yul\":5495:5504   */\n      dup4\n        /* \"#utility.yul\":5491:5508   */\n      add\n        /* \"#utility.yul\":5482:5488   */\n      dup6\n        /* \"#utility.yul\":5444:5509   */\n      tag_56\n      jump\t// in\n    tag_134:\n        /* \"#utility.yul\":5519:5591   */\n      tag_135\n        /* \"#utility.yul\":5587:5589   */\n      0x20\n        /* \"#utility.yul\":5576:5585   */\n      dup4\n        /* \"#utility.yul\":5572:5590   */\n      add\n        /* \"#utility.yul\":5563:5569   */\n      dup5\n        /* \"#utility.yul\":5519:5591   */\n      tag_39\n      jump\t// in\n    tag_135:\n        /* \"#utility.yul\":5278:5598   */\n      swap4\n      swap3\n      pop\n      pop\n      pop\n      jump\t// out\n        /* \"#utility.yul\":5604:5703   */\n    tag_57:\n        /* \"#utility.yul\":5656:5662   */\n      0x00\n        /* \"#utility.yul\":5690:5695   */\n      dup2\n        /* \"#utility.yul\":5684:5696   */\n      mload\n        /* \"#utility.yul\":5674:5696   */\n      swap1\n      pop\n        /* \"#utility.yul\":5604:5703   */\n      swap2\n      swap1\n      pop\n      jump\t// out\n        /* \"#utility.yul\":5709:5955   */\n    tag_58:\n        /* \"#utility.yul\":5790:5791   */\n      0x00\n        /* \"#utility.yul\":5800:5913   */\n    tag_138:\n        /* \"#utility.yul\":5814:5820   */\n      dup4\n        /* \"#utility.yul\":5811:5812   */\n      dup2\n        /* \"#utility.yul\":5808:5821   */\n      lt\n        /* \"#utility.yul\":5800:5913   */\n      iszero\n      tag_140\n      jumpi\n        /* \"#utility.yul\":5899:5900   */\n      dup1\n        /* \"#utility.yul\":5894:5897   */\n      dup3\n        /* \"#utility.yul\":5890:5901   */\n      add\n        /* \"#utility.yul\":5884:5902   */\n      mload\n        /* \"#utility.yul\":5880:5881   */\n      dup2\n        /* \"#utility.yul\":5875:5878   */\n      dup5\n        /* \"#utility.yul\":5871:5882   */\n      add\n        /* \"#utility.yul\":5864:5903   */\n      mstore\n        /* \"#utility.yul\":5836:5838   */\n      0x20\n        /* \"#utility.yul\":5833:5834   */\n      dup2\n        /* \"#utility.yul\":5829:5839   */\n      add\n        /* \"#utility.yul\":5824:5839   */\n      swap1\n      pop\n        /* \"#utility.yul\":5800:5913   */\n      jump(tag_138)\n    tag_140:\n        /* \"#utility.yul\":5947:5948   */\n      0x00\n        /* \"#utility.yul\":5938:5944   */\n      dup5\n        /* \"#utility.yul\":5933:5936   */\n      dup5\n        /* \"#utility.yul\":5929:5945   */\n      add\n        /* \"#utility.yul\":5922:5949   */\n      mstore\n        /* \"#utility.yul\":5771:5955   */\n      pop\n        /* \"#utility.yul\":5709:5955   */\n      pop\n      pop\n      pop\n      jump\t// out\n        /* \"#utility.yul\":5961:6338   */\n    tag_59:\n        /* \"#utility.yul\":6049:6052   */\n      0x00\n        /* \"#utility.yul\":6077:6116   */\n      tag_142\n        /* \"#utility.yul\":6110:6115   */\n      dup3\n        /* \"#utility.yul\":6077:6116   */\n      tag_57\n      jump\t// in\n    tag_142:\n        /* \"#utility.yul\":6132:6203   */\n      tag_143\n        /* \"#utility.yul\":6196:6202   */\n      dup2\n        /* \"#utility.yul\":6191:6194   */\n      dup6\n        /* \"#utility.yul\":6132:6203   */\n      tag_35\n      jump\t// in\n    tag_143:\n        /* \"#utility.yul\":6125:6203   */\n      swap4\n      pop\n        /* \"#utility.yul\":6212:6277   */\n      tag_144\n        /* \"#utility.yul\":6270:6276   */\n      dup2\n        /* \"#utility.yul\":6265:6268   */\n      dup6\n        /* \"#utility.yul\":6258:6262   */\n      0x20\n        /* \"#utility.yul\":6251:6256   */\n      dup7\n        /* \"#utility.yul\":6247:6263   */\n      add\n        /* \"#utility.yul\":6212:6277   */\n      tag_58\n      jump\t// in\n    tag_144:\n        /* \"#utility.yul\":6302:6331   */\n      tag_145\n        /* \"#utility.yul\":6324:6330   */\n      dup2\n        /* \"#utility.yul\":6302:6331   */\n      tag_45\n      jump\t// in\n    tag_145:\n        /* \"#utility.yul\":6297:6300   */\n      dup5\n        /* \"#utility.yul\":6293:6332   */\n      add\n        /* \"#utility.yul\":6286:6332   */\n      swap2\n      pop\n        /* \"#utility.yul\":6053:6338   */\n      pop\n        /* \"#utility.yul\":5961:6338   */\n      swap3\n      swap2\n      pop\n      pop\n      jump\t// out\n        /* \"#utility.yul\":6344:6657   */\n    tag_25:\n        /* \"#utility.yul\":6457:6461   */\n      0x00\n        /* \"#utility.yul\":6495:6497   */\n      0x20\n        /* \"#utility.yul\":6484:6493   */\n      dup3\n        /* \"#utility.yul\":6480:6498   */\n      add\n        /* \"#utility.yul\":6472:6498   */\n      swap1\n      pop\n        /* \"#utility.yul\":6544:6553   */\n      dup2\n        /* \"#utility.yul\":6538:6542   */\n      dup2\n        /* \"#utility.yul\":6534:6554   */\n      sub\n        /* \"#utility.yul\":6530:6531   */\n      0x00\n        /* \"#utility.yul\":6519:6528   */\n      dup4\n        /* \"#utility.yul\":6515:6532   */\n      add\n        /* \"#utility.yul\":6508:6555   */\n      mstore\n        /* \"#utility.yul\":6572:6650   */\n      tag_147\n        /* \"#utility.yul\":6645:6649   */\n      dup2\n        /* \"#utility.yul\":6636:6642   */\n      dup5\n        /* \"#utility.yul\":6572:6650   */\n      tag_59\n      jump\t// in\n    tag_147:\n        /* \"#utility.yul\":6564:6650   */\n      swap1\n      pop\n        /* \"#utility.yul\":6344:6657   */\n      swap3\n      swap2\n      pop\n      pop\n      jump\t// out\n        /* \"#utility.yul\":6663:6843   */\n    tag_60:\n        /* \"#utility.yul\":6711:6788   */\n      0x4e487b7100000000000000000000000000000000000000000000000000000000\n        /* \"#utility.yul\":6708:6709   */\n      0x00\n        /* \"#utility.yul\":6701:6789   */\n      mstore\n        /* \"#utility.yul\":6808:6812   */\n      0x22\n        /* \"#utility.yul\":6805:6806   */\n      0x04\n        /* \"#utility.yul\":6798:6813   */\n      mstore\n        /* \"#utility.yul\":6832:6836   */\n      0x24\n        /* \"#utility.yul\":6829:6830   */\n      0x00\n        /* \"#utility.yul\":6822:6837   */\n      revert\n        /* \"#utility.yul\":6849:7169   */\n    tag_30:\n        /* \"#utility.yul\":6893:6899   */\n      0x00\n        /* \"#utility.yul\":6930:6931   */\n      0x02\n        /* \"#utility.yul\":6924:6928   */\n      dup3\n        /* \"#utility.yul\":6920:6932   */\n      div\n        /* \"#utility.yul\":6910:6932   */\n      swap1\n      pop\n        /* \"#utility.yul\":6977:6978   */\n      0x01\n        /* \"#utility.yul\":6971:6975   */\n      dup3\n        /* \"#utility.yul\":6967:6979   */\n      and\n        /* \"#utility.yul\":6998:7016   */\n      dup1\n        /* \"#utility.yul\":6988:7069   */\n      tag_150\n      jumpi\n        /* \"#utility.yul\":7054:7058   */\n      0x7f\n        /* \"#utility.yul\":7046:7052   */\n      dup3\n        /* \"#utility.yul\":7042:7059   */\n      and\n        /* \"#utility.yul\":7032:7059   */\n      swap2\n      pop\n        /* \"#utility.yul\":6988:7069   */\n    tag_150:\n        /* \"#utility.yul\":7116:7118   */\n      0x20\n        /* \"#utility.yul\":7108:7114   */\n      dup3\n        /* \"#utility.yul\":7105:7119   */\n      lt\n        /* \"#utility.yul\":7085:7103   */\n      dup2\n        /* \"#utility.yul\":7082:7120   */\n      sub\n        /* \"#utility.yul\":7079:7163   */\n      tag_151\n      jumpi\n        /* \"#utility.yul\":7135:7153   */\n      tag_152\n      tag_60\n      jump\t// in\n    tag_152:\n        /* \"#utility.yul\":7079:7163   */\n    tag_151:\n        /* \"#utility.yul\":6900:7169   */\n      pop\n        /* \"#utility.yul\":6849:7169   */\n      swap2\n      swap1\n      pop\n      jump\t// out\n        /* \"#utility.yul\":7175:7316   */\n    tag_61:\n        /* \"#utility.yul\":7224:7228   */\n      0x00\n        /* \"#utility.yul\":7247:7250   */\n      dup2\n        /* \"#utility.yul\":7239:7250   */\n      swap1\n      pop\n        /* \"#utility.yul\":7270:7273   */\n      dup2\n        /* \"#utility.yul\":7267:7268   */\n      0x00\n        /* \"#utility.yul\":7260:7274   */\n      mstore\n        /* \"#utility.yul\":7304:7308   */\n      0x20\n        /* \"#utility.yul\":7301:7302   */\n      0x00\n        /* \"#utility.yul\":7291:7309   */\n      keccak256\n        /* \"#utility.yul\":7283:7309   */\n      swap1\n      pop\n        /* \"#utility.yul\":7175:7316   */\n      swap2\n      swap1\n      pop\n      jump\t// out\n        /* \"#utility.yul\":7322:7415   */\n    tag_62:\n        /* \"#utility.yul\":7359:7365   */\n      0x00\n        /* \"#utility.yul\":7406:7408   */\n      0x20\n        /* \"#utility.yul\":7401:7403   */\n      0x1f\n        /* \"#utility.yul\":7394:7399   */\n      dup4\n        /* \"#utility.yul\":7390:7404   */\n      add\n        /* \"#utility.yul\":7386:7409   */\n      div\n        /* \"#utility.yul\":7376:7409   */\n      swap1\n      pop\n        /* \"#utility.yul\":7322:7415   */\n      swap2\n      swap1\n      pop\n      jump\t// out\n        /* \"#utility.yul\":7421:7528   */\n    tag_63:\n        /* \"#utility.yul\":7465:7473   */\n      0x00\n        /* \"#utility.yul\":7515:7520   */\n      dup3\n        /* \"#utility.yul\":7509:7513   */\n      dup3\n        /* \"#utility.yul\":7505:7521   */\n      shl\n        /* \"#utility.yul\":7484:7521   */\n      swap1\n      pop\n        /* \"#utility.yul\":7421:7528   */\n      swap3\n      swap2\n      pop\n      pop\n      jump\t// out\n        /* \"#utility.yul\":7534:7927   */\n    tag_64:\n        /* \"#utility.yul\":7603:7609   */\n      0x00\n        /* \"#utility.yul\":7653:7654   */\n      0x08\n        /* \"#utility.yul\":7641:7651   */\n      dup4\n        /* \"#utility.yul\":7637:7655   */\n      mul\n        /* \"#utility.yul\":7676:7773   */\n      tag_157\n        /* \"#utility.yul\":7706:7772   */\n      0xffffffffffffffffffffffffffffffffffffffffffffffffffffffffffffffff\n        /* \"#utility.yul\":7695:7704   */\n      dup3\n        /* \"#utility.yul\":7676:7773   */\n      tag_63\n      jump\t// in\n    tag_157:\n        /* \"#utility.yul\":7794:7833   */\n      tag_158\n        /* \"#utility.yul\":7824:7832   */\n      dup7\n        /* \"#utility.yul\":7813:7822   */\n      dup4\n        /* \"#utility.yul\":7794:7833   */\n      tag_63\n      jump\t// in\n    tag_158:\n        /* \"#utility.yul\":7782:7833   */\n      swap6\n      pop\n        /* \"#utility.yul\":7866:7870   */\n      dup1\n        /* \"#utility.yul\":7862:7871   */\n      not\n        /* \"#utility.yul\":7855:7860   */\n      dup5\n        /* \"#utility.yul\":7851:7872   */\n      and\n        /* \"#utility.yul\":7842:7872   */\n      swap4\n      pop\n        /* \"#utility.yul\":7915:7919   */\n      dup1\n        /* \"#utility.yul\":7905:7913   */\n      dup7\n        /* \"#utility.yul\":7901:7920   */\n      and\n        /* \"#utility.yul\":7894:7899   */\n      dup5\n        /* \"#utility.yul\":7891:7921   */\n      or\n        /* \"#utility.yul\":7881:7921   */\n      swap3\n      pop\n        /* \"#utility.yul\":7610:7927   */\n      pop\n      pop\n        /* \"#utility.yul\":7534:7927   */\n      swap4\n      swap3\n      pop\n      pop\n      pop\n      jump\t// out\n        /* \"#utility.yul\":7933:7993   */\n    tag_65:\n        /* \"#utility.yul\":7961:7964   */\n      0x00\n        /* \"#utility.yul\":7982:7987   */\n      dup2\n        /* \"#utility.yul\":7975:7987   */\n      swap1\n      pop\n        /* \"#utility.yul\":7933:7993   */\n      swap2\n      swap1\n      pop\n      jump\t// out\n        /* \"#utility.yul\":7999:8141   */\n    tag_66:\n        /* \"#utility.yul\":8049:8058   */\n      0x00\n        /* \"#utility.yul\":8082:8135   */\n      tag_161\n        /* \"#utility.yul\":8100:8134   */\n      tag_162\n        /* \"#utility.yul\":8109:8133   */\n      tag_163\n        /* \"#utility.yul\":8127:8132   */\n      dup5\n        /* \"#utility.yul\":8109:8133   */\n      tag_38\n      jump\t// in\n    tag_163:\n        /* \"#utility.yul\":8100:8134   */\n      tag_65\n      jump\t// in\n    tag_162:\n        /* \"#utility.yul\":8082:8135   */\n      tag_38\n      jump\t// in\n    tag_161:\n        /* \"#utility.yul\":8069:8135   */\n      swap1\n      pop\n        /* \"#utility.yul\":7999:8141   */\n      swap2\n      swap1\n      pop\n      jump\t// out\n        /* \"#utility.yul\":8147:8222   */\n    tag_67:\n        /* \"#utility.yul\":8190:8193   */\n      0x00\n        /* \"#utility.yul\":8211:8216   */\n      dup2\n        /* \"#utility.yul\":8204:8216   */\n      swap1\n      pop\n        /* \"#utility.yul\":8147:8222   */\n      swap2\n      swap1\n      pop\n      jump\t// out\n        /* \"#utility.yul\":8228:8497   */\n    tag_68:\n        /* \"#utility.yul\":8338:8377   */\n      tag_166\n        /* \"#utility.yul\":8369:8376   */\n      dup4\n        /* \"#utility.yul\":8338:8377   */\n      tag_66\n      jump\t// in\n    tag_166:\n        /* \"#utility.yul\":8399:8490   */\n      tag_167\n        /* \"#utility.yul\":8448:8489   */\n      tag_168\n        /* \"#utility.yul\":8472:8488   */\n      dup3\n        /* \"#utility.yul\":8448:8489   */\n      tag_67\n      jump\t// in\n    tag_168:\n        /* \"#utility.yul\":8440:8446   */\n      dup5\n        /* \"#utility.yul\":8433:8437   */\n      dup5\n        /* \"#utility.yul\":8427:8438   */\n      sload\n        /* \"#utility.yul\":8399:8490   */\n      tag_64\n      jump\t// in\n    tag_167:\n        /* \"#utility.yul\":8393:8397   */\n      dup3\n        /* \"#utility.yul\":8386:8491   */\n      sstore\n        /* \"#utility.yul\":8304:8497   */\n      pop\n        /* \"#utility.yul\":8228:8497   */\n      pop\n      pop\n      pop\n      jump\t// out\n        /* \"#utility.yul\":8503:8576   */\n    tag_69:\n        /* \"#utility.yul\":8548:8551   */\n      0x00\n        /* \"#utility.yul\":8503:8576   */\n      swap1\n      jump\t// out\n        /* \"#utility.yul\":8582:8771   */\n    tag_70:\n        /* \"#utility.yul\":8659:8691   */\n      tag_171\n      tag_69\n      jump\t// in\n    tag_171:\n        /* \"#utility.yul\":8700:8765   */\n      tag_172\n        /* \"#utility.yul\":8758:8764   */\n      dup2\n        /* \"#utility.yul\":8750:8756   */\n      dup5\n        /* \"#utility.yul\":8744:8748   */\n      dup5\n        /* \"#utility.yul\":8700:8765   */\n      tag_68\n      jump\t// in\n    tag_172:\n        /* \"#utility.yul\":8635:8771   */\n      pop\n        /* \"#utility.yul\":8582:8771   */\n      pop\n      pop\n      jump\t// out\n        /* \"#utility.yul\":8777:8963   */\n    tag_71:\n        /* \"#utility.yul\":8837:8957   */\n    tag_174:\n        /* \"#utility.yul\":8854:8857   */\n      dup2\n        /* \"#utility.yul\":8847:8852   */\n      dup2\n        /* \"#utility.yul\":8844:8858   */\n      lt\n        /* \"#utility.yul\":8837:8957   */\n      iszero\n      tag_176\n      jumpi\n        /* \"#utility.yul\":8908:8947   */\n      tag_177\n        /* \"#utility.yul\":8945:8946   */\n      0x00\n        /* \"#utility.yul\":8938:8943   */\n      dup3\n        /* \"#utility.yul\":8908:8947   */\n      tag_70\n      jump\t// in\n    tag_177:\n        /* \"#utility.yul\":8881:8882   */\n      0x01\n        /* \"#utility.yul\":8874:8879   */\n      dup2\n        /* \"#utility.yul\":8870:8883   */\n      add\n        /* \"#utility.yul\":8861:8883   */\n      swap1\n      pop\n        /* \"#utility.yul\":8837:8957   */\n      jump(tag_174)\n    tag_176:\n        /* \"#utility.yul\":8777:8963   */\n      pop\n      pop\n      jump\t// out\n        /* \"#utility.yul\":8969:9512   */\n    tag_72:\n        /* \"#utility.yul\":9070:9072   */\n      0x1f\n        /* \"#utility.yul\":9065:9068   */\n      dup3\n        /* \"#utility.yul\":9062:9073   */\n      gt\n        /* \"#utility.yul\":9059:9505   */\n      iszero\n      tag_179\n      jumpi\n        /* \"#utility.yul\":9104:9142   */\n      tag_180\n        /* \"#utility.yul\":9136:9141   */\n      dup2\n        /* \"#utility.yul\":9104:9142   */\n      tag_61\n      jump\t// in\n    tag_180:\n        /* \"#utility.yul\":9188:9217   */\n      tag_181\n        /* \"#utility.yul\":9206:9216   */\n      dup5\n        /* \"#utility.yul\":9188:9217   */\n      tag_62\n      jump\t// in\n    tag_181:\n        /* \"#utility.yul\":9178:9186   */\n      dup2\n        /* \"#utility.yul\":9174:9218   */\n      add\n        /* \"#utility.yul\":9371:9373   */\n      0x20\n        /* \"#utility.yul\":9359:9369   */\n      dup6\n        /* \"#utility.yul\":9356:9374   */\n      lt\n        /* \"#utility.yul\":9353:9402   */\n      iszero\n      tag_182\n      jumpi\n        /* \"#utility.yul\":9392:9400   */\n      dup2\n        /* \"#utility.yul\":9377:9400   */\n      swap1\n      pop\n        /* \"#utility.yul\":9353:9402   */\n    tag_182:\n        /* \"#utility.yul\":9415:9495   */\n      tag_183\n        /* \"#utility.yul\":9471:9493   */\n      tag_184\n        /* \"#utility.yul\":9489:9492   */\n      dup6\n        /* \"#utility.yul\":9471:9493   */\n      tag_62\n      jump\t// in\n    tag_184:\n        /* \"#utility.yul\":9461:9469   */\n      dup4\n        /* \"#utility.yul\":9457:9494   */\n      add\n        /* \"#utility.yul\":9444:9455   */\n      dup3\n        /* \"#utility.yul\":9415:9495   */\n      tag_71\n      jump\t// in\n    tag_183:\n        /* \"#utility.yul\":9074:9505   */\n      pop\n      pop\n        /* \"#utility.yul\":9059:9505   */\n    tag_179:\n        /* \"#utility.yul\":8969:9512   */\n      pop\n      pop\n      pop\n      jump\t// out\n        /* \"#utility.yul\":9518:9635   */\n    tag_73:\n        /* \"#utility.yul\":9572:9580   */\n      0x00\n        /* \"#utility.yul\":9622:9627   */\n      dup3\n        /* \"#utility.yul\":9616:9620   */\n      dup3\n        /* \"#utility.yul\":9612:9628   */\n      shr\n        /* \"#utility.yul\":9591:9628   */\n      swap1\n      pop\n        /* \"#utility.yul\":9518:9635   */\n      swap3\n      swap2\n      pop\n      pop\n      jump\t// out\n        /* \"#utility.yul\":9641:9810   */\n    tag_74:\n        /* \"#utility.yul\":9685:9691   */\n      0x00\n        /* \"#utility.yul\":9718:9769   */\n      tag_187\n        /* \"#utility.yul\":9766:9767   */\n      0x00\n        /* \"#utility.yul\":9762:9768   */\n      not\n        /* \"#utility.yul\":9754:9759   */\n      dup5\n        /* \"#utility.yul\":9751:9752   */\n      0x08\n        /* \"#utility.yul\":9747:9760   */\n      mul\n        /* \"#utility.yul\":9718:9769   */\n      tag_73\n      jump\t// in\n    tag_187:\n        /* \"#utility.yul\":9714:9770   */\n      not\n        /* \"#utility.yul\":9799:9803   */\n      dup1\n        /* \"#utility.yul\":9793:9797   */\n      dup4\n        /* \"#utility.yul\":9789:9804   */\n      and\n        /* \"#utility.yul\":9779:9804   */\n      swap2\n      pop\n        /* \"#utility.yul\":9692:9810   */\n      pop\n        /* \"#utility.yul\":9641:9810   */\n      swap3\n      swap2\n      pop\n      pop\n      jump\t// out\n        /* \"#utility.yul\":9815:10110   */\n    tag_75:\n        /* \"#utility.yul\":9891:9895   */\n      0x00\n        /* \"#utility.yul\":10037:10066   */\n      tag_189\n        /* \"#utility.yul\":10062:10065   */\n      dup4\n        /* \"#utility.yul\":10056:10060   */\n      dup4\n        /* \"#utility.yul\":10037:10066   */\n      tag_74\n      jump\t// in\n    tag_189:\n        /* \"#utility.yul\":10029:10066   */\n      swap2\n      pop\n        /* \"#utility.yul\":10099:10102   */\n      dup3\n        /* \"#utility.yul\":10096:10097   */\n      0x02\n        /* \"#utility.yul\":10092:10103   */\n      mul\n        /* \"#utility.yul\":10086:10090   */\n      dup3\n        /* \"#utility.yul\":10083:10104   */\n      or\n        /* \"#utility.yul\":10075:10104   */\n      swap1\n      pop\n        /* \"#utility.yul\":9815:10110   */\n      swap3\n      swap2\n      pop\n      pop\n      jump\t// out\n        /* \"#utility.yul\":10115:11510   */\n    tag_28:\n        /* \"#utility.yul\":10232:10269   */\n      tag_191\n        /* \"#utility.yul\":10265:10268   */\n      dup3\n        /* \"#utility.yul\":10232:10269   */\n      tag_57\n      jump\t// in\n    tag_191:\n        /* \"#utility.yul\":10334:10352   */\n      0xffffffffffffffff\n        /* \"#utility.yul\":10326:10332   */\n      dup2\n        /* \"#utility.yul\":10323:10353   */\n      gt\n        /* \"#utility.yul\":10320:10376   */\n      iszero\n      tag_192\n      jumpi\n        /* \"#utility.yul\":10356:10374   */\n      tag_193\n      tag_46\n      jump\t// in\n    tag_193:\n        /* \"#utility.yul\":10320:10376   */\n    tag_192:\n        /* \"#utility.yul\":10400:10438   */\n      tag_194\n        /* \"#utility.yul\":10432:10436   */\n      dup3\n        /* \"#utility.yul\":10426:10437   */\n      sload\n        /* \"#utility.yul\":10400:10438   */\n      tag_30\n      jump\t// in\n    tag_194:\n        /* \"#utility.yul\":10485:10552   */\n      tag_195\n        /* \"#utility.yul\":10545:10551   */\n      dup3\n        /* \"#utility.yul\":10537:10543   */\n      dup3\n        /* \"#utility.yul\":10531:10535   */\n      dup6\n        /* \"#utility.yul\":10485:10552   */\n      tag_72\n      jump\t// in\n    tag_195:\n        /* \"#utility.yul\":10579:10580   */\n      0x00\n        /* \"#utility.yul\":10603:10607   */\n      0x20\n        /* \"#utility.yul\":10590:10607   */\n      swap1\n      pop\n        /* \"#utility.yul\":10635:10637   */\n      0x1f\n        /* \"#utility.yul\":10627:10633   */\n      dup4\n        /* \"#utility.yul\":10624:10638   */\n      gt\n        /* \"#utility.yul\":10652:10653   */\n      0x01\n        /* \"#utility.yul\":10647:11265   */\n      dup2\n      eq\n      tag_197\n      jumpi\n        /* \"#utility.yul\":11309:11310   */\n      0x00\n        /* \"#utility.yul\":11326:11332   */\n      dup5\n        /* \"#utility.yul\":11323:11400   */\n      iszero\n      tag_198\n      jumpi\n        /* \"#utility.yul\":11375:11384   */\n      dup3\n        /* \"#utility.yul\":11370:11373   */\n      dup8\n        /* \"#utility.yul\":11366:11385   */\n      add\n        /* \"#utility.yul\":11360:11386   */\n      mload\n        /* \"#utility.yul\":11351:11386   */\n      swap1\n      pop\n        /* \"#utility.yul\":11323:11400   */\n    tag_198:\n        /* \"#utility.yul\":11426:11493   */\n      tag_199\n        /* \"#utility.yul\":11486:11492   */\n      dup6\n        /* \"#utility.yul\":11479:11484   */\n      dup3\n        /* \"#utility.yul\":11426:11493   */\n      tag_75\n      jump\t// in\n    tag_199:\n        /* \"#utility.yul\":11420:11424   */\n      dup7\n        /* \"#utility.yul\":11413:11494   */\n      sstore\n        /* \"#utility.yul\":11282:11504   */\n      pop\n        /* \"#utility.yul\":10617:11504   */\n      jump(tag_196)\n        /* \"#utility.yul\":10647:11265   */\n    tag_197:\n        /* \"#utility.yul\":10699:10703   */\n      0x1f\n        /* \"#utility.yul\":10695:10704   */\n      not\n        /* \"#utility.yul\":10687:10693   */\n      dup5\n        /* \"#utility.yul\":10683:10705   */\n      and\n        /* \"#utility.yul\":10733:10770   */\n      tag_200\n        /* \"#utility.yul\":10765:10769   */\n      dup7\n        /* \"#utility.yul\":10733:10770   */\n      tag_61\n      jump\t// in\n    tag_200:\n        /* \"#utility.yul\":10792:10793   */\n      0x00\n        /* \"#utility.yul\":10806:11014   */\n    tag_201:\n        /* \"#utility.yul\":10820:10827   */\n      dup3\n        /* \"#utility.yul\":10817:10818   */\n      dup2\n        /* \"#utility.yul\":10814:10828   */\n      lt\n        /* \"#utility.yul\":10806:11014   */\n      iszero\n      tag_203\n      jumpi\n        /* \"#utility.yul\":10899:10908   */\n      dup5\n        /* \"#utility.yul\":10894:10897   */\n      dup10\n        /* \"#utility.yul\":10890:10909   */\n      add\n        /* \"#utility.yul\":10884:10910   */\n      mload\n        /* \"#utility.yul\":10876:10882   */\n      dup3\n        /* \"#utility.yul\":10869:10911   */\n      sstore\n        /* \"#utility.yul\":10950:10951   */\n      0x01\n        /* \"#utility.yul\":10942:10948   */\n      dup3\n        /* \"#utility.yul\":10938:10952   */\n      add\n        /* \"#utility.yul\":10928:10952   */\n      swap2\n      pop\n        /* \"#utility.yul\":10997:10999   */\n      0x20\n        /* \"#utility.yul\":10986:10995   */\n      dup6\n        /* \"#utility.yul\":10982:11000   */\n      add\n        /* \"#utility.yul\":10969:11000   */\n      swap5\n      pop\n        /* \"#utility.yul\":10843:10847   */\n      0x20\n        /* \"#utility.yul\":10840:10841   */\n      dup2\n        /* \"#utility.yul\":10836:10848   */\n      add\n        /* \"#utility.yul\":10831:10848   */\n      swap1\n      pop\n        /* \"#utility.yul\":10806:11014   */\n      jump(tag_201)\n    tag_203:\n        /* \"#utility.yul\":11042:11048   */\n      dup7\n        /* \"#utility.yul\":11033:11040   */\n      dup4\n        /* \"#utility.yul\":11030:11049   */\n      lt\n        /* \"#utility.yul\":11027:11206   */\n      iszero\n      tag_204\n      jumpi\n        /* \"#utility.yul\":11100:11109   */\n      dup5\n        /* \"#utility.yul\":11095:11098   */\n      dup10\n        /* \"#utility.yul\":11091:11110   */\n      add\n        /* \"#utility.yul\":11085:11111   */\n      mload\n        /* \"#utility.yul\":11143:11191   */\n      tag_205\n        /* \"#utility.yul\":11185:11189   */\n      0x1f\n        /* \"#utility.yul\":11177:11183   */\n      dup10\n        /* \"#utility.yul\":11173:11190   */\n      and\n        /* \"#utility.yul\":11162:11171   */\n      dup3\n        /* \"#utility.yul\":11143:11191   */\n      tag_74\n      jump\t// in\n    tag_205:\n        /* \"#utility.yul\":11135:11141   */\n      dup4\n        /* \"#utility.yul\":11128:11192   */\n      sstore\n        /* \"#utility.yul\":11050:11206   */\n      pop\n        /* \"#utility.yul\":11027:11206   */\n    tag_204:\n        /* \"#utility.yul\":11252:11253   */\n      0x01\n        /* \"#utility.yul\":11248:11249   */\n      0x02\n        /* \"#utility.yul\":11240:11246   */\n      dup9\n        /* \"#utility.yul\":11236:11250   */\n      mul\n        /* \"#utility.yul\":11232:11254   */\n      add\n        /* \"#utility.yul\":11226:11230   */\n      dup9\n        /* \"#utility.yul\":11219:11255   */\n      sstore\n        /* \"#utility.yul\":10654:11265   */\n      pop\n      pop\n      pop\n        /* \"#utility.yul\":10617:11504   */\n    tag_196:\n      pop\n        /* \"#utility.yul\":10207:11510   */\n      pop\n      pop\n      pop\n        /* \"#utility.yul\":10115:11510   */\n      pop\n      pop\n      jump\t// out\n\n    auxdata: 0xa2646970667358221220637ab2375f113f701e64d21807f7163531da488e18f68a50bd1c62dcfe4021b564736f6c63430008110033\n}\n",
				"bytecode": {
					"linkReferences": {},
					"object": "608060405234801561001057600080fd5b5061082f806100206000396000f3fe6080604052600436106100385760003560e01c80630c55699c1461007057806324ccab8f1461009b578063e21f37ce146100cc57610039565b5b7fcf34ef537ac33ee1ac626ca1587a0a7e8e51561e5514f8cb36afa1c5102b3bab60405161006690610211565b60405180910390a1005b34801561007c57600080fd5b506100856100f7565b604051610092919061024a565b60405180910390f35b6100b560048036038101906100b091906103eb565b6100fd565b6040516100c3929190610462565b60405180910390f35b3480156100d857600080fd5b506100e1610126565b6040516100ee91906104f9565b60405180910390f35b60015481565b600080836000908161010f9190610727565b5082600181905550600160de915091509250929050565b600080546101339061054a565b80601f016020809104026020016040519081016040528092919081815260200182805461015f9061054a565b80156101ac5780601f10610181576101008083540402835291602001916101ac565b820191906000526020600020905b81548152906001019060200180831161018f57829003601f168201915b505050505081565b600082825260208201905092915050565b7f46414c4c4241434b2057412043414c4c45440000000000000000000000000000600082015250565b60006101fb6012836101b4565b9150610206826101c5565b602082019050919050565b6000602082019050818103600083015261022a816101ee565b9050919050565b6000819050919050565b61024481610231565b82525050565b600060208201905061025f600083018461023b565b92915050565b6000604051905090565b600080fd5b600080fd5b600080fd5b600080fd5b6000601f19601f8301169050919050565b7f4e487b7100000000000000000000000000000000000000000000000000000000600052604160045260246000fd5b6102cc82610283565b810181811067ffffffffffffffff821117156102eb576102ea610294565b5b80604052505050565b60006102fe610265565b905061030a82826102c3565b919050565b600067ffffffffffffffff82111561032a57610329610294565b5b61033382610283565b9050602081019050919050565b82818337600083830152505050565b600061036261035d8461030f565b6102f4565b90508281526020810184848401111561037e5761037d61027e565b5b610389848285610340565b509392505050565b600082601f8301126103a6576103a5610279565b5b81356103b684826020860161034f565b91505092915050565b6103c881610231565b81146103d357600080fd5b50565b6000813590506103e5816103bf565b92915050565b600080604083850312156104025761040161026f565b5b600083013567ffffffffffffffff8111156104205761041f610274565b5b61042c85828601610391565b925050602061043d858286016103d6565b9150509250929050565b60008115159050919050565b61045c81610447565b82525050565b60006040820190506104776000830185610453565b610484602083018461023b565b9392505050565b600081519050919050565b60005b838110156104b4578082015181840152602081019050610499565b60008484015250505050565b60006104cb8261048b565b6104d581856101b4565b93506104e5818560208601610496565b6104ee81610283565b840191505092915050565b6000602082019050818103600083015261051381846104c0565b905092915050565b7f4e487b7100000000000000000000000000000000000000000000000000000000600052602260045260246000fd5b6000600282049050600182168061056257607f821691505b6020821081036105755761057461051b565b5b50919050565b60008190508160005260206000209050919050565b60006020601f8301049050919050565b600082821b905092915050565b6000600883026105dd7fffffffffffffffffffffffffffffffffffffffffffffffffffffffffffffffff826105a0565b6105e786836105a0565b95508019841693508086168417925050509392505050565b6000819050919050565b600061062461061f61061a84610231565b6105ff565b610231565b9050919050565b6000819050919050565b61063e83610609565b61065261064a8261062b565b8484546105ad565b825550505050565b600090565b61066761065a565b610672818484610635565b505050565b5b818110156106965761068b60008261065f565b600181019050610678565b5050565b601f8211156106db576106ac8161057b565b6106b584610590565b810160208510156106c4578190505b6106d86106d085610590565b830182610677565b50505b505050565b600082821c905092915050565b60006106fe600019846008026106e0565b1980831691505092915050565b600061071783836106ed565b9150826002028217905092915050565b6107308261048b565b67ffffffffffffffff81111561074957610748610294565b5b610753825461054a565b61075e82828561069a565b600060209050601f831160018114610791576000841561077f578287015190505b610789858261070b565b8655506107f1565b601f19841661079f8661057b565b60005b828110156107c7578489015182556001820191506020850194506020810190506107a2565b868310156107e457848901516107e0601f8916826106ed565b8355505b6001600288020188555050505b50505050505056fea2646970667358221220637ab2375f113f701e64d21807f7163531da488e18f68a50bd1c62dcfe4021b564736f6c63430008110033",
					"opcodes": "PUSH1 0x80 PUSH1 0x40 MSTORE CALLVALUE DUP1 ISZERO PUSH2 0x10 JUMPI PUSH1 0x0 DUP1 REVERT JUMPDEST POP PUSH2 0x82F DUP1 PUSH2 0x20 PUSH1 0x0 CODECOPY PUSH1 0x0 RETURN INVALID PUSH1 0x80 PUSH1 0x40 MSTORE PUSH1 0x4 CALLDATASIZE LT PUSH2 0x38 JUMPI PUSH1 0x0 CALLDATALOAD PUSH1 0xE0 SHR DUP1 PUSH4 0xC55699C EQ PUSH2 0x70 JUMPI DUP1 PUSH4 0x24CCAB8F EQ PUSH2 0x9B JUMPI DUP1 PUSH4 0xE21F37CE EQ PUSH2 0xCC JUMPI PUSH2 0x39 JUMP JUMPDEST JUMPDEST PUSH32 0xCF34EF537AC33EE1AC626CA1587A0A7E8E51561E5514F8CB36AFA1C5102B3BAB PUSH1 0x40 MLOAD PUSH2 0x66 SWAP1 PUSH2 0x211 JUMP JUMPDEST PUSH1 0x40 MLOAD DUP1 SWAP2 SUB SWAP1 LOG1 STOP JUMPDEST CALLVALUE DUP1 ISZERO PUSH2 0x7C JUMPI PUSH1 0x0 DUP1 REVERT JUMPDEST POP PUSH2 0x85 PUSH2 0xF7 JUMP JUMPDEST PUSH1 0x40 MLOAD PUSH2 0x92 SWAP2 SWAP1 PUSH2 0x24A JUMP JUMPDEST PUSH1 0x40 MLOAD DUP1 SWAP2 SUB SWAP1 RETURN JUMPDEST PUSH2 0xB5 PUSH1 0x4 DUP1 CALLDATASIZE SUB DUP2 ADD SWAP1 PUSH2 0xB0 SWAP2 SWAP1 PUSH2 0x3EB JUMP JUMPDEST PUSH2 0xFD JUMP JUMPDEST PUSH1 0x40 MLOAD PUSH2 0xC3 SWAP3 SWAP2 SWAP1 PUSH2 0x462 JUMP JUMPDEST PUSH1 0x40 MLOAD DUP1 SWAP2 SUB SWAP1 RETURN JUMPDEST CALLVALUE DUP1 ISZERO PUSH2 0xD8 JUMPI PUSH1 0x0 DUP1 REVERT JUMPDEST POP PUSH2 0xE1 PUSH2 0x126 JUMP JUMPDEST PUSH1 0x40 MLOAD PUSH2 0xEE SWAP2 SWAP1 PUSH2 0x4F9 JUMP JUMPDEST PUSH1 0x40 MLOAD DUP1 SWAP2 SUB SWAP1 RETURN JUMPDEST PUSH1 0x1 SLOAD DUP2 JUMP JUMPDEST PUSH1 0x0 DUP1 DUP4 PUSH1 0x0 SWAP1 DUP2 PUSH2 0x10F SWAP2 SWAP1 PUSH2 0x727 JUMP JUMPDEST POP DUP3 PUSH1 0x1 DUP2 SWAP1 SSTORE POP PUSH1 0x1 PUSH1 0xDE SWAP2 POP SWAP2 POP SWAP3 POP SWAP3 SWAP1 POP JUMP JUMPDEST PUSH1 0x0 DUP1 SLOAD PUSH2 0x133 SWAP1 PUSH2 0x54A JUMP JUMPDEST DUP1 PUSH1 0x1F ADD PUSH1 0x20 DUP1 SWAP2 DIV MUL PUSH1 0x20 ADD PUSH1 0x40 MLOAD SWAP1 DUP2 ADD PUSH1 0x40 MSTORE DUP1 SWAP3 SWAP2 SWAP1 DUP2 DUP2 MSTORE PUSH1 0x20 ADD DUP3 DUP1 SLOAD PUSH2 0x15F SWAP1 PUSH2 0x54A JUMP JUMPDEST DUP1 ISZERO PUSH2 0x1AC JUMPI DUP1 PUSH1 0x1F LT PUSH2 0x181 JUMPI PUSH2 0x100 DUP1 DUP4 SLOAD DIV MUL DUP4 MSTORE SWAP2 PUSH1 0x20 ADD SWAP2 PUSH2 0x1AC JUMP JUMPDEST DUP3 ADD SWAP2 SWAP1 PUSH1 0x0 MSTORE PUSH1 0x20 PUSH1 0x0 KECCAK256 SWAP1 JUMPDEST DUP2 SLOAD DUP2 MSTORE SWAP1 PUSH1 0x1 ADD SWAP1 PUSH1 0x20 ADD DUP1 DUP4 GT PUSH2 0x18F JUMPI DUP3 SWAP1 SUB PUSH1 0x1F AND DUP3 ADD SWAP2 JUMPDEST POP POP POP POP POP DUP2 JUMP JUMPDEST PUSH1 0x0 DUP3 DUP3 MSTORE PUSH1 0x20 DUP3 ADD SWAP1 POP SWAP3 SWAP2 POP POP JUMP JUMPDEST PUSH32 0x46414C4C4241434B2057412043414C4C45440000000000000000000000000000 PUSH1 0x0 DUP3 ADD MSTORE POP JUMP JUMPDEST PUSH1 0x0 PUSH2 0x1FB PUSH1 0x12 DUP4 PUSH2 0x1B4 JUMP JUMPDEST SWAP2 POP PUSH2 0x206 DUP3 PUSH2 0x1C5 JUMP JUMPDEST PUSH1 0x20 DUP3 ADD SWAP1 POP SWAP2 SWAP1 POP JUMP JUMPDEST PUSH1 0x0 PUSH1 0x20 DUP3 ADD SWAP1 POP DUP2 DUP2 SUB PUSH1 0x0 DUP4 ADD MSTORE PUSH2 0x22A DUP2 PUSH2 0x1EE JUMP JUMPDEST SWAP1 POP SWAP2 SWAP1 POP JUMP JUMPDEST PUSH1 0x0 DUP2 SWAP1 POP SWAP2 SWAP1 POP JUMP JUMPDEST PUSH2 0x244 DUP2 PUSH2 0x231 JUMP JUMPDEST DUP3 MSTORE POP POP JUMP JUMPDEST PUSH1 0x0 PUSH1 0x20 DUP3 ADD SWAP1 POP PUSH2 0x25F PUSH1 0x0 DUP4 ADD DUP5 PUSH2 0x23B JUMP JUMPDEST SWAP3 SWAP2 POP POP JUMP JUMPDEST PUSH1 0x0 PUSH1 0x40 MLOAD SWAP1 POP SWAP1 JUMP JUMPDEST PUSH1 0x0 DUP1 REVERT JUMPDEST PUSH1 0x0 DUP1 REVERT JUMPDEST PUSH1 0x0 DUP1 REVERT JUMPDEST PUSH1 0x0 DUP1 REVERT JUMPDEST PUSH1 0x0 PUSH1 0x1F NOT PUSH1 0x1F DUP4 ADD AND SWAP1 POP SWAP2 SWAP1 POP JUMP JUMPDEST PUSH32 0x4E487B7100000000000000000000000000000000000000000000000000000000 PUSH1 0x0 MSTORE PUSH1 0x41 PUSH1 0x4 MSTORE PUSH1 0x24 PUSH1 0x0 REVERT JUMPDEST PUSH2 0x2CC DUP3 PUSH2 0x283 JUMP JUMPDEST DUP2 ADD DUP2 DUP2 LT PUSH8 0xFFFFFFFFFFFFFFFF DUP3 GT OR ISZERO PUSH2 0x2EB JUMPI PUSH2 0x2EA PUSH2 0x294 JUMP JUMPDEST JUMPDEST DUP1 PUSH1 0x40 MSTORE POP POP POP JUMP JUMPDEST PUSH1 0x0 PUSH2 0x2FE PUSH2 0x265 JUMP JUMPDEST SWAP1 POP PUSH2 0x30A DUP3 DUP3 PUSH2 0x2C3 JUMP JUMPDEST SWAP2 SWAP1 POP JUMP JUMPDEST PUSH1 0x0 PUSH8 0xFFFFFFFFFFFFFFFF DUP3 GT ISZERO PUSH2 0x32A JUMPI PUSH2 0x329 PUSH2 0x294 JUMP JUMPDEST JUMPDEST PUSH2 0x333 DUP3 PUSH2 0x283 JUMP JUMPDEST SWAP1 POP PUSH1 0x20 DUP2 ADD SWAP1 POP SWAP2 SWAP1 POP JUMP JUMPDEST DUP3 DUP2 DUP4 CALLDATACOPY PUSH1 0x0 DUP4 DUP4 ADD MSTORE POP POP POP JUMP JUMPDEST PUSH1 0x0 PUSH2 0x362 PUSH2 0x35D DUP5 PUSH2 0x30F JUMP JUMPDEST PUSH2 0x2F4 JUMP JUMPDEST SWAP1 POP DUP3 DUP2 MSTORE PUSH1 0x20 DUP2 ADD DUP5 DUP5 DUP5 ADD GT ISZERO PUSH2 0x37E JUMPI PUSH2 0x37D PUSH2 0x27E JUMP JUMPDEST JUMPDEST PUSH2 0x389 DUP5 DUP3 DUP6 PUSH2 0x340 JUMP JUMPDEST POP SWAP4 SWAP3 POP POP POP JUMP JUMPDEST PUSH1 0x0 DUP3 PUSH1 0x1F DUP4 ADD SLT PUSH2 0x3A6 JUMPI PUSH2 0x3A5 PUSH2 0x279 JUMP JUMPDEST JUMPDEST DUP2 CALLDATALOAD PUSH2 0x3B6 DUP5 DUP3 PUSH1 0x20 DUP7 ADD PUSH2 0x34F JUMP JUMPDEST SWAP2 POP POP SWAP3 SWAP2 POP POP JUMP JUMPDEST PUSH2 0x3C8 DUP2 PUSH2 0x231 JUMP JUMPDEST DUP2 EQ PUSH2 0x3D3 JUMPI PUSH1 0x0 DUP1 REVERT JUMPDEST POP JUMP JUMPDEST PUSH1 0x0 DUP2 CALLDATALOAD SWAP1 POP PUSH2 0x3E5 DUP2 PUSH2 0x3BF JUMP JUMPDEST SWAP3 SWAP2 POP POP JUMP JUMPDEST PUSH1 0x0 DUP1 PUSH1 0x40 DUP4 DUP6 SUB SLT ISZERO PUSH2 0x402 JUMPI PUSH2 0x401 PUSH2 0x26F JUMP JUMPDEST JUMPDEST PUSH1 0x0 DUP4 ADD CALLDATALOAD PUSH8 0xFFFFFFFFFFFFFFFF DUP2 GT ISZERO PUSH2 0x420 JUMPI PUSH2 0x41F PUSH2 0x274 JUMP JUMPDEST JUMPDEST PUSH2 0x42C DUP6 DUP3 DUP7 ADD PUSH2 0x391 JUMP JUMPDEST SWAP3 POP POP PUSH1 0x20 PUSH2 0x43D DUP6 DUP3 DUP7 ADD PUSH2 0x3D6 JUMP JUMPDEST SWAP2 POP POP SWAP3 POP SWAP3 SWAP1 POP JUMP JUMPDEST PUSH1 0x0 DUP2 ISZERO ISZERO SWAP1 POP SWAP2 SWAP1 POP JUMP JUMPDEST PUSH2 0x45C DUP2 PUSH2 0x447 JUMP JUMPDEST DUP3 MSTORE POP POP JUMP JUMPDEST PUSH1 0x0 PUSH1 0x40 DUP3 ADD SWAP1 POP PUSH2 0x477 PUSH1 0x0 DUP4 ADD DUP6 PUSH2 0x453 JUMP JUMPDEST PUSH2 0x484 PUSH1 0x20 DUP4 ADD DUP5 PUSH2 0x23B JUMP JUMPDEST SWAP4 SWAP3 POP POP POP JUMP JUMPDEST PUSH1 0x0 DUP2 MLOAD SWAP1 POP SWAP2 SWAP1 POP JUMP JUMPDEST PUSH1 0x0 JUMPDEST DUP4 DUP2 LT ISZERO PUSH2 0x4B4 JUMPI DUP1 DUP3 ADD MLOAD DUP2 DUP5 ADD MSTORE PUSH1 0x20 DUP2 ADD SWAP1 POP PUSH2 0x499 JUMP JUMPDEST PUSH1 0x0 DUP5 DUP5 ADD MSTORE POP POP POP POP JUMP JUMPDEST PUSH1 0x0 PUSH2 0x4CB DUP3 PUSH2 0x48B JUMP JUMPDEST PUSH2 0x4D5 DUP2 DUP6 PUSH2 0x1B4 JUMP JUMPDEST SWAP4 POP PUSH2 0x4E5 DUP2 DUP6 PUSH1 0x20 DUP7 ADD PUSH2 0x496 JUMP JUMPDEST PUSH2 0x4EE DUP2 PUSH2 0x283 JUMP JUMPDEST DUP5 ADD SWAP2 POP POP SWAP3 SWAP2 POP POP JUMP JUMPDEST PUSH1 0x0 PUSH1 0x20 DUP3 ADD SWAP1 POP DUP2 DUP2 SUB PUSH1 0x0 DUP4 ADD MSTORE PUSH2 0x513 DUP2 DUP5 PUSH2 0x4C0 JUMP JUMPDEST SWAP1 POP SWAP3 SWAP2 POP POP JUMP JUMPDEST PUSH32 0x4E487B7100000000000000000000000000000000000000000000000000000000 PUSH1 0x0 MSTORE PUSH1 0x22 PUSH1 0x4 MSTORE PUSH1 0x24 PUSH1 0x0 REVERT JUMPDEST PUSH1 0x0 PUSH1 0x2 DUP3 DIV SWAP1 POP PUSH1 0x1 DUP3 AND DUP1 PUSH2 0x562 JUMPI PUSH1 0x7F DUP3 AND SWAP2 POP JUMPDEST PUSH1 0x20 DUP3 LT DUP2 SUB PUSH2 0x575 JUMPI PUSH2 0x574 PUSH2 0x51B JUMP JUMPDEST JUMPDEST POP SWAP2 SWAP1 POP JUMP JUMPDEST PUSH1 0x0 DUP2 SWAP1 POP DUP2 PUSH1 0x0 MSTORE PUSH1 0x20 PUSH1 0x0 KECCAK256 SWAP1 POP SWAP2 SWAP1 POP JUMP JUMPDEST PUSH1 0x0 PUSH1 0x20 PUSH1 0x1F DUP4 ADD DIV SWAP1 POP SWAP2 SWAP1 POP JUMP JUMPDEST PUSH1 0x0 DUP3 DUP3 SHL SWAP1 POP SWAP3 SWAP2 POP POP JUMP JUMPDEST PUSH1 0x0 PUSH1 0x8 DUP4 MUL PUSH2 0x5DD PUSH32 0xFFFFFFFFFFFFFFFFFFFFFFFFFFFFFFFFFFFFFFFFFFFFFFFFFFFFFFFFFFFFFFFF DUP3 PUSH2 0x5A0 JUMP JUMPDEST PUSH2 0x5E7 DUP7 DUP4 PUSH2 0x5A0 JUMP JUMPDEST SWAP6 POP DUP1 NOT DUP5 AND SWAP4 POP DUP1 DUP7 AND DUP5 OR SWAP3 POP POP POP SWAP4 SWAP3 POP POP POP JUMP JUMPDEST PUSH1 0x0 DUP2 SWAP1 POP SWAP2 SWAP1 POP JUMP JUMPDEST PUSH1 0x0 PUSH2 0x624 PUSH2 0x61F PUSH2 0x61A DUP5 PUSH2 0x231 JUMP JUMPDEST PUSH2 0x5FF JUMP JUMPDEST PUSH2 0x231 JUMP JUMPDEST SWAP1 POP SWAP2 SWAP1 POP JUMP JUMPDEST PUSH1 0x0 DUP2 SWAP1 POP SWAP2 SWAP1 POP JUMP JUMPDEST PUSH2 0x63E DUP4 PUSH2 0x609 JUMP JUMPDEST PUSH2 0x652 PUSH2 0x64A DUP3 PUSH2 0x62B JUMP JUMPDEST DUP5 DUP5 SLOAD PUSH2 0x5AD JUMP JUMPDEST DUP3 SSTORE POP POP POP POP JUMP JUMPDEST PUSH1 0x0 SWAP1 JUMP JUMPDEST PUSH2 0x667 PUSH2 0x65A JUMP JUMPDEST PUSH2 0x672 DUP2 DUP5 DUP5 PUSH2 0x635 JUMP JUMPDEST POP POP POP JUMP JUMPDEST JUMPDEST DUP2 DUP2 LT ISZERO PUSH2 0x696 JUMPI PUSH2 0x68B PUSH1 0x0 DUP3 PUSH2 0x65F JUMP JUMPDEST PUSH1 0x1 DUP2 ADD SWAP1 POP PUSH2 0x678 JUMP JUMPDEST POP POP JUMP JUMPDEST PUSH1 0x1F DUP3 GT ISZERO PUSH2 0x6DB JUMPI PUSH2 0x6AC DUP2 PUSH2 0x57B JUMP JUMPDEST PUSH2 0x6B5 DUP5 PUSH2 0x590 JUMP JUMPDEST DUP2 ADD PUSH1 0x20 DUP6 LT ISZERO PUSH2 0x6C4 JUMPI DUP2 SWAP1 POP JUMPDEST PUSH2 0x6D8 PUSH2 0x6D0 DUP6 PUSH2 0x590 JUMP JUMPDEST DUP4 ADD DUP3 PUSH2 0x677 JUMP JUMPDEST POP POP JUMPDEST POP POP POP JUMP JUMPDEST PUSH1 0x0 DUP3 DUP3 SHR SWAP1 POP SWAP3 SWAP2 POP POP JUMP JUMPDEST PUSH1 0x0 PUSH2 0x6FE PUSH1 0x0 NOT DUP5 PUSH1 0x8 MUL PUSH2 0x6E0 JUMP JUMPDEST NOT DUP1 DUP4 AND SWAP2 POP POP SWAP3 SWAP2 POP POP JUMP JUMPDEST PUSH1 0x0 PUSH2 0x717 DUP4 DUP4 PUSH2 0x6ED JUMP JUMPDEST SWAP2 POP DUP3 PUSH1 0x2 MUL DUP3 OR SWAP1 POP SWAP3 SWAP2 POP POP JUMP JUMPDEST PUSH2 0x730 DUP3 PUSH2 0x48B JUMP JUMPDEST PUSH8 0xFFFFFFFFFFFFFFFF DUP2 GT ISZERO PUSH2 0x749 JUMPI PUSH2 0x748 PUSH2 0x294 JUMP JUMPDEST JUMPDEST PUSH2 0x753 DUP3 SLOAD PUSH2 0x54A JUMP JUMPDEST PUSH2 0x75E DUP3 DUP3 DUP6 PUSH2 0x69A JUMP JUMPDEST PUSH1 0x0 PUSH1 0x20 SWAP1 POP PUSH1 0x1F DUP4 GT PUSH1 0x1 DUP2 EQ PUSH2 0x791 JUMPI PUSH1 0x0 DUP5 ISZERO PUSH2 0x77F JUMPI DUP3 DUP8 ADD MLOAD SWAP1 POP JUMPDEST PUSH2 0x789 DUP6 DUP3 PUSH2 0x70B JUMP JUMPDEST DUP7 SSTORE POP PUSH2 0x7F1 JUMP JUMPDEST PUSH1 0x1F NOT DUP5 AND PUSH2 0x79F DUP7 PUSH2 0x57B JUMP JUMPDEST PUSH1 0x0 JUMPDEST DUP3 DUP2 LT ISZERO PUSH2 0x7C7 JUMPI DUP5 DUP10 ADD MLOAD DUP3 SSTORE PUSH1 0x1 DUP3 ADD SWAP2 POP PUSH1 0x20 DUP6 ADD SWAP5 POP PUSH1 0x20 DUP2 ADD SWAP1 POP PUSH2 0x7A2 JUMP JUMPDEST DUP7 DUP4 LT ISZERO PUSH2 0x7E4 JUMPI DUP5 DUP10 ADD MLOAD PUSH2 0x7E0 PUSH1 0x1F DUP10 AND DUP3 PUSH2 0x6ED JUMP JUMPDEST DUP4 SSTORE POP JUMPDEST PUSH1 0x1 PUSH1 0x2 DUP9 MUL ADD DUP9 SSTORE POP POP POP JUMPDEST POP POP POP POP POP POP JUMP INVALID LOG2 PUSH5 0x6970667358 0x22 SLT KECCAK256 PUSH4 0x7AB2375F GT EXTCODEHASH PUSH17 0x1E64D21807F7163531DA488E18F68A50BD SHR PUSH3 0xDCFE40 0x21 0xB5 PUSH5 0x736F6C6343 STOP ADDMOD GT STOP CALLER "
				},
				"gasEstimates": {
					"creation": {
						"codeDepositCost": "419000",
						"executionCost": "455",
						"totalCost": "419455"
					},
					"external": {
						"": "1931",
						"foo(string,uint256)": "infinite",
						"message()": "infinite",
						"x()": "2407"
					}
				},
				"methodIdentifiers": {
					"foo(string,uint256)": "24ccab8f",
					"message()": "e21f37ce",
					"x()": "0c55699c"
				}
			},
			"storageLayout": {
				"storage": [
					{
						"astId": 3,
						"contract": "solidityTasks-Web3Bridge/SweetPractice/Call.sol:TestCall",
						"label": "message",
						"offset": 0,
						"slot": "0",
						"type": "t_string_storage"
					},
					{
						"astId": 5,
						"contract": "solidityTasks-Web3Bridge/SweetPractice/Call.sol:TestCall",
						"label": "x",
						"offset": 0,
						"slot": "1",
						"type": "t_uint256"
					}
				],
				"types": {
					"t_string_storage": {
						"encoding": "bytes",
						"label": "string",
						"numberOfBytes": "32"
					},
					"t_uint256": {
						"encoding": "inplace",
						"label": "uint256",
						"numberOfBytes": "32"
					}
				}
			},
			"userdoc": {
				"kind": "user",
				"methods": {},
				"version": 1
			}
		}
	}
}