{
	"solidityTasks-Web3Bridge/SweetPractice/Call.sol": {
		"Call": {
			"abi": [
				{
					"inputs": [
						{
							"internalType": "address",
							"name": "_test",
							"type": "address"
						}
					],
					"name": "callDoesNotExixt",
					"outputs": [],
					"stateMutability": "nonpayable",
					"type": "function"
				},
				{
					"inputs": [
						{
							"internalType": "address",
							"name": "_test",
							"type": "address"
						}
					],
					"name": "callFoo",
					"outputs": [],
					"stateMutability": "payable",
					"type": "function"
				},
				{
					"inputs": [],
					"name": "data",
					"outputs": [
						{
							"internalType": "bytes",
							"name": "",
							"type": "bytes"
						}
					],
					"stateMutability": "view",
					"type": "function"
				}
			],
			"devdoc": {
				"kind": "dev",
				"methods": {},
				"version": 1
			},
			"evm": {
				"assembly": "    /* \"solidityTasks-Web3Bridge/SweetPractice/Call.sol\":407:891  contract Call {... */\n  mstore(0x40, 0x80)\n  callvalue\n  dup1\n  iszero\n  tag_1\n  jumpi\n  0x00\n  dup1\n  revert\ntag_1:\n  pop\n  dataSize(sub_0)\n  dup1\n  dataOffset(sub_0)\n  0x00\n  codecopy\n  0x00\n  return\nstop\n\nsub_0: assembly {\n        /* \"solidityTasks-Web3Bridge/SweetPractice/Call.sol\":407:891  contract Call {... */\n      mstore(0x40, 0x80)\n      jumpi(tag_1, lt(calldatasize, 0x04))\n      shr(0xe0, calldataload(0x00))\n      dup1\n      0x73d4a13a\n      eq\n      tag_2\n      jumpi\n      dup1\n      0xccd6dd0d\n      eq\n      tag_3\n      jumpi\n      dup1\n      0xedcbe76c\n      eq\n      tag_4\n      jumpi\n    tag_1:\n      0x00\n      dup1\n      revert\n        /* \"solidityTasks-Web3Bridge/SweetPractice/Call.sol\":427:444  bytes public data */\n    tag_2:\n      callvalue\n      dup1\n      iszero\n      tag_5\n      jumpi\n      0x00\n      dup1\n      revert\n    tag_5:\n      pop\n      tag_6\n      tag_7\n      jump\t// in\n    tag_6:\n      mload(0x40)\n      tag_8\n      swap2\n      swap1\n      tag_9\n      jump\t// in\n    tag_8:\n      mload(0x40)\n      dup1\n      swap2\n      sub\n      swap1\n      return\n        /* \"solidityTasks-Web3Bridge/SweetPractice/Call.sol\":709:889  function callDoesNotExixt(address _test) external {... */\n    tag_3:\n      callvalue\n      dup1\n      iszero\n      tag_10\n      jumpi\n      0x00\n      dup1\n      revert\n    tag_10:\n      pop\n      tag_11\n      0x04\n      dup1\n      calldatasize\n      sub\n      dup2\n      add\n      swap1\n      tag_12\n      swap2\n      swap1\n      tag_13\n      jump\t// in\n    tag_12:\n      tag_14\n      jump\t// in\n    tag_11:\n      stop\n        /* \"solidityTasks-Web3Bridge/SweetPractice/Call.sol\":450:703  function callFoo(address _test) external payable {... */\n    tag_4:\n      tag_15\n      0x04\n      dup1\n      calldatasize\n      sub\n      dup2\n      add\n      swap1\n      tag_16\n      swap2\n      swap1\n      tag_13\n      jump\t// in\n    tag_16:\n      tag_17\n      jump\t// in\n    tag_15:\n      stop\n        /* \"solidityTasks-Web3Bridge/SweetPractice/Call.sol\":427:444  bytes public data */\n    tag_7:\n      0x00\n      dup1\n      sload\n      tag_18\n      swap1\n      tag_19\n      jump\t// in\n    tag_18:\n      dup1\n      0x1f\n      add\n      0x20\n      dup1\n      swap2\n      div\n      mul\n      0x20\n      add\n      mload(0x40)\n      swap1\n      dup2\n      add\n      0x40\n      mstore\n      dup1\n      swap3\n      swap2\n      swap1\n      dup2\n      dup2\n      mstore\n      0x20\n      add\n      dup3\n      dup1\n      sload\n      tag_20\n      swap1\n      tag_19\n      jump\t// in\n    tag_20:\n      dup1\n      iszero\n      tag_21\n      jumpi\n      dup1\n      0x1f\n      lt\n      tag_22\n      jumpi\n      0x0100\n      dup1\n      dup4\n      sload\n      div\n      mul\n      dup4\n      mstore\n      swap2\n      0x20\n      add\n      swap2\n      jump(tag_21)\n    tag_22:\n      dup3\n      add\n      swap2\n      swap1\n      0x00\n      mstore\n      keccak256(0x00, 0x20)\n      swap1\n    tag_23:\n      dup2\n      sload\n      dup2\n      mstore\n      swap1\n      0x01\n      add\n      swap1\n      0x20\n      add\n      dup1\n      dup4\n      gt\n      tag_23\n      jumpi\n      dup3\n      swap1\n      sub\n      0x1f\n      and\n      dup3\n      add\n      swap2\n    tag_21:\n      pop\n      pop\n      pop\n      pop\n      pop\n      dup2\n      jump\t// out\n        /* \"solidityTasks-Web3Bridge/SweetPractice/Call.sol\":709:889  function callDoesNotExixt(address _test) external {... */\n    tag_14:\n        /* \"solidityTasks-Web3Bridge/SweetPractice/Call.sol\":770:782  bool success */\n      0x00\n        /* \"solidityTasks-Web3Bridge/SweetPractice/Call.sol\":788:793  _test */\n      dup2\n        /* \"solidityTasks-Web3Bridge/SweetPractice/Call.sol\":788:798  _test.call */\n      0xffffffffffffffffffffffffffffffffffffffff\n      and\n        /* \"solidityTasks-Web3Bridge/SweetPractice/Call.sol\":799:840  abi.encodeWithSignature(\"doesNotExist()\") */\n      add(0x24, mload(0x40))\n      mload(0x40)\n      0x20\n      dup2\n      dup4\n      sub\n      sub\n      dup2\n      mstore\n      swap1\n      0x40\n      mstore\n      and(not(0xffffffffffffffffffffffffffffffffffffffffffffffffffffffff), 0x1dcc85ae00000000000000000000000000000000000000000000000000000000)\n      0x20\n      dup3\n      add\n      dup1\n      mload\n      0xffffffffffffffffffffffffffffffffffffffffffffffffffffffff\n      dup4\n      dup2\n      dup4\n      and\n      or\n      dup4\n      mstore\n      pop\n      pop\n      pop\n      pop\n        /* \"solidityTasks-Web3Bridge/SweetPractice/Call.sol\":788:841  _test.call(abi.encodeWithSignature(\"doesNotExist()\")) */\n      mload(0x40)\n      tag_25\n      swap2\n      swap1\n      tag_26\n      jump\t// in\n    tag_25:\n      0x00\n      mload(0x40)\n      dup1\n      dup4\n      sub\n      dup2\n      0x00\n      dup7\n      gas\n      call\n      swap2\n      pop\n      pop\n      returndatasize\n      dup1\n      0x00\n      dup2\n      eq\n      tag_29\n      jumpi\n      mload(0x40)\n      swap2\n      pop\n      and(add(returndatasize, 0x3f), not(0x1f))\n      dup3\n      add\n      0x40\n      mstore\n      returndatasize\n      dup3\n      mstore\n      returndatasize\n      0x00\n      0x20\n      dup5\n      add\n      returndatacopy\n      jump(tag_28)\n    tag_29:\n      0x60\n      swap2\n      pop\n    tag_28:\n      pop\n        /* \"solidityTasks-Web3Bridge/SweetPractice/Call.sol\":769:841  (bool success, ) = _test.call(abi.encodeWithSignature(\"doesNotExist()\")) */\n      pop\n      swap1\n      pop\n        /* \"solidityTasks-Web3Bridge/SweetPractice/Call.sol\":859:866  success */\n      dup1\n        /* \"solidityTasks-Web3Bridge/SweetPractice/Call.sol\":851:882  require(success, \"CALL FAILED\") */\n      tag_30\n      jumpi\n      mload(0x40)\n      0x08c379a000000000000000000000000000000000000000000000000000000000\n      dup2\n      mstore\n      0x04\n      add\n      tag_31\n      swap1\n      tag_32\n      jump\t// in\n    tag_31:\n      mload(0x40)\n      dup1\n      swap2\n      sub\n      swap1\n      revert\n    tag_30:\n        /* \"solidityTasks-Web3Bridge/SweetPractice/Call.sol\":759:889  {... */\n      pop\n        /* \"solidityTasks-Web3Bridge/SweetPractice/Call.sol\":709:889  function callDoesNotExixt(address _test) external {... */\n      pop\n      jump\t// out\n        /* \"solidityTasks-Web3Bridge/SweetPractice/Call.sol\":450:703  function callFoo(address _test) external payable {... */\n    tag_17:\n        /* \"solidityTasks-Web3Bridge/SweetPractice/Call.sol\":510:522  bool success */\n      0x00\n        /* \"solidityTasks-Web3Bridge/SweetPractice/Call.sol\":524:542  bytes memory _data */\n      dup1\n        /* \"solidityTasks-Web3Bridge/SweetPractice/Call.sol\":546:551  _test */\n      dup3\n        /* \"solidityTasks-Web3Bridge/SweetPractice/Call.sol\":546:556  _test.call */\n      0xffffffffffffffffffffffffffffffffffffffff\n      and\n        /* \"solidityTasks-Web3Bridge/SweetPractice/Call.sol\":564:567  111 */\n      0x6f\n        /* \"solidityTasks-Web3Bridge/SweetPractice/Call.sol\":628:631  123 */\n      0x7b\n        /* \"solidityTasks-Web3Bridge/SweetPractice/Call.sol\":569:632  abi.encodeWithSignature(\"foo(string,uint256)\", \"call foo\", 123) */\n      add(0x24, mload(0x40))\n      tag_34\n      swap2\n      swap1\n      tag_35\n      jump\t// in\n    tag_34:\n      mload(0x40)\n      0x20\n      dup2\n      dup4\n      sub\n      sub\n      dup2\n      mstore\n      swap1\n      0x40\n      mstore\n      and(not(0xffffffffffffffffffffffffffffffffffffffffffffffffffffffff), 0x24ccab8f00000000000000000000000000000000000000000000000000000000)\n      0x20\n      dup3\n      add\n      dup1\n      mload\n      0xffffffffffffffffffffffffffffffffffffffffffffffffffffffff\n      dup4\n      dup2\n      dup4\n      and\n      or\n      dup4\n      mstore\n      pop\n      pop\n      pop\n      pop\n        /* \"solidityTasks-Web3Bridge/SweetPractice/Call.sol\":546:633  _test.call{value: 111}(abi.encodeWithSignature(\"foo(string,uint256)\", \"call foo\", 123)) */\n      mload(0x40)\n      tag_36\n      swap2\n      swap1\n      tag_26\n      jump\t// in\n    tag_36:\n      0x00\n      mload(0x40)\n      dup1\n      dup4\n      sub\n      dup2\n      dup6\n      dup8\n      gas\n      call\n      swap3\n      pop\n      pop\n      pop\n      returndatasize\n      dup1\n      0x00\n      dup2\n      eq\n      tag_39\n      jumpi\n      mload(0x40)\n      swap2\n      pop\n      and(add(returndatasize, 0x3f), not(0x1f))\n      dup3\n      add\n      0x40\n      mstore\n      returndatasize\n      dup3\n      mstore\n      returndatasize\n      0x00\n      0x20\n      dup5\n      add\n      returndatacopy\n      jump(tag_38)\n    tag_39:\n      0x60\n      swap2\n      pop\n    tag_38:\n      pop\n        /* \"solidityTasks-Web3Bridge/SweetPractice/Call.sol\":509:633  (bool success, bytes memory _data) = _test.call{value: 111}(abi.encodeWithSignature(\"foo(string,uint256)\", \"call foo\", 123)) */\n      swap2\n      pop\n      swap2\n      pop\n        /* \"solidityTasks-Web3Bridge/SweetPractice/Call.sol\":651:658  success */\n      dup2\n        /* \"solidityTasks-Web3Bridge/SweetPractice/Call.sol\":643:674  require(success, \"CALL FAILED\") */\n      tag_40\n      jumpi\n      mload(0x40)\n      0x08c379a000000000000000000000000000000000000000000000000000000000\n      dup2\n      mstore\n      0x04\n      add\n      tag_41\n      swap1\n      tag_32\n      jump\t// in\n    tag_41:\n      mload(0x40)\n      dup1\n      swap2\n      sub\n      swap1\n      revert\n    tag_40:\n        /* \"solidityTasks-Web3Bridge/SweetPractice/Call.sol\":691:696  _data */\n      dup1\n        /* \"solidityTasks-Web3Bridge/SweetPractice/Call.sol\":684:688  data */\n      0x00\n        /* \"solidityTasks-Web3Bridge/SweetPractice/Call.sol\":684:696  data = _data */\n      swap1\n      dup2\n      tag_42\n      swap2\n      swap1\n      tag_43\n      jump\t// in\n    tag_42:\n      pop\n        /* \"solidityTasks-Web3Bridge/SweetPractice/Call.sol\":499:703  {... */\n      pop\n      pop\n        /* \"solidityTasks-Web3Bridge/SweetPractice/Call.sol\":450:703  function callFoo(address _test) external payable {... */\n      pop\n      jump\t// out\n        /* \"#utility.yul\":7:105   */\n    tag_44:\n        /* \"#utility.yul\":58:64   */\n      0x00\n        /* \"#utility.yul\":92:97   */\n      dup2\n        /* \"#utility.yul\":86:98   */\n      mload\n        /* \"#utility.yul\":76:98   */\n      swap1\n      pop\n        /* \"#utility.yul\":7:105   */\n      swap2\n      swap1\n      pop\n      jump\t// out\n        /* \"#utility.yul\":111:279   */\n    tag_45:\n        /* \"#utility.yul\":194:205   */\n      0x00\n        /* \"#utility.yul\":228:234   */\n      dup3\n        /* \"#utility.yul\":223:226   */\n      dup3\n        /* \"#utility.yul\":216:235   */\n      mstore\n        /* \"#utility.yul\":268:272   */\n      0x20\n        /* \"#utility.yul\":263:266   */\n      dup3\n        /* \"#utility.yul\":259:273   */\n      add\n        /* \"#utility.yul\":244:273   */\n      swap1\n      pop\n        /* \"#utility.yul\":111:279   */\n      swap3\n      swap2\n      pop\n      pop\n      jump\t// out\n        /* \"#utility.yul\":285:531   */\n    tag_46:\n        /* \"#utility.yul\":366:367   */\n      0x00\n        /* \"#utility.yul\":376:489   */\n    tag_89:\n        /* \"#utility.yul\":390:396   */\n      dup4\n        /* \"#utility.yul\":387:388   */\n      dup2\n        /* \"#utility.yul\":384:397   */\n      lt\n        /* \"#utility.yul\":376:489   */\n      iszero\n      tag_91\n      jumpi\n        /* \"#utility.yul\":475:476   */\n      dup1\n        /* \"#utility.yul\":470:473   */\n      dup3\n        /* \"#utility.yul\":466:477   */\n      add\n        /* \"#utility.yul\":460:478   */\n      mload\n        /* \"#utility.yul\":456:457   */\n      dup2\n        /* \"#utility.yul\":451:454   */\n      dup5\n        /* \"#utility.yul\":447:458   */\n      add\n        /* \"#utility.yul\":440:479   */\n      mstore\n        /* \"#utility.yul\":412:414   */\n      0x20\n        /* \"#utility.yul\":409:410   */\n      dup2\n        /* \"#utility.yul\":405:415   */\n      add\n        /* \"#utility.yul\":400:415   */\n      swap1\n      pop\n        /* \"#utility.yul\":376:489   */\n      jump(tag_89)\n    tag_91:\n        /* \"#utility.yul\":523:524   */\n      0x00\n        /* \"#utility.yul\":514:520   */\n      dup5\n        /* \"#utility.yul\":509:512   */\n      dup5\n        /* \"#utility.yul\":505:521   */\n      add\n        /* \"#utility.yul\":498:525   */\n      mstore\n        /* \"#utility.yul\":347:531   */\n      pop\n        /* \"#utility.yul\":285:531   */\n      pop\n      pop\n      pop\n      jump\t// out\n        /* \"#utility.yul\":537:639   */\n    tag_47:\n        /* \"#utility.yul\":578:584   */\n      0x00\n        /* \"#utility.yul\":629:631   */\n      0x1f\n        /* \"#utility.yul\":625:632   */\n      not\n        /* \"#utility.yul\":620:622   */\n      0x1f\n        /* \"#utility.yul\":613:618   */\n      dup4\n        /* \"#utility.yul\":609:623   */\n      add\n        /* \"#utility.yul\":605:633   */\n      and\n        /* \"#utility.yul\":595:633   */\n      swap1\n      pop\n        /* \"#utility.yul\":537:639   */\n      swap2\n      swap1\n      pop\n      jump\t// out\n        /* \"#utility.yul\":645:1018   */\n    tag_48:\n        /* \"#utility.yul\":731:734   */\n      0x00\n        /* \"#utility.yul\":759:797   */\n      tag_94\n        /* \"#utility.yul\":791:796   */\n      dup3\n        /* \"#utility.yul\":759:797   */\n      tag_44\n      jump\t// in\n    tag_94:\n        /* \"#utility.yul\":813:883   */\n      tag_95\n        /* \"#utility.yul\":876:882   */\n      dup2\n        /* \"#utility.yul\":871:874   */\n      dup6\n        /* \"#utility.yul\":813:883   */\n      tag_45\n      jump\t// in\n    tag_95:\n        /* \"#utility.yul\":806:883   */\n      swap4\n      pop\n        /* \"#utility.yul\":892:957   */\n      tag_96\n        /* \"#utility.yul\":950:956   */\n      dup2\n        /* \"#utility.yul\":945:948   */\n      dup6\n        /* \"#utility.yul\":938:942   */\n      0x20\n        /* \"#utility.yul\":931:936   */\n      dup7\n        /* \"#utility.yul\":927:943   */\n      add\n        /* \"#utility.yul\":892:957   */\n      tag_46\n      jump\t// in\n    tag_96:\n        /* \"#utility.yul\":982:1011   */\n      tag_97\n        /* \"#utility.yul\":1004:1010   */\n      dup2\n        /* \"#utility.yul\":982:1011   */\n      tag_47\n      jump\t// in\n    tag_97:\n        /* \"#utility.yul\":977:980   */\n      dup5\n        /* \"#utility.yul\":973:1012   */\n      add\n        /* \"#utility.yul\":966:1012   */\n      swap2\n      pop\n        /* \"#utility.yul\":735:1018   */\n      pop\n        /* \"#utility.yul\":645:1018   */\n      swap3\n      swap2\n      pop\n      pop\n      jump\t// out\n        /* \"#utility.yul\":1024:1333   */\n    tag_9:\n        /* \"#utility.yul\":1135:1139   */\n      0x00\n        /* \"#utility.yul\":1173:1175   */\n      0x20\n        /* \"#utility.yul\":1162:1171   */\n      dup3\n        /* \"#utility.yul\":1158:1176   */\n      add\n        /* \"#utility.yul\":1150:1176   */\n      swap1\n      pop\n        /* \"#utility.yul\":1222:1231   */\n      dup2\n        /* \"#utility.yul\":1216:1220   */\n      dup2\n        /* \"#utility.yul\":1212:1232   */\n      sub\n        /* \"#utility.yul\":1208:1209   */\n      0x00\n        /* \"#utility.yul\":1197:1206   */\n      dup4\n        /* \"#utility.yul\":1193:1210   */\n      add\n        /* \"#utility.yul\":1186:1233   */\n      mstore\n        /* \"#utility.yul\":1250:1326   */\n      tag_99\n        /* \"#utility.yul\":1321:1325   */\n      dup2\n        /* \"#utility.yul\":1312:1318   */\n      dup5\n        /* \"#utility.yul\":1250:1326   */\n      tag_48\n      jump\t// in\n    tag_99:\n        /* \"#utility.yul\":1242:1326   */\n      swap1\n      pop\n        /* \"#utility.yul\":1024:1333   */\n      swap3\n      swap2\n      pop\n      pop\n      jump\t// out\n        /* \"#utility.yul\":1420:1537   */\n    tag_50:\n        /* \"#utility.yul\":1529:1530   */\n      0x00\n        /* \"#utility.yul\":1526:1527   */\n      dup1\n        /* \"#utility.yul\":1519:1531   */\n      revert\n        /* \"#utility.yul\":1666:1792   */\n    tag_52:\n        /* \"#utility.yul\":1703:1710   */\n      0x00\n        /* \"#utility.yul\":1743:1785   */\n      0xffffffffffffffffffffffffffffffffffffffff\n        /* \"#utility.yul\":1736:1741   */\n      dup3\n        /* \"#utility.yul\":1732:1786   */\n      and\n        /* \"#utility.yul\":1721:1786   */\n      swap1\n      pop\n        /* \"#utility.yul\":1666:1792   */\n      swap2\n      swap1\n      pop\n      jump\t// out\n        /* \"#utility.yul\":1798:1894   */\n    tag_53:\n        /* \"#utility.yul\":1835:1842   */\n      0x00\n        /* \"#utility.yul\":1864:1888   */\n      tag_105\n        /* \"#utility.yul\":1882:1887   */\n      dup3\n        /* \"#utility.yul\":1864:1888   */\n      tag_52\n      jump\t// in\n    tag_105:\n        /* \"#utility.yul\":1853:1888   */\n      swap1\n      pop\n        /* \"#utility.yul\":1798:1894   */\n      swap2\n      swap1\n      pop\n      jump\t// out\n        /* \"#utility.yul\":1900:2022   */\n    tag_54:\n        /* \"#utility.yul\":1973:1997   */\n      tag_107\n        /* \"#utility.yul\":1991:1996   */\n      dup2\n        /* \"#utility.yul\":1973:1997   */\n      tag_53\n      jump\t// in\n    tag_107:\n        /* \"#utility.yul\":1966:1971   */\n      dup2\n        /* \"#utility.yul\":1963:1998   */\n      eq\n        /* \"#utility.yul\":1953:2016   */\n      tag_108\n      jumpi\n        /* \"#utility.yul\":2012:2013   */\n      0x00\n        /* \"#utility.yul\":2009:2010   */\n      dup1\n        /* \"#utility.yul\":2002:2014   */\n      revert\n        /* \"#utility.yul\":1953:2016   */\n    tag_108:\n        /* \"#utility.yul\":1900:2022   */\n      pop\n      jump\t// out\n        /* \"#utility.yul\":2028:2167   */\n    tag_55:\n        /* \"#utility.yul\":2074:2079   */\n      0x00\n        /* \"#utility.yul\":2112:2118   */\n      dup2\n        /* \"#utility.yul\":2099:2119   */\n      calldataload\n        /* \"#utility.yul\":2090:2119   */\n      swap1\n      pop\n        /* \"#utility.yul\":2128:2161   */\n      tag_110\n        /* \"#utility.yul\":2155:2160   */\n      dup2\n        /* \"#utility.yul\":2128:2161   */\n      tag_54\n      jump\t// in\n    tag_110:\n        /* \"#utility.yul\":2028:2167   */\n      swap3\n      swap2\n      pop\n      pop\n      jump\t// out\n        /* \"#utility.yul\":2173:2502   */\n    tag_13:\n        /* \"#utility.yul\":2232:2238   */\n      0x00\n        /* \"#utility.yul\":2281:2283   */\n      0x20\n        /* \"#utility.yul\":2269:2278   */\n      dup3\n        /* \"#utility.yul\":2260:2267   */\n      dup5\n        /* \"#utility.yul\":2256:2279   */\n      sub\n        /* \"#utility.yul\":2252:2284   */\n      slt\n        /* \"#utility.yul\":2249:2368   */\n      iszero\n      tag_112\n      jumpi\n        /* \"#utility.yul\":2287:2366   */\n      tag_113\n      tag_50\n      jump\t// in\n    tag_113:\n        /* \"#utility.yul\":2249:2368   */\n    tag_112:\n        /* \"#utility.yul\":2407:2408   */\n      0x00\n        /* \"#utility.yul\":2432:2485   */\n      tag_114\n        /* \"#utility.yul\":2477:2484   */\n      dup5\n        /* \"#utility.yul\":2468:2474   */\n      dup3\n        /* \"#utility.yul\":2457:2466   */\n      dup6\n        /* \"#utility.yul\":2453:2475   */\n      add\n        /* \"#utility.yul\":2432:2485   */\n      tag_55\n      jump\t// in\n    tag_114:\n        /* \"#utility.yul\":2422:2485   */\n      swap2\n      pop\n        /* \"#utility.yul\":2378:2495   */\n      pop\n        /* \"#utility.yul\":2173:2502   */\n      swap3\n      swap2\n      pop\n      pop\n      jump\t// out\n        /* \"#utility.yul\":2508:2688   */\n    tag_56:\n        /* \"#utility.yul\":2556:2633   */\n      0x4e487b7100000000000000000000000000000000000000000000000000000000\n        /* \"#utility.yul\":2553:2554   */\n      0x00\n        /* \"#utility.yul\":2546:2634   */\n      mstore\n        /* \"#utility.yul\":2653:2657   */\n      0x22\n        /* \"#utility.yul\":2650:2651   */\n      0x04\n        /* \"#utility.yul\":2643:2658   */\n      mstore\n        /* \"#utility.yul\":2677:2681   */\n      0x24\n        /* \"#utility.yul\":2674:2675   */\n      0x00\n        /* \"#utility.yul\":2667:2682   */\n      revert\n        /* \"#utility.yul\":2694:3014   */\n    tag_19:\n        /* \"#utility.yul\":2738:2744   */\n      0x00\n        /* \"#utility.yul\":2775:2776   */\n      0x02\n        /* \"#utility.yul\":2769:2773   */\n      dup3\n        /* \"#utility.yul\":2765:2777   */\n      div\n        /* \"#utility.yul\":2755:2777   */\n      swap1\n      pop\n        /* \"#utility.yul\":2822:2823   */\n      0x01\n        /* \"#utility.yul\":2816:2820   */\n      dup3\n        /* \"#utility.yul\":2812:2824   */\n      and\n        /* \"#utility.yul\":2843:2861   */\n      dup1\n        /* \"#utility.yul\":2833:2914   */\n      tag_117\n      jumpi\n        /* \"#utility.yul\":2899:2903   */\n      0x7f\n        /* \"#utility.yul\":2891:2897   */\n      dup3\n        /* \"#utility.yul\":2887:2904   */\n      and\n        /* \"#utility.yul\":2877:2904   */\n      swap2\n      pop\n        /* \"#utility.yul\":2833:2914   */\n    tag_117:\n        /* \"#utility.yul\":2961:2963   */\n      0x20\n        /* \"#utility.yul\":2953:2959   */\n      dup3\n        /* \"#utility.yul\":2950:2964   */\n      lt\n        /* \"#utility.yul\":2930:2948   */\n      dup2\n        /* \"#utility.yul\":2927:2965   */\n      sub\n        /* \"#utility.yul\":2924:3008   */\n      tag_118\n      jumpi\n        /* \"#utility.yul\":2980:2998   */\n      tag_119\n      tag_56\n      jump\t// in\n    tag_119:\n        /* \"#utility.yul\":2924:3008   */\n    tag_118:\n        /* \"#utility.yul\":2745:3014   */\n      pop\n        /* \"#utility.yul\":2694:3014   */\n      swap2\n      swap1\n      pop\n      jump\t// out\n        /* \"#utility.yul\":3020:3167   */\n    tag_57:\n        /* \"#utility.yul\":3121:3132   */\n      0x00\n        /* \"#utility.yul\":3158:3161   */\n      dup2\n        /* \"#utility.yul\":3143:3161   */\n      swap1\n      pop\n        /* \"#utility.yul\":3020:3167   */\n      swap3\n      swap2\n      pop\n      pop\n      jump\t// out\n        /* \"#utility.yul\":3173:3559   */\n    tag_58:\n        /* \"#utility.yul\":3277:3280   */\n      0x00\n        /* \"#utility.yul\":3305:3343   */\n      tag_122\n        /* \"#utility.yul\":3337:3342   */\n      dup3\n        /* \"#utility.yul\":3305:3343   */\n      tag_44\n      jump\t// in\n    tag_122:\n        /* \"#utility.yul\":3359:3447   */\n      tag_123\n        /* \"#utility.yul\":3440:3446   */\n      dup2\n        /* \"#utility.yul\":3435:3438   */\n      dup6\n        /* \"#utility.yul\":3359:3447   */\n      tag_57\n      jump\t// in\n    tag_123:\n        /* \"#utility.yul\":3352:3447   */\n      swap4\n      pop\n        /* \"#utility.yul\":3456:3521   */\n      tag_124\n        /* \"#utility.yul\":3514:3520   */\n      dup2\n        /* \"#utility.yul\":3509:3512   */\n      dup6\n        /* \"#utility.yul\":3502:3506   */\n      0x20\n        /* \"#utility.yul\":3495:3500   */\n      dup7\n        /* \"#utility.yul\":3491:3507   */\n      add\n        /* \"#utility.yul\":3456:3521   */\n      tag_46\n      jump\t// in\n    tag_124:\n        /* \"#utility.yul\":3546:3552   */\n      dup1\n        /* \"#utility.yul\":3541:3544   */\n      dup5\n        /* \"#utility.yul\":3537:3553   */\n      add\n        /* \"#utility.yul\":3530:3553   */\n      swap2\n      pop\n        /* \"#utility.yul\":3281:3559   */\n      pop\n        /* \"#utility.yul\":3173:3559   */\n      swap3\n      swap2\n      pop\n      pop\n      jump\t// out\n        /* \"#utility.yul\":3565:3836   */\n    tag_26:\n        /* \"#utility.yul\":3695:3698   */\n      0x00\n        /* \"#utility.yul\":3717:3810   */\n      tag_126\n        /* \"#utility.yul\":3806:3809   */\n      dup3\n        /* \"#utility.yul\":3797:3803   */\n      dup5\n        /* \"#utility.yul\":3717:3810   */\n      tag_58\n      jump\t// in\n    tag_126:\n        /* \"#utility.yul\":3710:3810   */\n      swap2\n      pop\n        /* \"#utility.yul\":3827:3830   */\n      dup2\n        /* \"#utility.yul\":3820:3830   */\n      swap1\n      pop\n        /* \"#utility.yul\":3565:3836   */\n      swap3\n      swap2\n      pop\n      pop\n      jump\t// out\n        /* \"#utility.yul\":3842:4011   */\n    tag_59:\n        /* \"#utility.yul\":3926:3937   */\n      0x00\n        /* \"#utility.yul\":3960:3966   */\n      dup3\n        /* \"#utility.yul\":3955:3958   */\n      dup3\n        /* \"#utility.yul\":3948:3967   */\n      mstore\n        /* \"#utility.yul\":4000:4004   */\n      0x20\n        /* \"#utility.yul\":3995:3998   */\n      dup3\n        /* \"#utility.yul\":3991:4005   */\n      add\n        /* \"#utility.yul\":3976:4005   */\n      swap1\n      pop\n        /* \"#utility.yul\":3842:4011   */\n      swap3\n      swap2\n      pop\n      pop\n      jump\t// out\n        /* \"#utility.yul\":4017:4178   */\n    tag_60:\n        /* \"#utility.yul\":4157:4170   */\n      0x43414c4c204641494c4544000000000000000000000000000000000000000000\n        /* \"#utility.yul\":4153:4154   */\n      0x00\n        /* \"#utility.yul\":4145:4151   */\n      dup3\n        /* \"#utility.yul\":4141:4155   */\n      add\n        /* \"#utility.yul\":4134:4171   */\n      mstore\n        /* \"#utility.yul\":4017:4178   */\n      pop\n      jump\t// out\n        /* \"#utility.yul\":4184:4550   */\n    tag_61:\n        /* \"#utility.yul\":4326:4329   */\n      0x00\n        /* \"#utility.yul\":4347:4414   */\n      tag_130\n        /* \"#utility.yul\":4411:4413   */\n      0x0b\n        /* \"#utility.yul\":4406:4409   */\n      dup4\n        /* \"#utility.yul\":4347:4414   */\n      tag_59\n      jump\t// in\n    tag_130:\n        /* \"#utility.yul\":4340:4414   */\n      swap2\n      pop\n        /* \"#utility.yul\":4423:4516   */\n      tag_131\n        /* \"#utility.yul\":4512:4515   */\n      dup3\n        /* \"#utility.yul\":4423:4516   */\n      tag_60\n      jump\t// in\n    tag_131:\n        /* \"#utility.yul\":4541:4543   */\n      0x20\n        /* \"#utility.yul\":4536:4539   */\n      dup3\n        /* \"#utility.yul\":4532:4544   */\n      add\n        /* \"#utility.yul\":4525:4544   */\n      swap1\n      pop\n        /* \"#utility.yul\":4184:4550   */\n      swap2\n      swap1\n      pop\n      jump\t// out\n        /* \"#utility.yul\":4556:4975   */\n    tag_32:\n        /* \"#utility.yul\":4722:4726   */\n      0x00\n        /* \"#utility.yul\":4760:4762   */\n      0x20\n        /* \"#utility.yul\":4749:4758   */\n      dup3\n        /* \"#utility.yul\":4745:4763   */\n      add\n        /* \"#utility.yul\":4737:4763   */\n      swap1\n      pop\n        /* \"#utility.yul\":4809:4818   */\n      dup2\n        /* \"#utility.yul\":4803:4807   */\n      dup2\n        /* \"#utility.yul\":4799:4819   */\n      sub\n        /* \"#utility.yul\":4795:4796   */\n      0x00\n        /* \"#utility.yul\":4784:4793   */\n      dup4\n        /* \"#utility.yul\":4780:4797   */\n      add\n        /* \"#utility.yul\":4773:4820   */\n      mstore\n        /* \"#utility.yul\":4837:4968   */\n      tag_133\n        /* \"#utility.yul\":4963:4967   */\n      dup2\n        /* \"#utility.yul\":4837:4968   */\n      tag_61\n      jump\t// in\n    tag_133:\n        /* \"#utility.yul\":4829:4968   */\n      swap1\n      pop\n        /* \"#utility.yul\":4556:4975   */\n      swap2\n      swap1\n      pop\n      jump\t// out\n        /* \"#utility.yul\":4981:5139   */\n    tag_62:\n        /* \"#utility.yul\":5121:5131   */\n      0x63616c6c20666f6f000000000000000000000000000000000000000000000000\n        /* \"#utility.yul\":5117:5118   */\n      0x00\n        /* \"#utility.yul\":5109:5115   */\n      dup3\n        /* \"#utility.yul\":5105:5119   */\n      add\n        /* \"#utility.yul\":5098:5132   */\n      mstore\n        /* \"#utility.yul\":4981:5139   */\n      pop\n      jump\t// out\n        /* \"#utility.yul\":5145:5510   */\n    tag_63:\n        /* \"#utility.yul\":5287:5290   */\n      0x00\n        /* \"#utility.yul\":5308:5374   */\n      tag_136\n        /* \"#utility.yul\":5372:5373   */\n      0x08\n        /* \"#utility.yul\":5367:5370   */\n      dup4\n        /* \"#utility.yul\":5308:5374   */\n      tag_59\n      jump\t// in\n    tag_136:\n        /* \"#utility.yul\":5301:5374   */\n      swap2\n      pop\n        /* \"#utility.yul\":5383:5476   */\n      tag_137\n        /* \"#utility.yul\":5472:5475   */\n      dup3\n        /* \"#utility.yul\":5383:5476   */\n      tag_62\n      jump\t// in\n    tag_137:\n        /* \"#utility.yul\":5501:5503   */\n      0x20\n        /* \"#utility.yul\":5496:5499   */\n      dup3\n        /* \"#utility.yul\":5492:5504   */\n      add\n        /* \"#utility.yul\":5485:5504   */\n      swap1\n      pop\n        /* \"#utility.yul\":5145:5510   */\n      swap2\n      swap1\n      pop\n      jump\t// out\n        /* \"#utility.yul\":5516:5603   */\n    tag_64:\n        /* \"#utility.yul\":5563:5570   */\n      0x00\n        /* \"#utility.yul\":5592:5597   */\n      dup2\n        /* \"#utility.yul\":5581:5597   */\n      swap1\n      pop\n        /* \"#utility.yul\":5516:5603   */\n      swap2\n      swap1\n      pop\n      jump\t// out\n        /* \"#utility.yul\":5609:5695   */\n    tag_65:\n        /* \"#utility.yul\":5644:5651   */\n      0x00\n        /* \"#utility.yul\":5684:5688   */\n      0xff\n        /* \"#utility.yul\":5677:5682   */\n      dup3\n        /* \"#utility.yul\":5673:5689   */\n      and\n        /* \"#utility.yul\":5662:5689   */\n      swap1\n      pop\n        /* \"#utility.yul\":5609:5695   */\n      swap2\n      swap1\n      pop\n      jump\t// out\n        /* \"#utility.yul\":5701:5761   */\n    tag_66:\n        /* \"#utility.yul\":5729:5732   */\n      0x00\n        /* \"#utility.yul\":5750:5755   */\n      dup2\n        /* \"#utility.yul\":5743:5755   */\n      swap1\n      pop\n        /* \"#utility.yul\":5701:5761   */\n      swap2\n      swap1\n      pop\n      jump\t// out\n        /* \"#utility.yul\":5767:5925   */\n    tag_67:\n        /* \"#utility.yul\":5825:5834   */\n      0x00\n        /* \"#utility.yul\":5858:5919   */\n      tag_142\n        /* \"#utility.yul\":5874:5918   */\n      tag_143\n        /* \"#utility.yul\":5883:5917   */\n      tag_144\n        /* \"#utility.yul\":5911:5916   */\n      dup5\n        /* \"#utility.yul\":5883:5917   */\n      tag_64\n      jump\t// in\n    tag_144:\n        /* \"#utility.yul\":5874:5918   */\n      tag_66\n      jump\t// in\n    tag_143:\n        /* \"#utility.yul\":5858:5919   */\n      tag_65\n      jump\t// in\n    tag_142:\n        /* \"#utility.yul\":5845:5919   */\n      swap1\n      pop\n        /* \"#utility.yul\":5767:5925   */\n      swap2\n      swap1\n      pop\n      jump\t// out\n        /* \"#utility.yul\":5931:6078   */\n    tag_68:\n        /* \"#utility.yul\":6026:6071   */\n      tag_146\n        /* \"#utility.yul\":6065:6070   */\n      dup2\n        /* \"#utility.yul\":6026:6071   */\n      tag_67\n      jump\t// in\n    tag_146:\n        /* \"#utility.yul\":6021:6024   */\n      dup3\n        /* \"#utility.yul\":6014:6072   */\n      mstore\n        /* \"#utility.yul\":5931:6078   */\n      pop\n      pop\n      jump\t// out\n        /* \"#utility.yul\":6084:6629   */\n    tag_35:\n        /* \"#utility.yul\":6286:6290   */\n      0x00\n        /* \"#utility.yul\":6324:6326   */\n      0x40\n        /* \"#utility.yul\":6313:6322   */\n      dup3\n        /* \"#utility.yul\":6309:6327   */\n      add\n        /* \"#utility.yul\":6301:6327   */\n      swap1\n      pop\n        /* \"#utility.yul\":6373:6382   */\n      dup2\n        /* \"#utility.yul\":6367:6371   */\n      dup2\n        /* \"#utility.yul\":6363:6383   */\n      sub\n        /* \"#utility.yul\":6359:6360   */\n      0x00\n        /* \"#utility.yul\":6348:6357   */\n      dup4\n        /* \"#utility.yul\":6344:6361   */\n      add\n        /* \"#utility.yul\":6337:6384   */\n      mstore\n        /* \"#utility.yul\":6401:6532   */\n      tag_148\n        /* \"#utility.yul\":6527:6531   */\n      dup2\n        /* \"#utility.yul\":6401:6532   */\n      tag_63\n      jump\t// in\n    tag_148:\n        /* \"#utility.yul\":6393:6532   */\n      swap1\n      pop\n        /* \"#utility.yul\":6542:6622   */\n      tag_149\n        /* \"#utility.yul\":6618:6620   */\n      0x20\n        /* \"#utility.yul\":6607:6616   */\n      dup4\n        /* \"#utility.yul\":6603:6621   */\n      add\n        /* \"#utility.yul\":6594:6600   */\n      dup5\n        /* \"#utility.yul\":6542:6622   */\n      tag_68\n      jump\t// in\n    tag_149:\n        /* \"#utility.yul\":6084:6629   */\n      swap3\n      swap2\n      pop\n      pop\n      jump\t// out\n        /* \"#utility.yul\":6635:6815   */\n    tag_69:\n        /* \"#utility.yul\":6683:6760   */\n      0x4e487b7100000000000000000000000000000000000000000000000000000000\n        /* \"#utility.yul\":6680:6681   */\n      0x00\n        /* \"#utility.yul\":6673:6761   */\n      mstore\n        /* \"#utility.yul\":6780:6784   */\n      0x41\n        /* \"#utility.yul\":6777:6778   */\n      0x04\n        /* \"#utility.yul\":6770:6785   */\n      mstore\n        /* \"#utility.yul\":6804:6808   */\n      0x24\n        /* \"#utility.yul\":6801:6802   */\n      0x00\n        /* \"#utility.yul\":6794:6809   */\n      revert\n        /* \"#utility.yul\":6821:6961   */\n    tag_70:\n        /* \"#utility.yul\":6869:6873   */\n      0x00\n        /* \"#utility.yul\":6892:6895   */\n      dup2\n        /* \"#utility.yul\":6884:6895   */\n      swap1\n      pop\n        /* \"#utility.yul\":6915:6918   */\n      dup2\n        /* \"#utility.yul\":6912:6913   */\n      0x00\n        /* \"#utility.yul\":6905:6919   */\n      mstore\n        /* \"#utility.yul\":6949:6953   */\n      0x20\n        /* \"#utility.yul\":6946:6947   */\n      0x00\n        /* \"#utility.yul\":6936:6954   */\n      keccak256\n        /* \"#utility.yul\":6928:6954   */\n      swap1\n      pop\n        /* \"#utility.yul\":6821:6961   */\n      swap2\n      swap1\n      pop\n      jump\t// out\n        /* \"#utility.yul\":6967:7060   */\n    tag_71:\n        /* \"#utility.yul\":7004:7010   */\n      0x00\n        /* \"#utility.yul\":7051:7053   */\n      0x20\n        /* \"#utility.yul\":7046:7048   */\n      0x1f\n        /* \"#utility.yul\":7039:7044   */\n      dup4\n        /* \"#utility.yul\":7035:7049   */\n      add\n        /* \"#utility.yul\":7031:7054   */\n      div\n        /* \"#utility.yul\":7021:7054   */\n      swap1\n      pop\n        /* \"#utility.yul\":6967:7060   */\n      swap2\n      swap1\n      pop\n      jump\t// out\n        /* \"#utility.yul\":7066:7173   */\n    tag_72:\n        /* \"#utility.yul\":7110:7118   */\n      0x00\n        /* \"#utility.yul\":7160:7165   */\n      dup3\n        /* \"#utility.yul\":7154:7158   */\n      dup3\n        /* \"#utility.yul\":7150:7166   */\n      shl\n        /* \"#utility.yul\":7129:7166   */\n      swap1\n      pop\n        /* \"#utility.yul\":7066:7173   */\n      swap3\n      swap2\n      pop\n      pop\n      jump\t// out\n        /* \"#utility.yul\":7179:7572   */\n    tag_73:\n        /* \"#utility.yul\":7248:7254   */\n      0x00\n        /* \"#utility.yul\":7298:7299   */\n      0x08\n        /* \"#utility.yul\":7286:7296   */\n      dup4\n        /* \"#utility.yul\":7282:7300   */\n      mul\n        /* \"#utility.yul\":7321:7418   */\n      tag_155\n        /* \"#utility.yul\":7351:7417   */\n      0xffffffffffffffffffffffffffffffffffffffffffffffffffffffffffffffff\n        /* \"#utility.yul\":7340:7349   */\n      dup3\n        /* \"#utility.yul\":7321:7418   */\n      tag_72\n      jump\t// in\n    tag_155:\n        /* \"#utility.yul\":7439:7478   */\n      tag_156\n        /* \"#utility.yul\":7469:7477   */\n      dup7\n        /* \"#utility.yul\":7458:7467   */\n      dup4\n        /* \"#utility.yul\":7439:7478   */\n      tag_72\n      jump\t// in\n    tag_156:\n        /* \"#utility.yul\":7427:7478   */\n      swap6\n      pop\n        /* \"#utility.yul\":7511:7515   */\n      dup1\n        /* \"#utility.yul\":7507:7516   */\n      not\n        /* \"#utility.yul\":7500:7505   */\n      dup5\n        /* \"#utility.yul\":7496:7517   */\n      and\n        /* \"#utility.yul\":7487:7517   */\n      swap4\n      pop\n        /* \"#utility.yul\":7560:7564   */\n      dup1\n        /* \"#utility.yul\":7550:7558   */\n      dup7\n        /* \"#utility.yul\":7546:7565   */\n      and\n        /* \"#utility.yul\":7539:7544   */\n      dup5\n        /* \"#utility.yul\":7536:7566   */\n      or\n        /* \"#utility.yul\":7526:7566   */\n      swap3\n      pop\n        /* \"#utility.yul\":7255:7572   */\n      pop\n      pop\n        /* \"#utility.yul\":7179:7572   */\n      swap4\n      swap3\n      pop\n      pop\n      pop\n      jump\t// out\n        /* \"#utility.yul\":7578:7655   */\n    tag_74:\n        /* \"#utility.yul\":7615:7622   */\n      0x00\n        /* \"#utility.yul\":7644:7649   */\n      dup2\n        /* \"#utility.yul\":7633:7649   */\n      swap1\n      pop\n        /* \"#utility.yul\":7578:7655   */\n      swap2\n      swap1\n      pop\n      jump\t// out\n        /* \"#utility.yul\":7661:7803   */\n    tag_75:\n        /* \"#utility.yul\":7711:7720   */\n      0x00\n        /* \"#utility.yul\":7744:7797   */\n      tag_159\n        /* \"#utility.yul\":7762:7796   */\n      tag_160\n        /* \"#utility.yul\":7771:7795   */\n      tag_161\n        /* \"#utility.yul\":7789:7794   */\n      dup5\n        /* \"#utility.yul\":7771:7795   */\n      tag_74\n      jump\t// in\n    tag_161:\n        /* \"#utility.yul\":7762:7796   */\n      tag_66\n      jump\t// in\n    tag_160:\n        /* \"#utility.yul\":7744:7797   */\n      tag_74\n      jump\t// in\n    tag_159:\n        /* \"#utility.yul\":7731:7797   */\n      swap1\n      pop\n        /* \"#utility.yul\":7661:7803   */\n      swap2\n      swap1\n      pop\n      jump\t// out\n        /* \"#utility.yul\":7809:7884   */\n    tag_76:\n        /* \"#utility.yul\":7852:7855   */\n      0x00\n        /* \"#utility.yul\":7873:7878   */\n      dup2\n        /* \"#utility.yul\":7866:7878   */\n      swap1\n      pop\n        /* \"#utility.yul\":7809:7884   */\n      swap2\n      swap1\n      pop\n      jump\t// out\n        /* \"#utility.yul\":7890:8159   */\n    tag_77:\n        /* \"#utility.yul\":8000:8039   */\n      tag_164\n        /* \"#utility.yul\":8031:8038   */\n      dup4\n        /* \"#utility.yul\":8000:8039   */\n      tag_75\n      jump\t// in\n    tag_164:\n        /* \"#utility.yul\":8061:8152   */\n      tag_165\n        /* \"#utility.yul\":8110:8151   */\n      tag_166\n        /* \"#utility.yul\":8134:8150   */\n      dup3\n        /* \"#utility.yul\":8110:8151   */\n      tag_76\n      jump\t// in\n    tag_166:\n        /* \"#utility.yul\":8102:8108   */\n      dup5\n        /* \"#utility.yul\":8095:8099   */\n      dup5\n        /* \"#utility.yul\":8089:8100   */\n      sload\n        /* \"#utility.yul\":8061:8152   */\n      tag_73\n      jump\t// in\n    tag_165:\n        /* \"#utility.yul\":8055:8059   */\n      dup3\n        /* \"#utility.yul\":8048:8153   */\n      sstore\n        /* \"#utility.yul\":7966:8159   */\n      pop\n        /* \"#utility.yul\":7890:8159   */\n      pop\n      pop\n      pop\n      jump\t// out\n        /* \"#utility.yul\":8165:8238   */\n    tag_78:\n        /* \"#utility.yul\":8210:8213   */\n      0x00\n        /* \"#utility.yul\":8165:8238   */\n      swap1\n      jump\t// out\n        /* \"#utility.yul\":8244:8433   */\n    tag_79:\n        /* \"#utility.yul\":8321:8353   */\n      tag_169\n      tag_78\n      jump\t// in\n    tag_169:\n        /* \"#utility.yul\":8362:8427   */\n      tag_170\n        /* \"#utility.yul\":8420:8426   */\n      dup2\n        /* \"#utility.yul\":8412:8418   */\n      dup5\n        /* \"#utility.yul\":8406:8410   */\n      dup5\n        /* \"#utility.yul\":8362:8427   */\n      tag_77\n      jump\t// in\n    tag_170:\n        /* \"#utility.yul\":8297:8433   */\n      pop\n        /* \"#utility.yul\":8244:8433   */\n      pop\n      pop\n      jump\t// out\n        /* \"#utility.yul\":8439:8625   */\n    tag_80:\n        /* \"#utility.yul\":8499:8619   */\n    tag_172:\n        /* \"#utility.yul\":8516:8519   */\n      dup2\n        /* \"#utility.yul\":8509:8514   */\n      dup2\n        /* \"#utility.yul\":8506:8520   */\n      lt\n        /* \"#utility.yul\":8499:8619   */\n      iszero\n      tag_174\n      jumpi\n        /* \"#utility.yul\":8570:8609   */\n      tag_175\n        /* \"#utility.yul\":8607:8608   */\n      0x00\n        /* \"#utility.yul\":8600:8605   */\n      dup3\n        /* \"#utility.yul\":8570:8609   */\n      tag_79\n      jump\t// in\n    tag_175:\n        /* \"#utility.yul\":8543:8544   */\n      0x01\n        /* \"#utility.yul\":8536:8541   */\n      dup2\n        /* \"#utility.yul\":8532:8545   */\n      add\n        /* \"#utility.yul\":8523:8545   */\n      swap1\n      pop\n        /* \"#utility.yul\":8499:8619   */\n      jump(tag_172)\n    tag_174:\n        /* \"#utility.yul\":8439:8625   */\n      pop\n      pop\n      jump\t// out\n        /* \"#utility.yul\":8631:9172   */\n    tag_81:\n        /* \"#utility.yul\":8731:8733   */\n      0x1f\n        /* \"#utility.yul\":8726:8729   */\n      dup3\n        /* \"#utility.yul\":8723:8734   */\n      gt\n        /* \"#utility.yul\":8720:9165   */\n      iszero\n      tag_177\n      jumpi\n        /* \"#utility.yul\":8765:8802   */\n      tag_178\n        /* \"#utility.yul\":8796:8801   */\n      dup2\n        /* \"#utility.yul\":8765:8802   */\n      tag_70\n      jump\t// in\n    tag_178:\n        /* \"#utility.yul\":8848:8877   */\n      tag_179\n        /* \"#utility.yul\":8866:8876   */\n      dup5\n        /* \"#utility.yul\":8848:8877   */\n      tag_71\n      jump\t// in\n    tag_179:\n        /* \"#utility.yul\":8838:8846   */\n      dup2\n        /* \"#utility.yul\":8834:8878   */\n      add\n        /* \"#utility.yul\":9031:9033   */\n      0x20\n        /* \"#utility.yul\":9019:9029   */\n      dup6\n        /* \"#utility.yul\":9016:9034   */\n      lt\n        /* \"#utility.yul\":9013:9062   */\n      iszero\n      tag_180\n      jumpi\n        /* \"#utility.yul\":9052:9060   */\n      dup2\n        /* \"#utility.yul\":9037:9060   */\n      swap1\n      pop\n        /* \"#utility.yul\":9013:9062   */\n    tag_180:\n        /* \"#utility.yul\":9075:9155   */\n      tag_181\n        /* \"#utility.yul\":9131:9153   */\n      tag_182\n        /* \"#utility.yul\":9149:9152   */\n      dup6\n        /* \"#utility.yul\":9131:9153   */\n      tag_71\n      jump\t// in\n    tag_182:\n        /* \"#utility.yul\":9121:9129   */\n      dup4\n        /* \"#utility.yul\":9117:9154   */\n      add\n        /* \"#utility.yul\":9104:9115   */\n      dup3\n        /* \"#utility.yul\":9075:9155   */\n      tag_80\n      jump\t// in\n    tag_181:\n        /* \"#utility.yul\":8735:9165   */\n      pop\n      pop\n        /* \"#utility.yul\":8720:9165   */\n    tag_177:\n        /* \"#utility.yul\":8631:9172   */\n      pop\n      pop\n      pop\n      jump\t// out\n        /* \"#utility.yul\":9178:9295   */\n    tag_82:\n        /* \"#utility.yul\":9232:9240   */\n      0x00\n        /* \"#utility.yul\":9282:9287   */\n      dup3\n        /* \"#utility.yul\":9276:9280   */\n      dup3\n        /* \"#utility.yul\":9272:9288   */\n      shr\n        /* \"#utility.yul\":9251:9288   */\n      swap1\n      pop\n        /* \"#utility.yul\":9178:9295   */\n      swap3\n      swap2\n      pop\n      pop\n      jump\t// out\n        /* \"#utility.yul\":9301:9470   */\n    tag_83:\n        /* \"#utility.yul\":9345:9351   */\n      0x00\n        /* \"#utility.yul\":9378:9429   */\n      tag_185\n        /* \"#utility.yul\":9426:9427   */\n      0x00\n        /* \"#utility.yul\":9422:9428   */\n      not\n        /* \"#utility.yul\":9414:9419   */\n      dup5\n        /* \"#utility.yul\":9411:9412   */\n      0x08\n        /* \"#utility.yul\":9407:9420   */\n      mul\n        /* \"#utility.yul\":9378:9429   */\n      tag_82\n      jump\t// in\n    tag_185:\n        /* \"#utility.yul\":9374:9430   */\n      not\n        /* \"#utility.yul\":9459:9463   */\n      dup1\n        /* \"#utility.yul\":9453:9457   */\n      dup4\n        /* \"#utility.yul\":9449:9464   */\n      and\n        /* \"#utility.yul\":9439:9464   */\n      swap2\n      pop\n        /* \"#utility.yul\":9352:9470   */\n      pop\n        /* \"#utility.yul\":9301:9470   */\n      swap3\n      swap2\n      pop\n      pop\n      jump\t// out\n        /* \"#utility.yul\":9475:9770   */\n    tag_84:\n        /* \"#utility.yul\":9551:9555   */\n      0x00\n        /* \"#utility.yul\":9697:9726   */\n      tag_187\n        /* \"#utility.yul\":9722:9725   */\n      dup4\n        /* \"#utility.yul\":9716:9720   */\n      dup4\n        /* \"#utility.yul\":9697:9726   */\n      tag_83\n      jump\t// in\n    tag_187:\n        /* \"#utility.yul\":9689:9726   */\n      swap2\n      pop\n        /* \"#utility.yul\":9759:9762   */\n      dup3\n        /* \"#utility.yul\":9756:9757   */\n      0x02\n        /* \"#utility.yul\":9752:9763   */\n      mul\n        /* \"#utility.yul\":9746:9750   */\n      dup3\n        /* \"#utility.yul\":9743:9764   */\n      or\n        /* \"#utility.yul\":9735:9764   */\n      swap1\n      pop\n        /* \"#utility.yul\":9475:9770   */\n      swap3\n      swap2\n      pop\n      pop\n      jump\t// out\n        /* \"#utility.yul\":9775:11165   */\n    tag_43:\n        /* \"#utility.yul\":9890:9926   */\n      tag_189\n        /* \"#utility.yul\":9922:9925   */\n      dup3\n        /* \"#utility.yul\":9890:9926   */\n      tag_44\n      jump\t// in\n    tag_189:\n        /* \"#utility.yul\":9991:10009   */\n      0xffffffffffffffff\n        /* \"#utility.yul\":9983:9989   */\n      dup2\n        /* \"#utility.yul\":9980:10010   */\n      gt\n        /* \"#utility.yul\":9977:10033   */\n      iszero\n      tag_190\n      jumpi\n        /* \"#utility.yul\":10013:10031   */\n      tag_191\n      tag_69\n      jump\t// in\n    tag_191:\n        /* \"#utility.yul\":9977:10033   */\n    tag_190:\n        /* \"#utility.yul\":10057:10095   */\n      tag_192\n        /* \"#utility.yul\":10089:10093   */\n      dup3\n        /* \"#utility.yul\":10083:10094   */\n      sload\n        /* \"#utility.yul\":10057:10095   */\n      tag_19\n      jump\t// in\n    tag_192:\n        /* \"#utility.yul\":10142:10208   */\n      tag_193\n        /* \"#utility.yul\":10201:10207   */\n      dup3\n        /* \"#utility.yul\":10193:10199   */\n      dup3\n        /* \"#utility.yul\":10187:10191   */\n      dup6\n        /* \"#utility.yul\":10142:10208   */\n      tag_81\n      jump\t// in\n    tag_193:\n        /* \"#utility.yul\":10235:10236   */\n      0x00\n        /* \"#utility.yul\":10259:10263   */\n      0x20\n        /* \"#utility.yul\":10246:10263   */\n      swap1\n      pop\n        /* \"#utility.yul\":10291:10293   */\n      0x1f\n        /* \"#utility.yul\":10283:10289   */\n      dup4\n        /* \"#utility.yul\":10280:10294   */\n      gt\n        /* \"#utility.yul\":10308:10309   */\n      0x01\n        /* \"#utility.yul\":10303:10920   */\n      dup2\n      eq\n      tag_195\n      jumpi\n        /* \"#utility.yul\":10964:10965   */\n      0x00\n        /* \"#utility.yul\":10981:10987   */\n      dup5\n        /* \"#utility.yul\":10978:11055   */\n      iszero\n      tag_196\n      jumpi\n        /* \"#utility.yul\":11030:11039   */\n      dup3\n        /* \"#utility.yul\":11025:11028   */\n      dup8\n        /* \"#utility.yul\":11021:11040   */\n      add\n        /* \"#utility.yul\":11015:11041   */\n      mload\n        /* \"#utility.yul\":11006:11041   */\n      swap1\n      pop\n        /* \"#utility.yul\":10978:11055   */\n    tag_196:\n        /* \"#utility.yul\":11081:11148   */\n      tag_197\n        /* \"#utility.yul\":11141:11147   */\n      dup6\n        /* \"#utility.yul\":11134:11139   */\n      dup3\n        /* \"#utility.yul\":11081:11148   */\n      tag_84\n      jump\t// in\n    tag_197:\n        /* \"#utility.yul\":11075:11079   */\n      dup7\n        /* \"#utility.yul\":11068:11149   */\n      sstore\n        /* \"#utility.yul\":10937:11159   */\n      pop\n        /* \"#utility.yul\":10273:11159   */\n      jump(tag_194)\n        /* \"#utility.yul\":10303:10920   */\n    tag_195:\n        /* \"#utility.yul\":10355:10359   */\n      0x1f\n        /* \"#utility.yul\":10351:10360   */\n      not\n        /* \"#utility.yul\":10343:10349   */\n      dup5\n        /* \"#utility.yul\":10339:10361   */\n      and\n        /* \"#utility.yul\":10389:10425   */\n      tag_198\n        /* \"#utility.yul\":10420:10424   */\n      dup7\n        /* \"#utility.yul\":10389:10425   */\n      tag_70\n      jump\t// in\n    tag_198:\n        /* \"#utility.yul\":10447:10448   */\n      0x00\n        /* \"#utility.yul\":10461:10669   */\n    tag_199:\n        /* \"#utility.yul\":10475:10482   */\n      dup3\n        /* \"#utility.yul\":10472:10473   */\n      dup2\n        /* \"#utility.yul\":10469:10483   */\n      lt\n        /* \"#utility.yul\":10461:10669   */\n      iszero\n      tag_201\n      jumpi\n        /* \"#utility.yul\":10554:10563   */\n      dup5\n        /* \"#utility.yul\":10549:10552   */\n      dup10\n        /* \"#utility.yul\":10545:10564   */\n      add\n        /* \"#utility.yul\":10539:10565   */\n      mload\n        /* \"#utility.yul\":10531:10537   */\n      dup3\n        /* \"#utility.yul\":10524:10566   */\n      sstore\n        /* \"#utility.yul\":10605:10606   */\n      0x01\n        /* \"#utility.yul\":10597:10603   */\n      dup3\n        /* \"#utility.yul\":10593:10607   */\n      add\n        /* \"#utility.yul\":10583:10607   */\n      swap2\n      pop\n        /* \"#utility.yul\":10652:10654   */\n      0x20\n        /* \"#utility.yul\":10641:10650   */\n      dup6\n        /* \"#utility.yul\":10637:10655   */\n      add\n        /* \"#utility.yul\":10624:10655   */\n      swap5\n      pop\n        /* \"#utility.yul\":10498:10502   */\n      0x20\n        /* \"#utility.yul\":10495:10496   */\n      dup2\n        /* \"#utility.yul\":10491:10503   */\n      add\n        /* \"#utility.yul\":10486:10503   */\n      swap1\n      pop\n        /* \"#utility.yul\":10461:10669   */\n      jump(tag_199)\n    tag_201:\n        /* \"#utility.yul\":10697:10703   */\n      dup7\n        /* \"#utility.yul\":10688:10695   */\n      dup4\n        /* \"#utility.yul\":10685:10704   */\n      lt\n        /* \"#utility.yul\":10682:10861   */\n      iszero\n      tag_202\n      jumpi\n        /* \"#utility.yul\":10755:10764   */\n      dup5\n        /* \"#utility.yul\":10750:10753   */\n      dup10\n        /* \"#utility.yul\":10746:10765   */\n      add\n        /* \"#utility.yul\":10740:10766   */\n      mload\n        /* \"#utility.yul\":10798:10846   */\n      tag_203\n        /* \"#utility.yul\":10840:10844   */\n      0x1f\n        /* \"#utility.yul\":10832:10838   */\n      dup10\n        /* \"#utility.yul\":10828:10845   */\n      and\n        /* \"#utility.yul\":10817:10826   */\n      dup3\n        /* \"#utility.yul\":10798:10846   */\n      tag_83\n      jump\t// in\n    tag_203:\n        /* \"#utility.yul\":10790:10796   */\n      dup4\n        /* \"#utility.yul\":10783:10847   */\n      sstore\n        /* \"#utility.yul\":10705:10861   */\n      pop\n        /* \"#utility.yul\":10682:10861   */\n    tag_202:\n        /* \"#utility.yul\":10907:10908   */\n      0x01\n        /* \"#utility.yul\":10903:10904   */\n      0x02\n        /* \"#utility.yul\":10895:10901   */\n      dup9\n        /* \"#utility.yul\":10891:10905   */\n      mul\n        /* \"#utility.yul\":10887:10909   */\n      add\n        /* \"#utility.yul\":10881:10885   */\n      dup9\n        /* \"#utility.yul\":10874:10910   */\n      sstore\n        /* \"#utility.yul\":10310:10920   */\n      pop\n      pop\n      pop\n        /* \"#utility.yul\":10273:11159   */\n    tag_194:\n      pop\n        /* \"#utility.yul\":9865:11165   */\n      pop\n      pop\n      pop\n        /* \"#utility.yul\":9775:11165   */\n      pop\n      pop\n      jump\t// out\n\n    auxdata: 0xa2646970667358221220582fd5989035228d861783642c2504c9e7403273c02d0bcb9fbd635acfcb371064736f6c63430008110033\n}\n",
				"bytecode": {
					"linkReferences": {},
					"object": "608060405234801561001057600080fd5b506109df806100206000396000f3fe6080604052600436106100345760003560e01c806373d4a13a14610039578063ccd6dd0d14610064578063edcbe76c1461008d575b600080fd5b34801561004557600080fd5b5061004e6100a9565b60405161005b919061044e565b60405180910390f35b34801561007057600080fd5b5061008b600480360381019061008691906104d3565b610137565b005b6100a760048036038101906100a291906104d3565b61026a565b005b600080546100b69061052f565b80601f01602080910402602001604051908101604052809291908181526020018280546100e29061052f565b801561012f5780601f106101045761010080835404028352916020019161012f565b820191906000526020600020905b81548152906001019060200180831161011257829003601f168201915b505050505081565b60008173ffffffffffffffffffffffffffffffffffffffff166040516024016040516020818303038152906040527f1dcc85ae000000000000000000000000000000000000000000000000000000007bffffffffffffffffffffffffffffffffffffffffffffffffffffffff19166020820180517bffffffffffffffffffffffffffffffffffffffffffffffffffffffff83818316178352505050506040516101e0919061059c565b6000604051808303816000865af19150503d806000811461021d576040519150601f19603f3d011682016040523d82523d6000602084013e610222565b606091505b5050905080610266576040517f08c379a000000000000000000000000000000000000000000000000000000000815260040161025d90610610565b60405180910390fd5b5050565b6000808273ffffffffffffffffffffffffffffffffffffffff16606f607b60405160240161029891906106ce565b6040516020818303038152906040527f24ccab8f000000000000000000000000000000000000000000000000000000007bffffffffffffffffffffffffffffffffffffffffffffffffffffffff19166020820180517bffffffffffffffffffffffffffffffffffffffffffffffffffffffff8381831617835250505050604051610322919061059c565b60006040518083038185875af1925050503d806000811461035f576040519150601f19603f3d011682016040523d82523d6000602084013e610364565b606091505b5091509150816103a9576040517f08c379a00000000000000000000000000000000000000000000000000000000081526004016103a090610610565b60405180910390fd5b80600090816103b891906108d7565b50505050565b600081519050919050565b600082825260208201905092915050565b60005b838110156103f85780820151818401526020810190506103dd565b60008484015250505050565b6000601f19601f8301169050919050565b6000610420826103be565b61042a81856103c9565b935061043a8185602086016103da565b61044381610404565b840191505092915050565b600060208201905081810360008301526104688184610415565b905092915050565b600080fd5b600073ffffffffffffffffffffffffffffffffffffffff82169050919050565b60006104a082610475565b9050919050565b6104b081610495565b81146104bb57600080fd5b50565b6000813590506104cd816104a7565b92915050565b6000602082840312156104e9576104e8610470565b5b60006104f7848285016104be565b91505092915050565b7f4e487b7100000000000000000000000000000000000000000000000000000000600052602260045260246000fd5b6000600282049050600182168061054757607f821691505b60208210810361055a57610559610500565b5b50919050565b600081905092915050565b6000610576826103be565b6105808185610560565b93506105908185602086016103da565b80840191505092915050565b60006105a8828461056b565b915081905092915050565b600082825260208201905092915050565b7f43414c4c204641494c4544000000000000000000000000000000000000000000600082015250565b60006105fa600b836105b3565b9150610605826105c4565b602082019050919050565b60006020820190508181036000830152610629816105ed565b9050919050565b7f63616c6c20666f6f000000000000000000000000000000000000000000000000600082015250565b60006106666008836105b3565b915061067182610630565b602082019050919050565b6000819050919050565b600060ff82169050919050565b6000819050919050565b60006106b86106b36106ae8461067c565b610693565b610686565b9050919050565b6106c88161069d565b82525050565b600060408201905081810360008301526106e781610659565b90506106f660208301846106bf565b92915050565b7f4e487b7100000000000000000000000000000000000000000000000000000000600052604160045260246000fd5b60008190508160005260206000209050919050565b60006020601f8301049050919050565b600082821b905092915050565b60006008830261078d7fffffffffffffffffffffffffffffffffffffffffffffffffffffffffffffffff82610750565b6107978683610750565b95508019841693508086168417925050509392505050565b6000819050919050565b60006107d46107cf6107ca846107af565b610693565b6107af565b9050919050565b6000819050919050565b6107ee836107b9565b6108026107fa826107db565b84845461075d565b825550505050565b600090565b61081761080a565b6108228184846107e5565b505050565b5b818110156108465761083b60008261080f565b600181019050610828565b5050565b601f82111561088b5761085c8161072b565b61086584610740565b81016020851015610874578190505b61088861088085610740565b830182610827565b50505b505050565b600082821c905092915050565b60006108ae60001984600802610890565b1980831691505092915050565b60006108c7838361089d565b9150826002028217905092915050565b6108e0826103be565b67ffffffffffffffff8111156108f9576108f86106fc565b5b610903825461052f565b61090e82828561084a565b600060209050601f831160018114610941576000841561092f578287015190505b61093985826108bb565b8655506109a1565b601f19841661094f8661072b565b60005b8281101561097757848901518255600182019150602085019450602081019050610952565b868310156109945784890151610990601f89168261089d565b8355505b6001600288020188555050505b50505050505056fea2646970667358221220582fd5989035228d861783642c2504c9e7403273c02d0bcb9fbd635acfcb371064736f6c63430008110033",
					"opcodes": "PUSH1 0x80 PUSH1 0x40 MSTORE CALLVALUE DUP1 ISZERO PUSH2 0x10 JUMPI PUSH1 0x0 DUP1 REVERT JUMPDEST POP PUSH2 0x9DF DUP1 PUSH2 0x20 PUSH1 0x0 CODECOPY PUSH1 0x0 RETURN INVALID PUSH1 0x80 PUSH1 0x40 MSTORE PUSH1 0x4 CALLDATASIZE LT PUSH2 0x34 JUMPI PUSH1 0x0 CALLDATALOAD PUSH1 0xE0 SHR DUP1 PUSH4 0x73D4A13A EQ PUSH2 0x39 JUMPI DUP1 PUSH4 0xCCD6DD0D EQ PUSH2 0x64 JUMPI DUP1 PUSH4 0xEDCBE76C EQ PUSH2 0x8D JUMPI JUMPDEST PUSH1 0x0 DUP1 REVERT JUMPDEST CALLVALUE DUP1 ISZERO PUSH2 0x45 JUMPI PUSH1 0x0 DUP1 REVERT JUMPDEST POP PUSH2 0x4E PUSH2 0xA9 JUMP JUMPDEST PUSH1 0x40 MLOAD PUSH2 0x5B SWAP2 SWAP1 PUSH2 0x44E JUMP JUMPDEST PUSH1 0x40 MLOAD DUP1 SWAP2 SUB SWAP1 RETURN JUMPDEST CALLVALUE DUP1 ISZERO PUSH2 0x70 JUMPI PUSH1 0x0 DUP1 REVERT JUMPDEST POP PUSH2 0x8B PUSH1 0x4 DUP1 CALLDATASIZE SUB DUP2 ADD SWAP1 PUSH2 0x86 SWAP2 SWAP1 PUSH2 0x4D3 JUMP JUMPDEST PUSH2 0x137 JUMP JUMPDEST STOP JUMPDEST PUSH2 0xA7 PUSH1 0x4 DUP1 CALLDATASIZE SUB DUP2 ADD SWAP1 PUSH2 0xA2 SWAP2 SWAP1 PUSH2 0x4D3 JUMP JUMPDEST PUSH2 0x26A JUMP JUMPDEST STOP JUMPDEST PUSH1 0x0 DUP1 SLOAD PUSH2 0xB6 SWAP1 PUSH2 0x52F JUMP JUMPDEST DUP1 PUSH1 0x1F ADD PUSH1 0x20 DUP1 SWAP2 DIV MUL PUSH1 0x20 ADD PUSH1 0x40 MLOAD SWAP1 DUP2 ADD PUSH1 0x40 MSTORE DUP1 SWAP3 SWAP2 SWAP1 DUP2 DUP2 MSTORE PUSH1 0x20 ADD DUP3 DUP1 SLOAD PUSH2 0xE2 SWAP1 PUSH2 0x52F JUMP JUMPDEST DUP1 ISZERO PUSH2 0x12F JUMPI DUP1 PUSH1 0x1F LT PUSH2 0x104 JUMPI PUSH2 0x100 DUP1 DUP4 SLOAD DIV MUL DUP4 MSTORE SWAP2 PUSH1 0x20 ADD SWAP2 PUSH2 0x12F JUMP JUMPDEST DUP3 ADD SWAP2 SWAP1 PUSH1 0x0 MSTORE PUSH1 0x20 PUSH1 0x0 KECCAK256 SWAP1 JUMPDEST DUP2 SLOAD DUP2 MSTORE SWAP1 PUSH1 0x1 ADD SWAP1 PUSH1 0x20 ADD DUP1 DUP4 GT PUSH2 0x112 JUMPI DUP3 SWAP1 SUB PUSH1 0x1F AND DUP3 ADD SWAP2 JUMPDEST POP POP POP POP POP DUP2 JUMP JUMPDEST PUSH1 0x0 DUP2 PUSH20 0xFFFFFFFFFFFFFFFFFFFFFFFFFFFFFFFFFFFFFFFF AND PUSH1 0x40 MLOAD PUSH1 0x24 ADD PUSH1 0x40 MLOAD PUSH1 0x20 DUP2 DUP4 SUB SUB DUP2 MSTORE SWAP1 PUSH1 0x40 MSTORE PUSH32 0x1DCC85AE00000000000000000000000000000000000000000000000000000000 PUSH28 0xFFFFFFFFFFFFFFFFFFFFFFFFFFFFFFFFFFFFFFFFFFFFFFFFFFFFFFFF NOT AND PUSH1 0x20 DUP3 ADD DUP1 MLOAD PUSH28 0xFFFFFFFFFFFFFFFFFFFFFFFFFFFFFFFFFFFFFFFFFFFFFFFFFFFFFFFF DUP4 DUP2 DUP4 AND OR DUP4 MSTORE POP POP POP POP PUSH1 0x40 MLOAD PUSH2 0x1E0 SWAP2 SWAP1 PUSH2 0x59C JUMP JUMPDEST PUSH1 0x0 PUSH1 0x40 MLOAD DUP1 DUP4 SUB DUP2 PUSH1 0x0 DUP7 GAS CALL SWAP2 POP POP RETURNDATASIZE DUP1 PUSH1 0x0 DUP2 EQ PUSH2 0x21D JUMPI PUSH1 0x40 MLOAD SWAP2 POP PUSH1 0x1F NOT PUSH1 0x3F RETURNDATASIZE ADD AND DUP3 ADD PUSH1 0x40 MSTORE RETURNDATASIZE DUP3 MSTORE RETURNDATASIZE PUSH1 0x0 PUSH1 0x20 DUP5 ADD RETURNDATACOPY PUSH2 0x222 JUMP JUMPDEST PUSH1 0x60 SWAP2 POP JUMPDEST POP POP SWAP1 POP DUP1 PUSH2 0x266 JUMPI PUSH1 0x40 MLOAD PUSH32 0x8C379A000000000000000000000000000000000000000000000000000000000 DUP2 MSTORE PUSH1 0x4 ADD PUSH2 0x25D SWAP1 PUSH2 0x610 JUMP JUMPDEST PUSH1 0x40 MLOAD DUP1 SWAP2 SUB SWAP1 REVERT JUMPDEST POP POP JUMP JUMPDEST PUSH1 0x0 DUP1 DUP3 PUSH20 0xFFFFFFFFFFFFFFFFFFFFFFFFFFFFFFFFFFFFFFFF AND PUSH1 0x6F PUSH1 0x7B PUSH1 0x40 MLOAD PUSH1 0x24 ADD PUSH2 0x298 SWAP2 SWAP1 PUSH2 0x6CE JUMP JUMPDEST PUSH1 0x40 MLOAD PUSH1 0x20 DUP2 DUP4 SUB SUB DUP2 MSTORE SWAP1 PUSH1 0x40 MSTORE PUSH32 0x24CCAB8F00000000000000000000000000000000000000000000000000000000 PUSH28 0xFFFFFFFFFFFFFFFFFFFFFFFFFFFFFFFFFFFFFFFFFFFFFFFFFFFFFFFF NOT AND PUSH1 0x20 DUP3 ADD DUP1 MLOAD PUSH28 0xFFFFFFFFFFFFFFFFFFFFFFFFFFFFFFFFFFFFFFFFFFFFFFFFFFFFFFFF DUP4 DUP2 DUP4 AND OR DUP4 MSTORE POP POP POP POP PUSH1 0x40 MLOAD PUSH2 0x322 SWAP2 SWAP1 PUSH2 0x59C JUMP JUMPDEST PUSH1 0x0 PUSH1 0x40 MLOAD DUP1 DUP4 SUB DUP2 DUP6 DUP8 GAS CALL SWAP3 POP POP POP RETURNDATASIZE DUP1 PUSH1 0x0 DUP2 EQ PUSH2 0x35F JUMPI PUSH1 0x40 MLOAD SWAP2 POP PUSH1 0x1F NOT PUSH1 0x3F RETURNDATASIZE ADD AND DUP3 ADD PUSH1 0x40 MSTORE RETURNDATASIZE DUP3 MSTORE RETURNDATASIZE PUSH1 0x0 PUSH1 0x20 DUP5 ADD RETURNDATACOPY PUSH2 0x364 JUMP JUMPDEST PUSH1 0x60 SWAP2 POP JUMPDEST POP SWAP2 POP SWAP2 POP DUP2 PUSH2 0x3A9 JUMPI PUSH1 0x40 MLOAD PUSH32 0x8C379A000000000000000000000000000000000000000000000000000000000 DUP2 MSTORE PUSH1 0x4 ADD PUSH2 0x3A0 SWAP1 PUSH2 0x610 JUMP JUMPDEST PUSH1 0x40 MLOAD DUP1 SWAP2 SUB SWAP1 REVERT JUMPDEST DUP1 PUSH1 0x0 SWAP1 DUP2 PUSH2 0x3B8 SWAP2 SWAP1 PUSH2 0x8D7 JUMP JUMPDEST POP POP POP POP JUMP JUMPDEST PUSH1 0x0 DUP2 MLOAD SWAP1 POP SWAP2 SWAP1 POP JUMP JUMPDEST PUSH1 0x0 DUP3 DUP3 MSTORE PUSH1 0x20 DUP3 ADD SWAP1 POP SWAP3 SWAP2 POP POP JUMP JUMPDEST PUSH1 0x0 JUMPDEST DUP4 DUP2 LT ISZERO PUSH2 0x3F8 JUMPI DUP1 DUP3 ADD MLOAD DUP2 DUP5 ADD MSTORE PUSH1 0x20 DUP2 ADD SWAP1 POP PUSH2 0x3DD JUMP JUMPDEST PUSH1 0x0 DUP5 DUP5 ADD MSTORE POP POP POP POP JUMP JUMPDEST PUSH1 0x0 PUSH1 0x1F NOT PUSH1 0x1F DUP4 ADD AND SWAP1 POP SWAP2 SWAP1 POP JUMP JUMPDEST PUSH1 0x0 PUSH2 0x420 DUP3 PUSH2 0x3BE JUMP JUMPDEST PUSH2 0x42A DUP2 DUP6 PUSH2 0x3C9 JUMP JUMPDEST SWAP4 POP PUSH2 0x43A DUP2 DUP6 PUSH1 0x20 DUP7 ADD PUSH2 0x3DA JUMP JUMPDEST PUSH2 0x443 DUP2 PUSH2 0x404 JUMP JUMPDEST DUP5 ADD SWAP2 POP POP SWAP3 SWAP2 POP POP JUMP JUMPDEST PUSH1 0x0 PUSH1 0x20 DUP3 ADD SWAP1 POP DUP2 DUP2 SUB PUSH1 0x0 DUP4 ADD MSTORE PUSH2 0x468 DUP2 DUP5 PUSH2 0x415 JUMP JUMPDEST SWAP1 POP SWAP3 SWAP2 POP POP JUMP JUMPDEST PUSH1 0x0 DUP1 REVERT JUMPDEST PUSH1 0x0 PUSH20 0xFFFFFFFFFFFFFFFFFFFFFFFFFFFFFFFFFFFFFFFF DUP3 AND SWAP1 POP SWAP2 SWAP1 POP JUMP JUMPDEST PUSH1 0x0 PUSH2 0x4A0 DUP3 PUSH2 0x475 JUMP JUMPDEST SWAP1 POP SWAP2 SWAP1 POP JUMP JUMPDEST PUSH2 0x4B0 DUP2 PUSH2 0x495 JUMP JUMPDEST DUP2 EQ PUSH2 0x4BB JUMPI PUSH1 0x0 DUP1 REVERT JUMPDEST POP JUMP JUMPDEST PUSH1 0x0 DUP2 CALLDATALOAD SWAP1 POP PUSH2 0x4CD DUP2 PUSH2 0x4A7 JUMP JUMPDEST SWAP3 SWAP2 POP POP JUMP JUMPDEST PUSH1 0x0 PUSH1 0x20 DUP3 DUP5 SUB SLT ISZERO PUSH2 0x4E9 JUMPI PUSH2 0x4E8 PUSH2 0x470 JUMP JUMPDEST JUMPDEST PUSH1 0x0 PUSH2 0x4F7 DUP5 DUP3 DUP6 ADD PUSH2 0x4BE JUMP JUMPDEST SWAP2 POP POP SWAP3 SWAP2 POP POP JUMP JUMPDEST PUSH32 0x4E487B7100000000000000000000000000000000000000000000000000000000 PUSH1 0x0 MSTORE PUSH1 0x22 PUSH1 0x4 MSTORE PUSH1 0x24 PUSH1 0x0 REVERT JUMPDEST PUSH1 0x0 PUSH1 0x2 DUP3 DIV SWAP1 POP PUSH1 0x1 DUP3 AND DUP1 PUSH2 0x547 JUMPI PUSH1 0x7F DUP3 AND SWAP2 POP JUMPDEST PUSH1 0x20 DUP3 LT DUP2 SUB PUSH2 0x55A JUMPI PUSH2 0x559 PUSH2 0x500 JUMP JUMPDEST JUMPDEST POP SWAP2 SWAP1 POP JUMP JUMPDEST PUSH1 0x0 DUP2 SWAP1 POP SWAP3 SWAP2 POP POP JUMP JUMPDEST PUSH1 0x0 PUSH2 0x576 DUP3 PUSH2 0x3BE JUMP JUMPDEST PUSH2 0x580 DUP2 DUP6 PUSH2 0x560 JUMP JUMPDEST SWAP4 POP PUSH2 0x590 DUP2 DUP6 PUSH1 0x20 DUP7 ADD PUSH2 0x3DA JUMP JUMPDEST DUP1 DUP5 ADD SWAP2 POP POP SWAP3 SWAP2 POP POP JUMP JUMPDEST PUSH1 0x0 PUSH2 0x5A8 DUP3 DUP5 PUSH2 0x56B JUMP JUMPDEST SWAP2 POP DUP2 SWAP1 POP SWAP3 SWAP2 POP POP JUMP JUMPDEST PUSH1 0x0 DUP3 DUP3 MSTORE PUSH1 0x20 DUP3 ADD SWAP1 POP SWAP3 SWAP2 POP POP JUMP JUMPDEST PUSH32 0x43414C4C204641494C4544000000000000000000000000000000000000000000 PUSH1 0x0 DUP3 ADD MSTORE POP JUMP JUMPDEST PUSH1 0x0 PUSH2 0x5FA PUSH1 0xB DUP4 PUSH2 0x5B3 JUMP JUMPDEST SWAP2 POP PUSH2 0x605 DUP3 PUSH2 0x5C4 JUMP JUMPDEST PUSH1 0x20 DUP3 ADD SWAP1 POP SWAP2 SWAP1 POP JUMP JUMPDEST PUSH1 0x0 PUSH1 0x20 DUP3 ADD SWAP1 POP DUP2 DUP2 SUB PUSH1 0x0 DUP4 ADD MSTORE PUSH2 0x629 DUP2 PUSH2 0x5ED JUMP JUMPDEST SWAP1 POP SWAP2 SWAP1 POP JUMP JUMPDEST PUSH32 0x63616C6C20666F6F000000000000000000000000000000000000000000000000 PUSH1 0x0 DUP3 ADD MSTORE POP JUMP JUMPDEST PUSH1 0x0 PUSH2 0x666 PUSH1 0x8 DUP4 PUSH2 0x5B3 JUMP JUMPDEST SWAP2 POP PUSH2 0x671 DUP3 PUSH2 0x630 JUMP JUMPDEST PUSH1 0x20 DUP3 ADD SWAP1 POP SWAP2 SWAP1 POP JUMP JUMPDEST PUSH1 0x0 DUP2 SWAP1 POP SWAP2 SWAP1 POP JUMP JUMPDEST PUSH1 0x0 PUSH1 0xFF DUP3 AND SWAP1 POP SWAP2 SWAP1 POP JUMP JUMPDEST PUSH1 0x0 DUP2 SWAP1 POP SWAP2 SWAP1 POP JUMP JUMPDEST PUSH1 0x0 PUSH2 0x6B8 PUSH2 0x6B3 PUSH2 0x6AE DUP5 PUSH2 0x67C JUMP JUMPDEST PUSH2 0x693 JUMP JUMPDEST PUSH2 0x686 JUMP JUMPDEST SWAP1 POP SWAP2 SWAP1 POP JUMP JUMPDEST PUSH2 0x6C8 DUP2 PUSH2 0x69D JUMP JUMPDEST DUP3 MSTORE POP POP JUMP JUMPDEST PUSH1 0x0 PUSH1 0x40 DUP3 ADD SWAP1 POP DUP2 DUP2 SUB PUSH1 0x0 DUP4 ADD MSTORE PUSH2 0x6E7 DUP2 PUSH2 0x659 JUMP JUMPDEST SWAP1 POP PUSH2 0x6F6 PUSH1 0x20 DUP4 ADD DUP5 PUSH2 0x6BF JUMP JUMPDEST SWAP3 SWAP2 POP POP JUMP JUMPDEST PUSH32 0x4E487B7100000000000000000000000000000000000000000000000000000000 PUSH1 0x0 MSTORE PUSH1 0x41 PUSH1 0x4 MSTORE PUSH1 0x24 PUSH1 0x0 REVERT JUMPDEST PUSH1 0x0 DUP2 SWAP1 POP DUP2 PUSH1 0x0 MSTORE PUSH1 0x20 PUSH1 0x0 KECCAK256 SWAP1 POP SWAP2 SWAP1 POP JUMP JUMPDEST PUSH1 0x0 PUSH1 0x20 PUSH1 0x1F DUP4 ADD DIV SWAP1 POP SWAP2 SWAP1 POP JUMP JUMPDEST PUSH1 0x0 DUP3 DUP3 SHL SWAP1 POP SWAP3 SWAP2 POP POP JUMP JUMPDEST PUSH1 0x0 PUSH1 0x8 DUP4 MUL PUSH2 0x78D PUSH32 0xFFFFFFFFFFFFFFFFFFFFFFFFFFFFFFFFFFFFFFFFFFFFFFFFFFFFFFFFFFFFFFFF DUP3 PUSH2 0x750 JUMP JUMPDEST PUSH2 0x797 DUP7 DUP4 PUSH2 0x750 JUMP JUMPDEST SWAP6 POP DUP1 NOT DUP5 AND SWAP4 POP DUP1 DUP7 AND DUP5 OR SWAP3 POP POP POP SWAP4 SWAP3 POP POP POP JUMP JUMPDEST PUSH1 0x0 DUP2 SWAP1 POP SWAP2 SWAP1 POP JUMP JUMPDEST PUSH1 0x0 PUSH2 0x7D4 PUSH2 0x7CF PUSH2 0x7CA DUP5 PUSH2 0x7AF JUMP JUMPDEST PUSH2 0x693 JUMP JUMPDEST PUSH2 0x7AF JUMP JUMPDEST SWAP1 POP SWAP2 SWAP1 POP JUMP JUMPDEST PUSH1 0x0 DUP2 SWAP1 POP SWAP2 SWAP1 POP JUMP JUMPDEST PUSH2 0x7EE DUP4 PUSH2 0x7B9 JUMP JUMPDEST PUSH2 0x802 PUSH2 0x7FA DUP3 PUSH2 0x7DB JUMP JUMPDEST DUP5 DUP5 SLOAD PUSH2 0x75D JUMP JUMPDEST DUP3 SSTORE POP POP POP POP JUMP JUMPDEST PUSH1 0x0 SWAP1 JUMP JUMPDEST PUSH2 0x817 PUSH2 0x80A JUMP JUMPDEST PUSH2 0x822 DUP2 DUP5 DUP5 PUSH2 0x7E5 JUMP JUMPDEST POP POP POP JUMP JUMPDEST JUMPDEST DUP2 DUP2 LT ISZERO PUSH2 0x846 JUMPI PUSH2 0x83B PUSH1 0x0 DUP3 PUSH2 0x80F JUMP JUMPDEST PUSH1 0x1 DUP2 ADD SWAP1 POP PUSH2 0x828 JUMP JUMPDEST POP POP JUMP JUMPDEST PUSH1 0x1F DUP3 GT ISZERO PUSH2 0x88B JUMPI PUSH2 0x85C DUP2 PUSH2 0x72B JUMP JUMPDEST PUSH2 0x865 DUP5 PUSH2 0x740 JUMP JUMPDEST DUP2 ADD PUSH1 0x20 DUP6 LT ISZERO PUSH2 0x874 JUMPI DUP2 SWAP1 POP JUMPDEST PUSH2 0x888 PUSH2 0x880 DUP6 PUSH2 0x740 JUMP JUMPDEST DUP4 ADD DUP3 PUSH2 0x827 JUMP JUMPDEST POP POP JUMPDEST POP POP POP JUMP JUMPDEST PUSH1 0x0 DUP3 DUP3 SHR SWAP1 POP SWAP3 SWAP2 POP POP JUMP JUMPDEST PUSH1 0x0 PUSH2 0x8AE PUSH1 0x0 NOT DUP5 PUSH1 0x8 MUL PUSH2 0x890 JUMP JUMPDEST NOT DUP1 DUP4 AND SWAP2 POP POP SWAP3 SWAP2 POP POP JUMP JUMPDEST PUSH1 0x0 PUSH2 0x8C7 DUP4 DUP4 PUSH2 0x89D JUMP JUMPDEST SWAP2 POP DUP3 PUSH1 0x2 MUL DUP3 OR SWAP1 POP SWAP3 SWAP2 POP POP JUMP JUMPDEST PUSH2 0x8E0 DUP3 PUSH2 0x3BE JUMP JUMPDEST PUSH8 0xFFFFFFFFFFFFFFFF DUP2 GT ISZERO PUSH2 0x8F9 JUMPI PUSH2 0x8F8 PUSH2 0x6FC JUMP JUMPDEST JUMPDEST PUSH2 0x903 DUP3 SLOAD PUSH2 0x52F JUMP JUMPDEST PUSH2 0x90E DUP3 DUP3 DUP6 PUSH2 0x84A JUMP JUMPDEST PUSH1 0x0 PUSH1 0x20 SWAP1 POP PUSH1 0x1F DUP4 GT PUSH1 0x1 DUP2 EQ PUSH2 0x941 JUMPI PUSH1 0x0 DUP5 ISZERO PUSH2 0x92F JUMPI DUP3 DUP8 ADD MLOAD SWAP1 POP JUMPDEST PUSH2 0x939 DUP6 DUP3 PUSH2 0x8BB JUMP JUMPDEST DUP7 SSTORE POP PUSH2 0x9A1 JUMP JUMPDEST PUSH1 0x1F NOT DUP5 AND PUSH2 0x94F DUP7 PUSH2 0x72B JUMP JUMPDEST PUSH1 0x0 JUMPDEST DUP3 DUP2 LT ISZERO PUSH2 0x977 JUMPI DUP5 DUP10 ADD MLOAD DUP3 SSTORE PUSH1 0x1 DUP3 ADD SWAP2 POP PUSH1 0x20 DUP6 ADD SWAP5 POP PUSH1 0x20 DUP2 ADD SWAP1 POP PUSH2 0x952 JUMP JUMPDEST DUP7 DUP4 LT ISZERO PUSH2 0x994 JUMPI DUP5 DUP10 ADD MLOAD PUSH2 0x990 PUSH1 0x1F DUP10 AND DUP3 PUSH2 0x89D JUMP JUMPDEST DUP4 SSTORE POP JUMPDEST PUSH1 0x1 PUSH1 0x2 DUP9 MUL ADD DUP9 SSTORE POP POP POP JUMPDEST POP POP POP POP POP POP JUMP INVALID LOG2 PUSH5 0x6970667358 0x22 SLT KECCAK256 PC 0x2F 0xD5 SWAP9 SWAP1 CALLDATALOAD 0x22 DUP14 DUP7 OR DUP4 PUSH5 0x2C2504C9E7 BLOCKHASH ORIGIN PUSH20 0xC02D0BCB9FBD635ACFCB371064736F6C63430008 GT STOP CALLER "
				},
				"gasEstimates": {
					"creation": {
						"codeDepositCost": "505400",
						"executionCost": "537",
						"totalCost": "505937"
					},
					"external": {
						"callDoesNotExixt(address)": "infinite",
						"callFoo(address)": "infinite",
						"data()": "infinite"
					}
				},
				"methodIdentifiers": {
					"callDoesNotExixt(address)": "ccd6dd0d",
					"callFoo(address)": "edcbe76c",
					"data()": "73d4a13a"
				}
			},
			"storageLayout": {
				"storage": [
					{
						"astId": 44,
						"contract": "solidityTasks-Web3Bridge/SweetPractice/Call.sol:Call",
						"label": "data",
						"offset": 0,
						"slot": "0",
						"type": "t_bytes_storage"
					}
				],
				"types": {
					"t_bytes_storage": {
						"encoding": "bytes",
						"label": "bytes",
						"numberOfBytes": "32"
					}
				}
			},
			"userdoc": {
				"kind": "user",
				"methods": {},
				"version": 1
			}
		}
	}
}